:020000040800F2
:10000000008001207D2400087D1E00087F1E00085E
:10001000811E0008831E0008851E000800000000E5
:10002000000000000000000000000000871E000823
:10003000891E0008000000008B1E00088D1E0008AD
:10004000CD240008CD240008CD240008CD240008CC
:10005000CD240008CD240008CD240008CD240008BC
:10006000CD240008CD240008CD240008911E0008EE
:10007000CD240008CD240008CD240008CD2400089C
:100080009D1E0008CD240008CD24000800000000BB
:10009000000000000000000000000000CD24000867
:1000A000CD240008CD240008A91E0008CD24000896
:1000B000CD240008CD240008CD240008CD2400085C
:1000C000CD240008CD240008CD240008CD2400084C
:1000D000CD240008CD240008DD1E0008000000002B
:1000E000C51E0008CD240008CD2400080000000033
:1000F000000000000000000000000000CD24000807
:1001000000000000CD240008CD240008DB1E0008FC
:1001100000000000000000000000000000000000DF
:10012000CD240008CD240008CD240008E91E0008D5
:10013000CD240008000000000000000000000000C6
:10014000000000000000000000000000CD240008B6
:10015000CD240008CD240008CD240008CD240008BB
:10016000CD240008CD24000800000000000000009D
:10017000000000000000000000000000000000007F
:1001800000000000CD240008000000000000000076
:04019000CD24000872
:1001A00010B5054C237833B9044B13B10448AFF3B1
:1001B00000800123237010BDF80000200000000023
:1001C000A4FE020808B5034B1BB103490348AFF373
:1001D000008008BD00000000FC000020A4FE020812
:1001E00001F0FF01102A2BDB10F0070F08D010F8E8
:1001F000013B013A8B422DD010F0070F42B3F6D1EC
:10020000F0B441EA012141EA014122F007047FF004
:1002100000070023F0E80256083C85EA010586EA5B
:10022000010685FA47F5A3FA87F586FA47F6A5FA97
:1002300087F68EB9EED1F0BC01F0FF0102F00702A3
:1002400032B110F8013B013A83EA010313B1F8D14E
:100250000020704701387047002D06BF354603382F
:10026000073815F0010F07D1013015F4807F02BF68
:10027000013015F4C03F0130F0BC0138704700BFB9
:100280007BB972B90029BEBF00204FF0004106E0E3
:1002900008BF00281CBF6FF000414FF0FF3000F096
:1002A000D3B9ADF1080C6DE904CE002909DB002BB0
:1002B0001ADB00F04DF8DDF804E0DDE9022304B0BC
:1002C0007047404261EB4101002B1BDB00F040F81E
:1002D000DDF804E0DDE9022304B0404261EB4101B6
:1002E000524263EB43037047524263EB430300F017
:1002F0002FF8DDF804E0DDE9022304B0404261EBB1
:1003000041017047524263EB430300F021F8DDF8EE
:1003100004E0DDE9022304B0524263EB430370477B
:1003200053B94AB9002908BF00281CBF4FF0FF315C
:100330004FF0FF3000F088B9ADF1080C6DE904CE44
:1003400000F006F8DDF804E0DDE9022304B07047B0
:100350002DE9F047089D8E4604468846002B4AD179
:100360008A42174662D9B2FA82F64EB1C6F120032C
:1003700001FA06F820FA03F3B74043EA0808B4404C
:100380004FEA174E1FFA87FCB8FBFEF1230C0EFB59
:10039000118843EA084301FB0CF29A4209D9FB1881
:1003A00001F1FF3080F0EA809A4240F2E7800239A2
:1003B0003B449A1AA3B2B2FBFEF00EFB102243EAB2
:1003C000024300FB0CFC9C4509D9FB1800F1FF32ED
:1003D00080F0D6809C4540F2D3803B44023840EA0E
:1003E0000140A3EB0C0300211DB1F3400022C5E93D
:1003F0000032BDE8F0878B4205D90DB1C5E9000197
:1004000000210846F5E7B3FA83F1002946D1734588
:1004100002D3824200F20581841A6EEB03020120AE
:100420009046002DE5D0C5E90048E2E7002A00F03B
:100430009080B2FA82F6002E40F0A4808A1A030C53
:100440004FEA174E80B2BCB20121B2FBFEFC0EFB9C
:100450001C2243EA024304FB0CF29A4207D9FB1820
:100460000CF1FF3802D29A4200F2E080C4469B1A97
:10047000B3FBFEF20EFB123340EA034302FB04F42B
:100480009C4207D9FB1802F1FF3002D29C4200F2D5
:10049000CA8002461B1B42EA0C40A5E7C1F12006B8
:1004A0008B4022FA06F71F430EFA01F420FA06F3F6
:1004B0002EFA06FE4FEA1749234300FA01F81FFA05
:1004C00087FCBEFBF9F01C0C09FB10EE44EA0E445D
:1004D00000FB0CFEA64502FA01F209D93C1900F115
:1004E000FF3A80F09C80A64540F2998002383C4457
:1004F000A4EB0E041FFA83FEB4FBF9F309FB1344CB
:100500004EEA044403FB0CFCA44508D93C1903F152
:10051000FF3E80F08280A4457FD9023B3C4443EA01
:100520000040A4EB0C04A0FB02EC64457346E146DA
:1005300062D35FD05DB1B8EB030264EB090404FA47
:1005400006F622FA01F31E43CC40C5E900640021FF
:100550004FE7B1FBF2FC010C41EA0E4180B240EAE8
:1005600001423B4638463C46B846BE462026B1FBD3
:10057000F7F1A2EB080241EA0C4166E7014618E7F1
:1005800010462CE7C6F120022EFA02F3B740B14024
:1005900020FA02F24FEA174E0A43B3FBFEF8BCB250
:1005A0000EFB1833110C41EA034108FB04F9B0407B
:1005B00089454FEA104380B23ED9791808F1FF3CD3
:1005C00001D289451FD8A1EB0901B1FBFEF909FB56
:1005D00004F80EFB191192B242EA0142424529D2B7
:1005E000BA1809F1FF31C4D24245C2D2A9F10201C1
:1005F0003A44BEE7F0459DD2BEEB02036CEB070C1C
:100600000138E14696E7A7EB09094944A8F1020C35
:10061000B1FBFEF909FB04F8DBE773467FE75046C0
:1006200066E70846FDE63B44023A33E7ACF1020CCC
:100630003B441CE749469CE7A1EB0901C446B1FBDA
:10064000FEF909FB04F8C4E7704700BF01F092BD52
:1006500001F0A8BD70B504460D46164601F012FE25
:1006600030B9324629462046BDE8704001F09ABDB7
:1006700070BD000037B515468DF8070000221548FB
:100680000C464FF4007102F0A5FA134800224FF413
:10069000806102F09FFA11484FF0FF3301220DF103
:1006A000070103F073F96DB164B10B4801224FF4F7
:1006B000806102F08FFA09484FF0FF33AAB2214659
:1006C00003F064F9034801224FF4007102F082FA4A
:1006D00003B030BD0000024000040240AC4F0020D7
:1006E00000221146FFF7C6BF08B52920FFF7F8FF23
:1006F000BDE808400A2001F03BBF00002DE9F743A8
:10070000DFF87890DFF878801C46B9F80030834233
:1007100007460D46164603D1B8F8003093420FD075
:100720007BBA0422ADF804300DEB020173BA2A2023
:10073000ADF80630FFF79EFFA9F80070A8F800603A
:100740000C4F0D4E3B88AB4202D13388A3420DD0F3
:100750006BBA0422ADF804300DEB020163BA2B2012
:10076000ADF80630FFF786FF3D80348003B0BDE86A
:10077000F08300BF06000020040000200A000020D3
:100780000800002010B5112086B0FFF7A9FF7820DF
:1007900001F0EEFE662302A901223A208DF808300E
:1007A000FFF768FFE82302A9012236208DF8083000
:1007B000FFF760FF2120FFF793FF002402A9012229
:1007C000B0208DF80840FFF755FF4FF48D5302A974
:1007D0000222B120ADF80830FFF74CFF40F20223AF
:1007E000ADF8083002A93B230322B6208DF80A3069
:1007F000FFF740FF41F2157302A90222C020ADF8B5
:100800000830FFF737FF41230DF107010122C12016
:100810008DF80730FFF72EFF4FF49053ADF80830F6
:1008200002A980230322C5208DF80A30FFF722FF9A
:100830000DF107010122E9208DF80740FFF71AFFAB
:10084000154B029302A90422F720FFF713FF134A66
:10085000134B0F24CDE90223124B0493224641F699
:10086000162302A9E020ADF814308DF81640FFF7EA
:1008700001FF0D490D4B8DF81640CDE902130C4BCD
:100880000493224643F2357302A9E120ADF81430F7
:10089000FFF7F0FE06B010BDA9512C820003090835
:1008A000160A3F784C090A08001619030F0532454D
:1008B00046040E0D10B5094C00220221204602F01C
:1008C00089F90A2001F054FE20460122022102F09B
:1008D00081F9BDE81040782001F04ABE00000240D6
:1008E00070470000014B1878704700BF144C00207F
:1008F000F7B52C4C0646012708461146BDF82020C6
:1009000027704C1E02FB03F52244441E1C4493B284
:10091000A2B2FFF7F3FE244A304605FA07F406EBCD
:100920004506B04202F1030224D1204800224FF4D0
:10093000007102F04FF91E4800224FF4806102F06E
:1009400049F92C238DF807300DF107014FF0FF33E3
:100950000122184803F01AF8154801224FF480616B
:1009600002F038F92A191049124892B203F05EFADF
:1009700003B0F0BD30F8023B190A21F0070141EA4B
:10098000533102F8031CD908C3F3412721F00301B6
:10099000394302F8021CC3F3820141EAC30302F89F
:1009A000013CBEE7144C002014010020000002406E
:1009B00000040240AC4F002008B50268084B9A4280
:1009C0000CD1012207484FF4007102F003F9064BE5
:1009D00000221A70BDE8084014F04AB808BD00BFF4
:1009E0000030014000000240144C0020034608463D
:1009F00051B142B1B3FBF2F102FB1133D21A904272
:100A000028BF104670471046704730B121B14B1EC9
:100A10001844B0FBF1F07047084670472DE9F743E2
:100A20000D46074601F09EFDDFF87490064600244F
:100A300000EB050801F096FD801B854201D80020DF
:100A400025E001F08FFD821BAA42F8D2B8EB00032B
:100A5000F5D0322B28BF3223114801220DF10301BA
:100A600004F0EBF848B100230193D9F800301A687C
:100A700001925B680193019BDCE79DF803303A5DCE
:100A80009A4207D10134A4B2082CD3D1012003B07B
:100A9000BDE8F0833C78E31A5C425C41CAE700BFE2
:100AA000BC4D00200A4641F288330146014804F05B
:100AB00076B800BFBC4D002007B545238DF8050072
:100AC000022101A88DF80430FFF7ECFF03B05DF8B8
:100AD00004FB07B5532300938DF801008DF8031034
:100AE000000A090A8DF802008DF8041068460521F5
:100AF000FFF7D8FF03B05DF804FB00002DE9F04FCD
:100B000089B0002900F0DF8047F230517148FFF7CB
:100B100085FF20B30DF109004826029601F01EFB67
:100B2000042102A8FFF7BEFF01F012FB28B94920FB
:100B300009B0BDE8F04FFFF7BFBF674841F2883109
:100B4000FFF76CFF40B1654841F2883308226946DF
:100B500004F073F8044628B15420FFF7ADFF09B044
:100B6000BDE8F08FDDE9005A5D4BBDF800B06A1EAC
:100B70009A4201D33046F0E74123012102A88DF8C3
:100B80000830FFF78FFF4FF480512846FFF73DFFF5
:100B9000461C0746B6B2BC422BD1514801F0AEFB11
:100BA00088B331463046FFF794FF5223012102A853
:100BB0008DF80830FFF776FFDFF834914FF0FF37FC
:100BC00000242E1BB6F5807F28BF4FF48076434863
:100BD00041F28833B2B2494604F02FF8804600282B
:100BE000BAD132464946204601F00AFC68B9502085
:100BF000B3E7200301F082FB013420B13146A0B2FB
:100C0000FFF767FFC7E74520A7E732464946384662
:100C100000F072F834444B230293230A8DF80A3013
:100C2000230C8DF80B300746230E052102A88DF802
:100C300009408DF80C30FFF735FFA542C1D8384682
:100C400000F072F8824501D0432086E71322414626
:100C50000DF10D002EF04DF90124224B2048029396
:100C60002D0C182202A98DF80C40ADF810B08DF8AB
:100C70001250CDF814A001F0C3FB08B94D206CE769
:100C80005625214602A88DF80850FFF70BFF01F00A
:100C9000B7FA08B9284660E74423214602A88DF830
:100CA0000830FFF7FFFE642001F062FCBFF34F8FB6
:100CB0000D490E4BCA6802F4E0621343CB60BFF3E8
:100CC0004F8F00BFFDE700287FF449AF40F6B831F1
:100CD0001CE700BFFCFE020805FF0208BC4D002017
:100CE00000F07F005448444100ED00E00400FA05A4
:100CF000154C00200068704730B519B1094D0A4401
:100D0000914200D130BD11F8013B5840082340F317
:100D10000004013B2C4013F0FF0384EA5000F6D19D
:100D2000EEE700BF2083B8EDC043704708B5034627
:100D300090B191B1FFF7DEFF0860181DFFF7DAFFF1
:100D4000486003F10800FFF7D5FF886003F10C004D
:100D5000FFF7D0FFC860012008BD0846FCE700008F
:100D600070B10268074B9A4209D14368012B06D142
:100D7000806828B188428CBF002001207047002085
:100D8000704700BF5448444108B5FFF7ABFD30B988
:100D9000044803F0F5FA431E5842584108BD0020AC
:100DA000FCE700BFAC4F002010B588B004462022FD
:100DB000002168462EF09DF82046694600F0EDF8C7
:100DC000044668B9FFF7E0FF60B1074820236A4690
:100DD000214600F0DDFB002818BF052008B010BD3B
:100DE0000320FBE70420F9E75C1F030810B588B077
:100DF00004462022002168462EF07BF89CB1FFF7C4
:100E0000C3FF90B10B4820236A46002100F08EFBFF
:100E100068B92146684600F007F9032828BF032077
:100E2000C0B208B010BD0320FBE70420F9E705209D
:100E3000F7E700BF5C1F0308F0B50F4B0F4F104CD6
:100E4000104987B0012600201E703870266000F01F
:100E500047F901A8FFF7CAFFB0420AD8059B3344FF
:100E6000236030B901AC0FCC064D3E700FC523682E
:100E70002B6007B0F0BD00BF2D4D00202C4D002091
:100E80000C000020184D0020F0B50F4B1B7887B0E8
:100E90000BB9FFF7D1FF0D4F01A9386800F020F919
:100EA00001A8FFF781FF064650B901AC0FCC084DF1
:100EB0000FC523682B60074B1E703B6801333B60F6
:100EC000304607B0F0BD00BF2D4D00200C000020C3
:100ED000184D00202C4D00202DE9F043054687B029
:100EE000002830D0194B1B780BB9FFF7A5FFDFF8AE
:100EF0006880174998F80020284600F0FCF804465E
:100F00008146B8B1012819D1124F01AA3968284683
:100F100000F0D2F801A8FFF747FF044650B901AD31
:100F20000FCD0B4E88F800900FC62B6833603B68DE
:100F300001333B60204607B0BDE8F08307B0BDE851
:100F4000F043FFF7A1BF0324F4E700BF2D4D0020BD
:100F5000184D00200C0000202C4D00200068704728
:100F600030B500B939B90246014441F221044FF6C7
:100F7000FF708A4200D130BD12F8013B80EA0320A5
:100F8000082305B24000002D80B203F1FF33B8BF43
:100F9000604013F0FF03F4D1EBE770B50C46054653
:100FA00000283FD000293DD020263246002120468F
:100FB0002DF09FFF42222B78227053226270542220
:100FC000A2705222E27001222271A67123726B88F4
:100FD000A3721B0AE372AB8823731B0A6373EB884B
:100FE000A3731B0AE373EB6823741A0A62741A0C66
:100FF0001B0EA274E3742B6923751A0A62751A0C0E
:101000001B0EA275E3756B7823762B7A63766B7A69
:10101000A3761E212046FFF7A3FFA077000AE07702
:10102000002070BD0320FCE770B50D460446002883
:101030003CD000293AD01422002128462DF059FF37
:101040002046FFF78BFF1B4B984231D1A388012B21
:101050002ED1E388202B2BD11E212046FFF780FFC5
:10106000E68BB04224D1228902F001032B70638900
:101070006B80A189A980E189E98004F11000FFF764
:101080006DFFE86004F11400FFF768FF2861217E1E
:101090006970617E2972A17E697212F0010F4FF0B2
:1010A000000000D00BB92870012070BD0320FCE7C0
:1010B0000220FAE74253545288B182B101231370DF
:1010C000437853704388538083889380C388D38048
:1010D000037A1372437A5372C368C2E903317047CB
:1010E00010B50B46044629B11422002118462DF0F4
:1010F00000FF046110BD10B550B1037833B14378DF
:1011000023B1448814B122B9012001E05200D0B2C9
:1011100010BD0029F8D04A88A242F5D18C88828877
:101120009442F1D14A789A42EED10A8903899A42CF
:10113000EAD1CB68C068181A18BF0120E8E70000A0
:10114000642828BF64200F4B0A2838BF0A20187073
:101150000D4B1B68A3B11A680C49D36A096803FBDD
:1011600000006423B0FBF3F309B95363704704290B
:1011700001D193637047082901D1D3637047136489
:10118000704700BF10000020344D0020304D00207B
:1011900038B5094B1860094B1960094B04466420A7
:1011A0000D4618703CB1FFF7CBFF29462046BDE83D
:1011B000384003F0A7BB38BD344D0020304D00202F
:1011C0001000002008B501F0CDF90C4A002313707F
:1011D0000B4A10600B4A10600B4A10600B4A1370E8
:1011E0000B4A13800B4A13800B4A4FF4F5711160C0
:1011F0000A4A13600A4A136008BD00BF584D002018
:10120000544D0020504D00204C4D0020484D0020F2
:10121000464D0020444D0020404D00203C4D002014
:10122000384D0020034B1A781AB901221A70FFF7C3
:10123000C9BF7047594D0020F8B5044601F092F936
:101240000546FFF7EFFF5448544F0378544E554975
:1012500083B13B7873B9544A1268AA1AB2F5FA6F8F
:1012600006D301223A70514A03701360504B1D603F
:101270000D600CE03A783388022AF9D10A68002020
:10128000002B36D108B133800A60FFF79BFF3A7814
:10129000DFF818C14749DCF80000DFF814E1464FD9
:1012A000931E012B2FD90860CEF800500023237025
:1012B000131E18BF01236370E370338823813F4BF3
:1012C00022711B886381D31E5A425A410323002096
:1012D00063733B68A070236101200B682273E08078
:1012E00063612076F8BD013B9BB202F57A72012062
:1012F000C6E7A5EB020CBCF57A7FF4D20028C6D075
:1013000033800A60C3E7032A07D1B0F5FA7FA8BF8C
:101310004FF4FA7020EAE070C5E7DEF80030CEF84E
:101320000050EB1A4FF03C0E0EFB03FEBEF57A7F29
:1013300025DB4FF47A739EFBF3F3D7F800E0864584
:1013400021DD03447345D4BFCCF80030CCF800E075
:10135000DCF800309E4508D119484FF4AF73B5FB57
:10136000F3F303F00703C3567344B3F5FA7FA8BF42
:101370004FF4FA7323EAE3730B60012397E7003B12
:1013800018BF0123D9E7E3DAC01A7045ACBFCCF827
:101390000000CCF800E0DBE7584D0020484D00206D
:1013A000464D00204C4D0020544D00203C4D002067
:1013B000504D0020384D0020404D0020444D00206D
:1013C0006C1F0308024B01221A70FFF7FBBE00BF1F
:1013D000594D002008B1FFF72FBF704710B501F03D
:1013E000C1F80446FFF71EFF094A137803F0FD0316
:1013F000012B0BD102231370064B1E221A80064BC1
:1014000000221A80054B1C60054B1C60012010BD9A
:10141000484D0020464D0020444D0020504D0020F6
:101420004C4D002008B5FFF7FDFE054B1A78022A47
:1014300004D103221A70034B05221A80012008BD33
:10144000484D0020444D002010B501F08BF80446B3
:10145000FFF7E8FE074B1A78032A08D102221A7018
:10146000054B00221A80054B1C60054B1C600120B7
:1014700010BD00BF484D0020444D0020504D0020BD
:101480004C4D002008B5FFF7CDFEFFF79BFE012075
:1014900008BD000010B50446FFF7C4FEB4F5F57FA3
:1014A000A8BF4FF4F574044BB4F5917FB8BF4FF467
:1014B00091741C60012010BD404D002008B5FFF75D
:1014C000B1FE064B1B7833B9054B01221A7001F0AF
:1014D00049F8044B1860012008BD00BF484D0020AA
:1014E000584D0020544D002008B5FFF79BFE024BDD
:1014F00000221A70012008BD584D002001207047BD
:101500007047704730B1036823B14068B0FA80F08B
:10151000400970470120704701894068002201F0AE
:1015200059BB01894068012201F054BBF7B505465B
:1015300017461E46FFF7E6FF40BB3AB38B19B3F5DB
:10154000004F23D806B30B0A032428468DF8044025
:101550008DF805308DF80610FFF7DEFF2246EB68A8
:10156000286801A902F012FA044630B9EB6828682D
:10157000B2B2394602F0B6FB04462846FFF7D1FF67
:10158000201E18BF0120400003B0F0BD0120FBE782
:101590002DE9F34105460C4617461E46FFF7B2FFFC
:1015A00000283DD1002A3BD08B19B3F5004F37D826
:1015B0009EB3062328468DF80430FFF7ADFFEB6895
:1015C0002868012201A902F0E1F980462846FFF7C8
:1015D000A8FF0220B8F1000F1FD1230A8DF80400E4
:1015E00028468DF805308DF80640FFF795FFEB682B
:1015F0002868032201A902F0C9F9044630B9EB6852
:101600002868B2B2394602F0C1F904462846FFF70D
:1016100088FF201E18BF0120400002B0BDE8F08105
:101620000120FAE710B594B01422002109A82DF08A
:1016300060FC1422002103A82DF05BFC1F4B00224C
:101640000192196C41F0805119641B6C1C4903F024
:1016500080530193019B02920B6823F4404343F4AF
:1016600000430B600B6803F440430293029B01218B
:1016700010234FF4A870CDE90B1310930423CDE988
:1016800011030224072308A8CDE90E4208941393FE
:1016900001F08AFD08B172B6FEE70F23CDE90334ED
:1016A0004FF48053CDE906300590214603A801F0A0
:1016B00057FF08B172B6FEE714B010BD0038024003
:1016C000007000402DE9804897B00024B44D00F030
:1016D00023FFFFF7A7FF142200210EA82DF009FC1D
:1016E00001942B6BAF4843F004032B632B6B03F087
:1016F00004030193019B02942B6B43F080032B6343
:101700002B6B03F080030293029B03942B6B43F03B
:1017100001032B632B6B03F001030393039B0494DE
:101720002B6B43F002032B632B6B03F00203049338
:1017300001220821049B01F04DFA9A4822464FF4F9
:10174000A07101F047FA9848224640F2022101F0C8
:1017500041FA224695484FF4846101F03BFA4FF478
:101760000417904810944FF400580EA90126CDE9B3
:101770000E874FF0080A01F061F90323894811939D
:101780000EA9CDE90EA6109401F058F90222864860
:101790000EA9CDE90E26CDE9104401F04FF94FF422
:1017A000846282480EA9CDE90E264FF0400BCDE9A8
:1017B000104401F043F97B480EA9CDE90EB6CDE9FE
:1017C000104401F03BF94FF4807276480EA9CDE940
:1017D0000E264FF40079CDE9104601F02FF90323CE
:1017E000714811930EA9CDE90E96109401F026F9D7
:1017F0004FF480626C4810960EA9CDE90E2701F0D7
:101800001DF922463146282000F0D8FE282000F09D
:1018100007FF41466348664F01F0D6F9B0FA80F001
:1018200040093246387049465F4801F0D3F9032336
:101830005E4811930EA9CDE90EB6109401F0FEF8A2
:101840005A483246594601F0C5F900942B6B43F4CF
:1018500000132B632B6B03F40013224621460093E5
:101860000B20009B00F0AAFE0B2000F0D9FE2246C0
:101870002146102000F0A2FE102000F0D1FE4D48BD
:101880004D4B036000F0EEFE034608B172B6FEE772
:101890004A484B4A4B4D0362C0E900524FF4804224
:1018A000C0E90233C0E90423C0E9063301F05AFA63
:1018B00008B172B6FEE7444C444BA062C4E9020092
:1018C000C4E90400C4E908004FF482750A262046E2
:1018D000C4E90035C4E9069AE66201F0FBFF03465D
:1018E00008B172B6FEE722683948116821F040015C
:1018F0001160116821F0380141F008011160116890
:10190000C4F81CA041F040011160324AC0E9023322
:10191000C0E90025C0E90433C0E90693C0E90833F3
:10192000C0E90A3601F0D6FF054608B172B6FEE7F7
:101930001C220146CDE905000DEB02002DF0D9FA7D
:10194000202229460EA82DF0D4FA234C234BA56063
:10195000C4E9003541F2670680232046C4E90365E7
:101960006561A36102F0BAFE08B172B6FEE7CDE987
:10197000050005A9204602F0C7FF024608B172B66D
:10198000FEE7CDE90900CDE90B0060230D9007A922
:101990002046CDE9073602F0F9FE08B372B6FEE73D
:1019A00000380240000802400000024000040240EB
:1019B0005A4D0020585000200030024004500020B2
:1019C000801A060000540040AC4F00200030014057
:1019D000544F0020003C00404C4E002000000140CD
:1019E000CDE90E00CDE91000CDE9120815900EA941
:1019F000204602F0BFFF054608B172B6FEE720465A
:101A000000F0D4F9224C234842F2CF03C0E900434E
:101A1000A523C0E903358560856102F033FE0346E6
:101A200008B172B6FEE71C481C4903614FF4E1326D
:101A3000C0E900120C22C0E90233C0E90523C361EA
:101A400003F07EF808B172B6FEE703F001FB00F088
:101A500045FB3B78CBB900F0D3FB3978FFF74EF864
:101A60000F480021FFF794FBFEF724FFFEF738FF35
:101A7000FEF788FEFEF738FE0748FFF7A3FC05488F
:101A800002F0F6FC03F0EBFAFCE70020E5E700BF0C
:101A900000480140044E0020BC4D0020004400409E
:101AA0004C4E002072B6FEE782B00C4B0021009134
:101AB0005A6C42F480425A645A6C02F4804200929A
:101AC000009A01911A6C42F080521A641B6C03F068
:101AD00080530193019B02B0704700BF0038024061
:101AE0000268094B9A4282B00BD100230193074B45
:101AF0001A6B42F480521A631B6B03F480530193F8
:101B0000019B02B0704700BF003002400038024025
:101B100030B5044689B01422002103A82DF0E9F95C
:101B20002268144B9A4222D1134C14480025019587
:101B3000236B43F002032363236B03F0020301933F
:101B4000019B4FF440721223CDE9032303210423A8
:101B5000CDE9061303A900F071FF0295236C43F44D
:101B600000132364236C03F400130293029B09B057
:101B700030BD00BF00540040003802400004024065
:101B800070B514228AB0064600210DEB02002DF03C
:101B9000B0F93368584A934252D1584C58480025FE
:101BA0000095636C43F480536364636C03F4805367
:101BB0000093009B0195236B43F001032363236B88
:101BC00003F001030193019B4FF0E00C0223CDE9E8
:101BD00005C34FF0030E052305A9CDE908E300F086
:101BE0002DFF0295236B474A43F480032363236B45
:101BF000454C03F480030293029B4FF0C063C4E999
:101C000000234023C4E902354FF48063C4E904355E
:101C100020464FF40033C4E90655C4E9083500F006
:101C200047FD08B1FFF73EFF00223B20B464114698
:101C3000A66300F0C3FC3B2000F0F2FC0AB070BDCC
:101C4000324A9342FAD100252C4B03951A6C304C42
:101C500042F400421A641A6C02F400420392039A9E
:101C600004951A6B42F004021A631B6B03F0040321
:101C70000493049B4FF4E0510223CDE905130320A4
:101C80000623CDE9080305A9224800F0D7FE224B20
:101C90002046C4E900354FF48063C4E90255C4E925
:101CA0000435C4E90655C4E9085500F001FD08B142
:101CB000FFF7F8FE194AF464A663194C0023C4E93F
:101CC00000234022C4E9022320464FF48062C4E985
:101CD0000423C4E90633C4E9083300F0E9FC08B181
:101CE000FFF7E0FE00223320B4641146A66300F043
:101CF00065FC3320A0E700BF0030014000380240FF
:101D000000000240586402405C4D0020003C00404E
:101D1000F44E00200008024010600240886002403B
:101D2000944E002007B50F4B02689A4216D100224C
:101D300003F59C330192596C41F0010159645B6CCD
:101D400003F00103019311461A20019B00F036FCB9
:101D50001A2003B05DF804EB00F062BC03B05DF83C
:101D600004FB00BF0000014007B50F4B02689A4218
:101D700016D1002203F570430192596C41F4802181
:101D800059645B6C03F48023019311461A20019B74
:101D900000F014FC1A2003B05DF804EB00F040BC26
:101DA00003B05DF804FB00BF0048014010B50446D5
:101DB00086B01422002101A82DF09BF822680E4B5A
:101DC0009A4216D1002300930C4B0D481A6B42F037
:101DD00001021A631B6B03F001030093009B4FF495
:101DE00080720223CDE9012301A90123059300F0AC
:101DF00025FE06B010BD00BF0000014000380240C3
:101E00000000024010B5044688B01422002103A847
:101E10002DF06FF82268174B9A4228D103F5FA3358
:101E2000002401941A6C144842F400321A641A6CAB
:101E300002F400320192019A02941A6B42F00102FC
:101E40001A631B6B03F0010302930C22029B022313
:101E5000CDE9032303A90723079300F0EFFD262014
:101E60002246214600F0AAFB262000F0D9FB08B04C
:101E700010BD00BF0044004000000240FEE7FEE746
:101E8000FEE7FEE7FEE770477047704700F05EBB75
:101E9000014800F015BD00BFF44E0020014800F0DD
:101EA0000FBD00BF944E002008B5044802F016FB99
:101EB000BDE80840024802F011BB00BF4C4E0020B4
:101EC000044E002008B54FF4806000F089FEBDE8A4
:101ED00008404FF4005000F083BE7047014802F004
:101EE00067BF00BFBC4D0020014800F0E9BC00BF47
:101EF0005C4D00200268034B9A4201D112F0BABD3A
:101F0000704700BF00480140B0F5806F02BF024B30
:101F100001221A60704700BF48530020012070471B
:101F200008B52DF057F8162303604FF0FF3008BDB9
:101F300008B52DF04FF816230360FEE770B50D4687
:101F400014460E46731B9C4201DC204670BDAFF365
:101F5000008006F8010BF5E770B50D4614460E46F5
:101F6000731B9C4201DC204670BD16F8010BAFF3D9
:101F70000080F5E74FF0FF3070474FF400534B609F
:101F80000020704701207047002070470B4A1168FD
:101F900010B5034609B90A491160106809490A4C8D
:101FA0000344091B8B4206D92DF014F80C2303605F
:101FB0004FF0FF3010BD1360FCE700BF6050002001
:101FC000A82F01200080012000040000034AD2F85D
:101FD000883043F47003C2F88830704700ED00E0A9
:101FE00002480022082100F0F5BD00BF00080240B1
:101FF00002480122082100F0EDBD00BF00080240A8
:10200000B0F5000F07B514D203238DF80430030C8C
:1020100040BA8DF80530ADF80600FFF7E1FF042265
:10202000074864230DEB020101F0B0FC28B1FFF773
:10203000DFFF002003B05DF804FB0120FAE700BFDA
:10204000544F002013B506238DF80730FFF7C8FF63
:10205000642301220DF10701054801F097FC0446B5
:10206000FFF7C6FFB4FA84F0400902B010BD00BF0C
:10207000544F002073B505238DF806300123044624
:102080008DF8073000F06EFA134E0546FFF7A8FFF3
:102090001148642301220DF1060101F077FC20B103
:1020A000FFF7A6FF002002B070BD642301220DF1EE
:1020B0000701304601F016FE0028F1D1FFF798FF26
:1020C0009DF80730DB0705D500F04CFA431BA3420F
:1020D000DCD3E7E70120E6E7544F002037B59F2324
:1020E000174A184C184D8DF80730002313702B70C9
:1020F00023706370A370FFF77BFFFFF771FF134836
:10210000642301220DF1070101F040FC90B90F4852
:1021100064230322214601F0E5FD58B92378EF2B13
:1021200007D16378402B04D1A078A0F1170358425F
:1021300058412870FFF75CFF287803B030BD00BF1E
:10214000685000206450002067500020544F002049
:10215000014B1878704700BF6750002030B1044B26
:102160001A7802705A7842709B788370704700BF6B
:102170006450002038B500F0F5F9084D04462B787E
:102180005BB100F0EFF9001B6428F8D9044801F0B6
:10219000ABFFFFF72DFF00232B7038BD68500020E8
:1021A000544F0020B0F1104F70B504460E4615464E
:1021B00028BF00F1E04409B9002070BD013A4FF694
:1021C000FE739A42F8D8B4F5000FF5D2C4F50003B7
:1021D000AB42F1D3FFF7CEFF2046FFF711FF0028F7
:1021E000EAD06423AAB23146044801F07BFD0446DC
:1021F000FFF7FEFEB4FA84F04009DEE7544F0020FA
:1022000070B51E4B1B78CAB013B900204AB070BD20
:102210001B48182204A9FFF7C5FF0028F5D069461E
:1022200004A8FEF783FD0028EFD015496846FEF7A5
:1022300097FD0028E9D04FF0FF35002613E0A41BDE
:10224000B4F5807F28BF4FF4807422460AA9304637
:10225000FFF7A8FF0028D8D0284622460AA9FEF793
:102260004BFD26440546029CB442E8D82846FEF7BA
:102270005BFD039B1B1A58425841C7E7675000207B
:1022800000F07F00B0F1104FF8B504460E46154639
:1022900028BF00F1E044F9B1013A4FF6FE739A42CB
:1022A0001AD8B4F5000F17D2C4F50003AB4213D30C
:1022B000FFF760FF2046FFF7A3FE044660B1084F1A
:1022C00008480123AAB231463B7001F099FE20B1C3
:1022D00000233B70FFF78CFE00242046F8BD00BFB2
:1022E00068500020544F002008B5FFF781FE024BD4
:1022F00000221A7008BD00BF68500020174B1B78E1
:10230000B0F1104F13B5044628BF00F1E04413B9F3
:10231000002002B010BDB4F5000FF9D2FFF792FE15
:102320000028F5D020238DF80430230C64BA8DF8F2
:102330000530ADF80640FFF753FE04220848642339
:102340000DEB020101F022FB0446FFF751FE002CC9
:10235000DED14EF66020FFF78DFEDAE767500020F1
:10236000544F0020244B1B78B0F1104F73B5044636
:102370000E46154628BF00F1E04453B349B3531E3F
:10238000FF2B26D8B4F5000F23D2C4F500039342E7
:102390001FD34FF4807229462046FEF727FBA84240
:1023A00017D1FFF74FFEA0B102238DF80430230CA4
:1023B00064BA8DF80530ADF80640FFF711FE04222F
:1023C0000E4864230DEB020101F0E0FA20B1FFF7A3
:1023D0000FFE002002B070BD08486423AAB2314647
:1023E00001F0D4FA0446FFF703FE002CF1D164207B
:1023F000FFF740FEEEE700BF67500020544F00207B
:102400002DE9F843154B1B78B0F1104F0446884670
:10241000164628BF00F1E044F3B1E9B1E2B1B4F5EA
:10242000000F19D2C4F50003934215D3002504EB25
:1024300005094FF48072711B4846FEF7D7FA08EB86
:102440000501074602464846FFF78CFF20B13D4490
:10245000AE42ECD8BDE8F8830020FBE767500020CF
:102460000268034B9A4201D1FFF73EBF704700BF9D
:10247000003C0040FFF7F4BFFFF7F2BFDFF834D0B5
:10248000FFF7A4FD0C480D490D4A002302E0D45883
:10249000C4500433C4188C42F9D30A4A0A4C0023AE
:1024A00001E013600432A242FBD32CF099FDFFF748
:1024B00009F970470080012000000020F80000208A
:1024C0008C650408F8000020A82F0120FEE700001A
:1024D00038B50E4B1A784FF47A73B3FBF2F30C4A0B
:1024E00005461068B0FBF3F000F0A8F8044658B9B0
:1024F0000F2D09D8024629464FF0FF3000F05EF854
:10250000044B20461D6038BD0120FCE71800002068
:10251000140000201C00002008B50B4B1A6842F480
:1025200000721A601A6842F480621A601A6842F4F3
:1025300080721A60032000F02FF80020FFF7C8FF18
:10254000FFF7B2FA002008BD003C0240034A044BEA
:1025500011681B780B441360704700BF6C5000205B
:1025600018000020014B1868704700BF6C50002015
:1025700038B50446FFF7F6FF631C1CBF054B1B78FC
:10258000054618BFE418FFF7EDFF431BA342FAD33B
:1025900038BD00BF180000200749CA6822F4E06275
:1025A0000302120403F4E063120C134343F0BF630D
:1025B00043F40033CB60704700ED00E0164B30B5BC
:1025C000DC68C4F30224C4F10703251D042B28BFD3
:1025D0000423062D4FF0FF358CBF033C002405FA81
:1025E00003F321EA0303A54022EA0502A3400028E1
:1025F00043EA0203ACBF00F16040084A4FEA03130C
:10260000B8BF00F00F00DBB2AABF00F56140135461
:1026100080F8003330BD00BF00ED00E014ED00E0B5
:10262000002807DB044A4109012300F01F00834012
:1026300042F82130704700BF00E100E00138B0F1FE
:10264000807F0BD24FF0E023054A5861F02182F8D9
:1026500023100020072298611A61704701207047FB
:1026600000ED00E010B5044650B1437903F0FF02DD
:1026700013B90271FFF734FA01236371002010BD12
:102680000120FCE7036810B5084C0246D9B21039A6
:102690001820B1FBF0F0205CD06523F47F7020F0AF
:1026A00003005F2988BF0430906510BD8C1F0308AC
:1026B00070B50446FFF756FF0546002C60D0022394
:1026C00084F835302268002384F83430136823F00E
:1026D0000103136022681368D8072ED413683248A8
:1026E000A1691840D4E901352B43E5682B432569DE
:1026F0002B4365692B43E5690B432B43256A2B4329
:102700000343606A042802BFD4E90B5635432B43C8
:1027100013605369042823F0070343EA000335D10B
:10272000A06AE56A03438DB391B9012820D030F047
:1027300002012BD1E90129D51DE0FFF713FF401B52
:102740000528C7D920230320636584F8350070BDB0
:10275000B1F5005F16D1032818D801A151F820F077
:102760007727000835270008772700087127000819
:10277000B5F1C07F0AD140236365012384F8353069
:102780000120E4E70228F6D90328D3D0536120467C
:10279000FFF778FFE26D3F23934083600020012321
:1027A000606584F83530D2E73F8010F070B590F85E
:1027B0003440866D012C30D0012480F8344090F8EC
:1027C0003540012C4FF0000425D1022580F835500A
:1027D00044650468256825F4802525606360836866
:1027E000402B0EBFA260A160E260C26D08BFE16035
:1027F0003F239340B360236843F016032360036CC8
:102800001BB1236843F008032360236843F00103EE
:102810002360002070BD80F834400220FAE770B5D4
:102820000446866DFFF79EFE94F83530022B054670
:1028300006D0802363650120002384F8343070BD06
:1028400023681A6822F016021A605A6922F0800280
:102850005A61226C0AB9A26C1AB11A6822F00802F5
:102860001A601A6822F001021A602368186810F0D2
:10287000010007D1E26D3F239340B360012384F848
:102880003530D9E7FFF76EFE401B0528EDD9202330
:102890000320636584F83500CEE790F83530022BCD
:1028A00003D080234365012070470268052380F828
:1028B0003530136823F001031360002070470000D7
:1028C000F7B5002301935C4B856D1F68C36D2E68BF
:1028D00008229A40324204460CD00168086840073A
:1028E00008D5086820F004000860AA60626D42F014
:1028F0000102626501229A40324208D0216849698A
:10290000090641BFAA60626D42F0020262650422BC
:102910009A40324208D021680968880741BFAA60FE
:10292000626D42F00402626510229A40324210D079
:102930002368196809070CD5AA601A68500337D5AF
:102940001B68190301D4236C00E0A36C0BB1204673
:102950009847E16D20228A4032423AD023681868B5
:10296000C60636D5AA6094F83520052A1A6827D1FC
:1029700022F016021A605A6922F080025A61226C13
:102980000AB9A26C1AB11A6822F008021A603F2331
:102990008B40AB60012384F83530002384F8343059
:1029A000236D002B45D0204603B0BDE8F04018470A
:1029B0001A68D2055EBF1A6822F008021A60C2E7E0
:1029C000500327D51B68190331D4636C0BB1204623
:1029D0009847636D6BB3636DDA0719D522684FF4BE
:1029E0001653B7FBF3F7052384F83530136823F04B
:1029F00001031360019B0133BB42019302D81368AA
:102A0000DB07F7D4012384F83530002384F8343011
:102A1000E36CC6E71A6812F4807208D1196821F0D5
:102A200010011960012384F8353084F83420E36BF9
:102A3000CCE703B0F0BD00BF140000202DE9F74F34
:102A4000DFF880915D4A00230D6801249C4004EA70
:102A50000506AC4340F0A3804D68032705F003044E
:102A60004FEA430807FA08FC671E012F6FEA0C0CB7
:102A700034D8876807EA0C0ECF6807FA08F747EAE8
:102A80000E078760476827EA060EC5F300179F40C8
:102A900047EA0E074760C76807EA0C0E8F6807FA17
:102AA00008F747EA0E07022CC76019D14FEAD30A8C
:102AB00000EB8A0A03F0070BDAF820704FEA8B0B61
:102AC0004FF00F0E0EFA0BFE27EA0E0E0F6907FAF3
:102AD0000BF747EA0E07CAF8207001E0032CDAD1A1
:102AE000076804FA08F407EA0C073C4315F4403F72
:102AF000046054D000240194D9F8444044F4804444
:102B0000C9F84440D9F8444023F0030707F180474F
:102B100004F4804407F59C37019403F0030C019CF6
:102B2000D7F808E04FEA8C0C0F2404FA0CF42EEAD4
:102B3000040E234CA04239D004F58064A04237D063
:102B400004F58064A04235D004F58064A04233D0FF
:102B500004F58064A04214BF0724042404FA0CF492
:102B600044EA0E04BC609468F74315F4801F0CBF60
:102B70003C4034439460D46815F4001F0CBF3C40C3
:102B80003443D460546815F4003F0CBF3C403443D8
:102B900054601468ED0354BF3C4034431460013367
:102BA000102B7FF451AF03B0BDE8F08F0024D5E7C0
:102BB0000124D3E70224D1E70324CFE7003C0140FE
:102BC00000000240003802400369194214BF01208E
:102BD000002070470AB1816170470904FBE70000DB
:102BE000044A5169014208B502D05061FFF78CF9DF
:102BF00008BD00BF003C01402DE9F84606460F46DF
:102C000091461D464FEA114A3368BAF1010F0CBFD5
:102C10005C699C6927EA0404A4B2B4FA84F46409E8
:102C2000A14501D0002025E06A1CEED0FFF79AFCF8
:102C3000089BC01AA84201D8002DE5D13368BAF12B
:102C4000010F0CBF5B699B6927EA03039BB2B3FAD0
:102C500083F35B099945D7D100232022336386F89B
:102C60003D2086F83E30326C86F83C3042F020023F
:102C700032640120BDE8F8862DE9F04104460F4694
:102C8000164698462568686927EA000080B2C0B1F8
:102C90006B695A0517D52B6843F400732B606FF4EA
:102CA00080636B6120220023236384F83D2084F835
:102CB0003E30236C43F004032364002384F83C304B
:102CC0000120BDE8F081731CDDD0FFF74BFCA0EBC9
:102CD0000800B04201D8002ED4D123685A6927EAEF
:102CE000020292B2002ACDD000232022236384F86E
:102CF0003D2084F83E30236C1343DDE770B5044675
:102D00000D46164621684B6913F0400301D00020A0
:102D100011E04A69D2060FD56FF010024A612022F5
:102D2000236384F83D2084F83E30236C2364002321
:102D300084F83C30012070BDFFF714FC801BA842D2
:102D400001D8002DDED123685B6913F04003D9D18F
:102D50002022236384F83D2084F83E30236C134303
:102D6000E4E7000070B5044608B9012070BD90F892
:102D70003D3003F0FF021BB980F83C20FEF7C8FE8F
:102D8000242384F83D3023681A6822F001021A6077
:102D90001A6842F400421A601A6822F400421A606B
:102DA00000F078FC3F4B65689D4294BF3E4B3F4B23
:102DB00098428CBF00230123002BD6D12268394EC4
:102DC00051683B4BB0FBF3F321F03F011943B5428F
:102DD000516088BF4FF49676116A88BF734321F023
:102DE0003F0184BF4FF47A76B3FBF6F301330B4314
:102DF0001362D169431E2B4821F44F41854221F0D3
:102E0000FF0132D86D0040F6FC70B3FBF5F30133DF
:102E1000034242D0C3F30B031943D161D4E9073015
:102E20001168034321F0C0010B4313609168D4E99A
:102E3000030321F40341034321F0FF010B4393609B
:102E4000D4E90530D168034321F0FF010B43D3607F
:102E5000136843F00103136000202023206484F8EA
:102E60003D30206384F83E0080E7A06850B905EB50
:102E70004505B3FBF5F30133C3F30B037BB143F417
:102E80000043C9E719206843B3FBF0F30133C3F3F0
:102E90000B0323B143F44043BEE70423BCE7012303
:102EA000BAE700BFA08601007F841E00FF083D0036
:102EB00040420F002DE9F043044689B09846109F28
:102EC0000E469146FFF74EFB94F83D30202B054609
:102ED00004D00226304609B0BDE8F08300909A493C
:102EE000192301222046FFF787FE0028F1D194F82C
:102EF0003C30012BEDD02168012384F83C300B6875
:102F0000DB075EBF0B6843F001030B600B6823F423
:102F100000630B60222384F83D30102384F83E3098
:102F200000232364A4F82A80638D2385874BE36202
:102F3000E36A0A68C4F8249042F48062082B0A60AD
:102F400004D0012B02D013F5803F04D10B6843F469
:102F500080730B6002E0236B112BF7D03B4600958A
:102F600000224FF001112046FFF746FE236838B1DA
:102F70001B68DD0544BF4FF4007323640126A9E7F5
:102F80002269B2F5804F27D146F00106F6B21E61E4
:102F90006F492B463A462046FFF76EFE064600284C
:102FA000ECD1238D2168002B4BD103904B69039307
:102FB0008B690393039B0B6843F400730B60DFF88A
:102FC0009881238D002B64D1202284F83D2084F841
:102FD0003C3084F83E307DE74FEAE61808F00608FA
:102FE00048F0F0021A615B492B463A462046FFF74B
:102FF00043FE0028C2D123685549F6B21E613A4605
:103000002B462046FFF738FE02460028B6D123683B
:10301000079059690791996907910799196841F4CF
:1030200080711960204600953B464FF00111FFF773
:10303000E3FD226808B113689BE748F0F1031361D0
:10304000A6E7012B0AD10B6823F480630B60049080
:103050004B6904938B690493049BACE7022B0B68C8
:103060000DD123F480630B600B6843F400630B60A5
:1030700005904B6905938B690593059B9FE743F486
:1030800080630B6006904B6906938B690693069BE1
:1030900095E7032B62D8012B16D12A4639462046E4
:1030A000FFF72CFE00287FF469AF23681A69636A72
:1030B0001A70636A01336362238D013B2385638D3C
:1030C000013B9BB263857CE7022B00953B464FF0AA
:1030D0000002414620461AD1FFF78EFD00287FF4FA
:1030E0004DAF23681A6842F400721A601A69636A65
:1030F0001A70626A531C6362238D013B2385638DC2
:10310000013B9BB2638523681B695370D1E7FFF7CE
:1031100073FD024600287FF431AF2368196821F45B
:10312000806119601969636A1970636A01336362A7
:10313000238D013B2385638D013B9BB26385414613
:1031400000953B462046C7E7020010000000FFFF45
:103150000200010008000100040001002A4639466F
:103160002046FFF7CBFD00287FF408AF23681A69DB
:10317000636A1A70628D616A013A92B24B1C628571
:1031800022686362238D5069013B9BB2400723850F
:103190007FF517AF032B02BF136823F4806313601E
:1031A00013694B7085E700BF2DE9F341044640B336
:1031B0000368DE0710D423689D075BD423681907D2
:1031C00000F19D8023685A0700F1BD80A369002BA0
:1031D00040F0248100202CE08D4B9A6802F00C0214
:1031E000042A07D09A6802F00C02082A0BD15B6807
:1031F000590208D5864B1B689A03DCD56368002BFF
:10320000D9D1012015E06368814DB3F5803F13D11A
:103210002B6843F480332B60FFF7A4F97C4E0546FE
:1032200033689B03C7D4FFF79DF9401B6428F7D987
:10323000032002B0BDE8F081B3F5A02F04D12B68C4
:1032400043F480232B60E3E72A6822F480322A606B
:103250002A6822F480222A60002BDDD1FFF782F950
:1032600006462B689F03A6D5FFF77CF9801B6428D0
:10327000F7D9DDE7664B9A6812F00C0F07D09A6811
:1032800002F00C02082A11D15B685D020ED4604A7C
:103290001368990702D5E368012BB2D1136821693D
:1032A00023F0F80343EAC103136087E7E268594B50
:1032B000B2B101221A60FFF755F9554D06462B6849
:1032C0009B0707D52B68226923F0F80343EAC20362
:1032D0002B6073E7FFF746F9801B0228EFD9A7E7B9
:1032E0001A60FFF73FF94A4E054633689F077FF59E
:1032F00065AFFFF737F9401B0228F6D998E76269F6
:10330000444B82B10122C3F8802EFFF72BF9404EC7
:103310000546736F9B073FF555AFFFF723F9401B39
:103320000228F6D984E7C3F8802EFFF71BF9384E40
:103330000546736F9F077FF545AFFFF713F9401BF5
:103340000228F6D974E7324B1A6C12F0805228D159
:1033500001921A6C42F080521A641B6C03F0805385
:103360000193019B01272C4D2B68D8051BD5A36821
:10337000274D012B27D12B6F43F001032B67FFF75C
:10338000F1F8234E054641F28838336F9A0739D554
:10339000002F3FF41BAF1E4A136C23F080531364BD
:1033A00014E70027DFE72B6843F480732B60FFF7F7
:1033B000D9F806462B68D905D9D4FFF7D3F8801B76
:1033C0000228F7D934E7052B04D12B6F43F004030F
:1033D0002B67D0E72A6F22F001022A672A6F22F0BA
:1033E00004022A67002BCAD1FFF7BCF841F28838E3
:1033F00006462B6F9B07CBD5FFF7B4F8801B4045E3
:10340000F7D915E7FFF7AEF8401B4045BDD90FE7E8
:10341000003802400000474200700040374DAA6863
:1034200002F00C02082A3ED0022B354B4FF000026E
:103430001A662BD1FFF796F806462B6899011FD420
:10344000D4E907321343626A43EA8213E26A43EA29
:103450000263A26A5208013A43EA02436B60284BB6
:10346000264D01221A66FFF77DF804462B689A0163
:103470003FF5B0AEFFF776F8001B0228F6D9D7E685
:10348000FFF770F8801B0228D7D9D1E6FFF76AF85A
:1034900004462B689B017FF59DAEFFF763F8001B88
:1034A0000228F6D9C4E6012B3FF4ABAE6B68E269A3
:1034B00003F4800191427FF4A4AE216A03F03F023D
:1034C0008A427FF49EAE616A47F6C0721A40B2EB40
:1034D000811F7FF496AEA26A520803F44031013A8C
:1034E000B1EB024F7FF48DAEE26A03F07063B3EB91
:1034F000026F14BF012000209BE600BF003802408D
:1035000000004742134908B58B6803F00C03042BF5
:103510001CD0082B1CD14A684B68496813F48003FF
:1035200014BF0D480D48C1F3881118BF002302F0E5
:103530003F02A1FB0001FCF7F3FE064B5B68C3F3FF
:10354000014301335B00B0FBF3F008BD0248FCE728
:103550000248FAE70038024000127A000024F40022
:103560002DE9F0410D46044610B90120BDE8F08177
:10357000434B1A6802F007028A4228D321688F075A
:103580002DD4C80740D43E4B1A6802F00702AA4265
:1035900065D8226851076BD4130707D5394A2169CA
:1035A000936823F4604343EAC1039360FFF7AAFFE3
:1035B000344B354A9B68C3F30313D35CD840334B79
:1035C0001860334B1868FEF783FF0020CEE7CAB2BD
:1035D0001A701B6803F007038B42C6D1CEE7294B54
:1035E00011F0040F1EBF9A6842F4E0529A600E0771
:1035F00042BF9A6842F460429A609A68A06822F0DA
:10360000F00202439A60BCE762681E4B012A1CD19B
:103610001B6813F4003FA8D01A4EB36823F00303CD
:103620001343B360FEF79EFF41F288380746B36844
:10363000626803F00C03B3EB820FA4D0FEF792FF95
:10364000C01B4045F3D9032090E7911E01291B6858
:1036500002D813F0007FDEE713F0020FDBE7EAB2D7
:103660001A701B6803F00703AB427FF47EAF90E74C
:103670000449E0688B6823F4E05303438B608BE7D5
:10368000003C0240003802407C1F03081400002068
:103690001C000020044B054A9B68C3F38223D35CC3
:1036A000034A1068D840704700380240741F03086E
:1036B00014000020044B054A9B68C3F34233D35CDB
:1036C000034A1068D840704700380240741F03084E
:1036D0001400002082B000230093134B45F6C05223
:1036E0001B68B3FBF2F36422534301930368019A0E
:1036F0009AB9426D42F0400242651A6822F04002D7
:103700001A605A6822F0E0025A60DB680093009B5E
:10371000072380F8513002B07047019A013A0192B4
:103720009A689207E3D5E8E71400002003685A6816
:1037300022F080025A601A6822F040021A600723C1
:1037400080F85130704700002DE9F3471F46894645
:1037500090460446FEF706FF0A9D3D442D1AFEF7EB
:1037600001FF264B1E68C6F3CB366E438246019698
:103770002268936839EA03030CBF01230023434501
:1037800001D100202EE07B1CF3D0FEF7EBFEA0EB76
:103790000A00A84229D323685A6822F0E0025A603E
:1037A0006268B2F5827F0AD1A268B2F5004F02D0FA
:1037B000B2F5806F03D11A6822F040021A60A26A43
:1037C000B2F5005F07D11A6822F400521A601A6835
:1037D00042F400521A60012384F85130002384F827
:1037E0005030032002B0BDE8F087019B1BB1019B64
:1037F000013B0193BCE71D46BAE700BF140000205F
:10380000F0B585B00B4600920E4617460221012204
:103810000446FFF799FF054628B1636D43F0200386
:103820006365032515E0124B1868124BB0FBF3F0EB
:103830004FF47A73584363680390B3F5827F0BD1DA
:10384000009733462A4680212046FFF77DFF002857
:10385000E3D1284605B0F0BD039B002BF9D0039BB4
:10386000013B039323689B681B06F5D4F1E700BF77
:103870001400002000366E0137B50B464168B1F5E3
:10388000827F044608D0009201210022FFF75CFFEE
:10389000D0B9002003B030BD8168B1F5004F02D02F
:1038A000B1F5806F07D125682868B1F5806F20F0E9
:1038B0004000286004D00092802100222046E5E7E5
:1038C000009201210022F9E7636D43F02003636554
:1038D0000320DFE710B50446002855D0436A002BCB
:1038E0004ED14268B2F5827F00D0C3610023A3624B
:1038F00094F8513003F0FF0223B984F85020204699
:10390000FEF73EF92168A068A269022384F85130CD
:103910000B6823F040030B60636800F4044003F479
:1039200082730343E06800F400600343206900F001
:1039300002000343606900F00100034302F40070D9
:103940000343E06900F038000343206A00F0800080
:103950000343A06A00F4005003430B60636A120C37
:1039600003F0100302F004021A434A60CB6923F407
:103970000063CB6100200123606584F8513010BDE5
:103980000023C0E90433B1E70120F8E72DE9F7434C
:1039900004461F460D469046FEF7E4FD94F851306C
:1039A000012B8146D8B240F09F80002D74D0B8F131
:1039B000000F71D094F85030012B00F09580032354
:1039C00084F8513000236365C4E91033A4F83680CD
:1039D000A363A387E387A368266884F85000B3F540
:1039E000004F2563A4F8348007D1336823F04003E7
:1039F0003360336843F4804333603368E2685B06C6
:103A00005EBF336843F040033360B2F5006F636814
:103A100045D113B1B8F1010F07D135F8023BF3607E
:103A20002563E38E013B9BB2E386E38E9BB2D3B961
:103A30004A4639462046FFF7E3FE002851D1A368E5
:103A400033B901932368DA6801929B680193019B63
:103A5000012384F85130606D0023C01A84F850307F
:103A600018BF012018E022689368980705D5236BDA
:103A700033F8021BD1602363D3E7FEF773FDA0EB9D
:103A80000900B842D1D3791CCFD0012384F851303A
:103A9000002384F85030032003B0BDE8F08313B155
:103AA000B8F1010F08D12B783373236B01332363F3
:103AB000E38E013B9BB2E386E38E9BB2002BB7D033
:103AC00023689A68920703D5226B12781A73ECE781
:103AD000FEF748FDA0EB0900B842EDD37B1CEBD00C
:103AE000D3E720236365AAE70220D5E72DE9F74352
:103AF00004460D4691461E46DDF82880FEF732FD4D
:103B000094F851306268012B0746D9B20AD0B2F559
:103B1000827F40F0E580A368002B40F0E18004291B
:103B200040F0DE80002D4BD0B9F1000F48D0002EC0
:103B300046D094F85030012B00F0D280012384F855
:103B4000503094F85130C4F83890042B1CBF052332
:103B500084F8513000236365C4E910332368E68795
:103B6000E6861968A687490658BF1968256358BFB5
:103B700041F04001A68658BF1960E168B1F5006FB9
:103B800055D10AB1012E07D135F8022BDA60E38E48
:103B90002563013B9BB2E3860125E38E9BB28BB983
:103BA000E38F9BB273B93A4641462046FFF728FEA1
:103BB000002800F0818020236365002384F85030C2
:103BC000012031E021688B689A070DD5E38E9BB206
:103BD00053B145B1236B33F8022BCA602363E38EE4
:103BE000013B9BB2E38600258A6812F001020CD0EB
:103BF000E38F9BB24BB1A36BC96823F8021BA3638D
:103C0000E38F013B9BB2E3871546FEF7ABFCC01B7D
:103C10004045C2D3B8F1FF3FBFD0012384F85130F3
:103C2000002384F85030032003B0BDE8F0830AB1CC
:103C3000012E08D12A781A73236B01332363E38E94
:103C4000013B9BB2E38601252DE0226893689B0728
:103C50000ED5E38E9BB25BB14DB1236B1B78137312
:103C6000236B01332363E38E013B9BB2E386002584
:103C70002268916811F001010DD0E38F9BB253B11E
:103C8000A36BD2681A70A36B0133A363E38F013B6C
:103C90009BB2E3870D46FEF765FCC01B404502D38F
:103CA000B8F1FF3FB9D1E38E9BB2002BCDD1E38FAA
:103CB0009BB2002BC9D176E7A36833B9019323687F
:103CC000DA6801929B680193019B012384F85130CB
:103CD000606D0023C01A84F8503018BF0120A3E79C
:103CE0000220A1E72DE9F7431E4690F85130012B41
:103CF000044689461746DDB204D00225284603B0A3
:103D0000BDE8F0830029F9D0002AF7D04368B3F565
:103D1000827F0BD183684BB9042380F8513013465E
:103D200000960A46FFF7E2FE0546E7E7FEF71AFCB3
:103D300094F85030012B8046DFD0A268C4F8389048
:103D40000123002584F85030B2F5004F4FF00403F2
:103D500084F85130C4E9105565652368E787A78763
:103D60002563A586E58607D11A6822F040021A600D
:103D70001A6822F480421A601A6855065EBF1A68F3
:103D800042F040021A60E368F3B1E38F9BB2FBB1EB
:103D900023689A68D2073CD5DA68A36B23F8022B14
:103DA000A363E38F013B9BB2E387EEE723689A6846
:103DB000D0071ED5A26B1B7B1370A36B0133A363CB
:103DC000E38F013B9BB2E387E38F9BB2002BEDD1E6
:103DD000424631462046FFF74FFD18BB012384F8C9
:103DE0005130656D0023ED1A84F8503018BF01255D
:103DF00084E7FEF7B7FBA0EB0800B042E4D3711CE8
:103E0000E2D0012384F85130002384F85030032598
:103E100074E7FEF7A7FBA0EB0800B042B5D3731C14
:103E2000B3D0EEE720236365D8E7000070B590F8C3
:103E30005130012B0446DDB250D1002936D0002A82
:103E400034D090F85030012B48D0032380F8513003
:103E500000234365C0E91033C28683638387C38729
:103E600083688286B3F5004F026880F85050016382
:103E700007D1136823F040031360136843F48043B1
:103E80001360A06C164B0364164BC363164BC364DC
:103E9000E38E002606659BB20C32FEF787FC38B134
:103EA000636D84F8506043F010036365284670BD6D
:103EB00023681A68520658BF1A684FF000055CBFA5
:103EC00042F040021A6084F850505A6842F02002D2
:103ED0005A605A6842F002025A60E7E70225E5E7B5
:103EE00013420008574200083542000870B50446E6
:103EF00090F8510066680128C5B207D0B6F5827FF8
:103F000071D1A06800286ED1042D6CD100293CD05D
:103F1000002A3AD0002B38D094F85000012862D003
:103F2000012084F8500094F85100A386042818BF9B
:103F300005204FF0000618BF84F851006665E3863F
:103F4000E387A38794F85130284D2163042B284B35
:103F5000E06C2849A26318BF1946274B18BF2B46AF
:103F6000C4E91066C0E90F31244B2168C0E913365B
:103F7000E38F0C319BB2FEF719FC054638B1636D37
:103F800084F8506043F010036365012070BD22681F
:103F9000A06C5368216B43F001035360E38EC0E9CA
:103FA0000F55C0E913559BB20C32FEF7FFFB30B141
:103FB000636D84F8505043F010036365E5E72368B0
:103FC0001A6852065EBF1A6842F040021A60002268
:103FD00084F850205A6842F020025A605A6842F031
:103FE00002025A60D2E70220D0E700BF2743000850
:103FF0002B4200081F420008C14200083542000859
:104000002DE9F041134690F85120012A04460E464E
:10401000D5B260D1002945D0002B43D087685FB965
:104020004268B2F5827F07D1042280F85120BDE8B2
:10403000F0410A46FFF75ABF94F85020012A4AD0AF
:10404000012284F85020042284F85120B7F5004F53
:104050004FF000026265C4E91022E3872168A6637D
:10406000A387A286E28607D10B6823F040030B608A
:104070000B6823F480430B60E06C184B0364184B0F
:10408000C363184BC364E38F002707659BB23246B6
:104090000C31FEF78BFB40B1636D84F8507043F038
:1040A000100363652846BDE8F08123681A6852064C
:1040B00058BF1A684FF000055CBF42F040021A601A
:1040C00084F850505A6842F020025A605A6842F010
:1040D00001025A60E6E70225E4E700BF1F4200083C
:1040E000C1420008354200081FB5464B45F6C05294
:1040F0001B68B3FBF2F3642253430193019B0093CB
:1041000003685A6822F020025A605A681206044670
:104110000AD53D4A4264009A002A5CD1626D42F0A1
:1041200040026265019A00925A6850060AD5374AE1
:104130002264009A002A56D1626D42F04002626504
:10414000019A00925B68990714D5A06C90B1002386
:104150000365FEF764FB08B14023636523685A6872
:1041600022F002025A60009A002A44D1636D43F0A3
:104170004003636523685B68DB0711D5E06C78B1A9
:1041800000230365FEF74BFB08B1402363652368FA
:104190001A6822F040021A605A6822F001025A603E
:1041A0000023E387E386626D402A226818BF6365B7
:1041B0000293D1680291916802910299039318BF0A
:1041C000184693680393039B08BF0120012384F8DA
:1041D000513004B010BD009A013A009294F8512079
:1041E000072A98D19EE7009A013A009294F851204C
:1041F000072A9ED1A4E7009A013A00929A68920792
:10420000B1D5B7E7140000202D370008D5360008D7
:10421000704708B5806BFFF7FBFF08BD704708B516
:10422000806BFFF7FBFF08BD704708B5806BFFF799
:10423000FBFF08BD806B026808B5536823F00303D9
:104240005360436D43F010034365012380F8513000
:10425000FEF712F908BD37B50546846BFEF782F903
:104260002B681B68DB05024626D42368596821F0B9
:1042700020015960596821F00201596020466421EB
:10428000FFF7BEFA18B1636D43F020036365A368BE
:1042900033B901932368DA6801929B680193019B0B
:1042A0000023E386012384F85130636D23B1204657
:1042B000FEF7E2F803B030BD2046FCF77DFBF9E7DE
:1042C00038B50546846BFEF74DF92B681B68DB0596
:1042D000024624D42368596821F020015960A1685E
:1042E000C9B96168B1F5827F15D1596821F0030120
:1042F000596020466421FFF7BFFA08B120236365A7
:104300000023E387012384F85130636D3BB12046DD
:10431000FEF7B2F838BD596821F00101E8E7204600
:10432000FEF79EF8F6E738B50546846BFEF71AF9F6
:104330002B681B68DB0502461ED421684B6823F0FE
:1043400020034B6020466421FFF75AFA18B1636DD1
:1043500043F0200363652268536823F0030353602E
:104360000023E386E387012384F85130636D1BB19A
:104370002046FEF781F838BD2046FEF77BF8FAE7C5
:1043800090F8510070470000036A026A22F00102AF
:1043900070B50262446882690D6822F073022A4394
:1043A0008D6823F002032B430A4DA8420BD1CD6840
:1043B00023F008032B43D1E9055624F44074354318
:1043C00023F004032C43446082614A684263036221
:1043D00070BD00BF00000140036A026A22F48072CF
:1043E00070B502624468C2690D6822F073022A4304
:1043F0008D6823F4007343EA05230B4DA8420DD1C9
:10440000CD6823F4006343EA0523D1E9055624F47B
:104410004054354323F4806344EA05144460C26188
:104420004A68C263036270BD00000140036A026A09
:1044300022F4805230B502624468C2690D6822F4E9
:10444000E64242EA05228D6823F4005343EA05332D
:10445000064DA84202BF4D6924F4804444EA851405
:104460004460C2614A680264036230BD00000140DA
:1044700090F83D30012B28D1022380F83D300368AD
:10448000DA6842F00102DA60114A934212D0B3F1C5
:10449000804F0FD0A2F57C4293420BD002F5806290
:1044A000934207D002F58062934203D002F59A321C
:1044B000934204D19A6802F00702062A03D01A68D0
:1044C00042F001021A60002070470120704700BFCF
:1044D000000001407047704770477047036870B52F
:1044E000DD681E69B10704460DD5AA070BD56FF02C
:1044F00002021A61012202779B699B0769D0FFF7CC
:10450000EAFF00232377710710D56A070ED52368C9
:104510006FF004021A61022222779B6913F4407F34
:1045200020465CD0FFF7D7FF0023237733070FD552
:1045300028070DD523686FF008021A61042222773C
:10454000DB699907204650D0FFF7C5FF002323778A
:10455000F20610D5EB060ED523686FF010021A6133
:1045600008222277DB6913F4407F204643D0FFF70F
:10457000B2FF00232377F00708D5E90706D52368A3
:104580006FF001021A612046FDF7B4FC320608D52F
:104590002B0606D523686FF080021A61204600F0D2
:1045A00010FA700608D5690606D523686FF0400238
:1045B0001A612046FFF791FFB20622D5AB0620D53F
:1045C00023686FF0200220461A61BDE8704000F0B9
:1045D000F7B9FFF77FFF2046FFF77EFF91E7FFF770
:1045E00079FF2046FFF778FF9EE7FFF773FF20462D
:1045F000FFF772FFAAE7FFF76DFF2046FFF76CFF9A
:10460000B7E770BD1D4A036890420ED0B0F1804FED
:104610000BD0A2F57C42904207D002F58062904216
:1046200003D002F58062904208D14A6823F07003FB
:104630001343CA6823F4407313430AE0104A9042BC
:10464000F7D002F580629042F3D002F5806290428A
:10465000EFD04A6923F0800313438A68C2620A6874
:104660008262064A904204BF0A690263026842F00D
:1046700004020260012242610360704700000140B1
:104680000040014010B5044630B390F83D3003F0CF
:10469000FF021BB980F83C20FDF766FB022320686F
:1046A00084F83D30211DFFF7ADFF012384F846302B
:1046B000002084F83E3084F83F3084F8403084F89D
:1046C000413084F8423084F8433084F8443084F830
:1046D000453084F83D3010BD0120FCE710B504469C
:1046E00030B390F83D3003F0FF021BB980F83C2056
:1046F000FDF718FB0223206884F83D30211DFFF7E9
:1047000081FF012384F84630002084F83E3084F88D
:104710003F3084F8403084F8413084F8423084F8E7
:10472000433084F8443084F8453084F83D3010BD7F
:104730000120FCE7036A026A22F0100270B50262EF
:10474000446882690D6822F4E64242EA05228D68D7
:1047500023F0200343EA05130B4DA8420DD1CD6889
:1047600023F0800343EA0513D1E9055624F440649D
:10477000354323F0400344EA8504446082614A687B
:104780008263036270BD00BF0000014038B590F83D
:104790003C30012B04464FD00120082A84F83C000D
:1047A0003AD006D8BAB1042A26D0002384F83C3087
:1047B00038BD0C2AF9D12068FFF738FEC3690A69B1
:1047C00043F40063C361C36923F48063C361C369B5
:1047D00043EA02232EE02068FFF7D6FD83690A69C9
:1047E00043F008038361836923F0040383618369D1
:1047F000134383610020D8E72068FFF79BFF83699C
:104800000A6943F400638361836923F480638361ED
:10481000836943EA0223ECE72068FFF7DDFDC36903
:104820000A6943F00803C361C36923F00403C36149
:10483000C3691343C361DDE70220B9E7036A10B51A
:1048400001F01F0101248C4023EA04030362036A80
:104850008A401A43026210BD08B529B990F83E306B
:10486000012B1DD001202EE0042907D190F83F3004
:10487000012BF7D1022380F83F3014E0082907D13B
:1048800090F84030012BEDD1022380F840300AE04F
:1048900090F84130012BE5D1022380F8413002E04D
:1048A000022380F83E3000680122FFF7C7FF134B58
:1048B000984209D0B0F1804F0BD1836803F0070311
:1048C000062B15D1002008BD436C43F4004343641C
:1048D000F3E70B4B9842F0D003F580639842ECD09D
:1048E00003F580639842E8D003F59A339842E4D008
:1048F000036843F001030360E4E700BF00000140E8
:1049000000040040FFF7A8BF30B590F83C30012B01
:1049100002464FF002002AD0136882F83D005C681E
:104920000D68986824F070042C435C60104CA3421E
:1049300012D0B3F1804F0FD0A4F57C44A3420BD02A
:1049400004F58064A34207D004F58064A34203D039
:1049500004F59A34A34204D1496820F08000014351
:1049600099600123002082F83D3082F83C0030BD80
:104970000000014090F83C30012B02461ED0CB686D
:10498000886823F440730343486823F48063034337
:10499000086823F400630343086923F48053034346
:1049A0004869C96923F40053034323F480430B434C
:1049B000116800204B6482F83C0070470220704769
:1049C00070477047026802F10C0353E8003F23F47C
:1049D00090730C3242E8003102680029F2D102F1F2
:1049E000140353E8003F23F0010302F1140C4CE8D8
:1049F00000310029F3D1036B012B0BD102F10C0321
:104A000053E8003F23F0100302F10C0C4CE8003196
:104A10000029F3D1202380F842300023036370473C
:104A20000268C16838B5136923F440530B4313611E
:104A3000054683680069D168034368690343E869F0
:104A400021F4164121F00C0103430B43D360536959
:104A5000A96923F440730B4353611F4B9A4203D05F
:104A600003F580639A4224D1FEF724FEEA691921F6
:104A7000B2F5004FD5E90043A0FB01011CD1DA18C3
:104A80004FF0000545EB0503FBF74AFC6422B0FB41
:104A9000F2F102FB1103DB003233B3FBF2F303F05C
:104AA00007025B0002EB011203F4F8731344A360E6
:104AB00038BDFEF7EFFDD9E79A009B0FFBF730FCFE
:104AC0006422B0FBF2F102FB11031B013233B3FB92
:104AD000F2F303EB0113EAE700100140F7B50546D6
:104AE0000C4617461E462A68136834EA030301D1B0
:104AF000002021E0701CF7D0FDF734FDC01B86427A
:104B00001CD3DEB12B68DA685107ECD5802CEAD0D3
:104B1000402CE8D01A681207E5D5002401941A68E1
:104B200001925B6801932846019BFFF74BFF082326
:104B30006B6485F84040012003B0F0BD0320FBE723
:104B400010B5044648B390F8413003F0FF021BB99A
:104B500080F84020FDF756F92268242384F841307C
:104B6000D36823F40053D3602046FFF759FF23682E
:104B70001A6922F490421A615A6922F02A025A6193
:104B8000DA6842F40052DA6000202023606484F87E
:104B9000413084F84230606310BD0120FCE72DE90C
:104BA000F843984690F84130202B04460E461746AD
:104BB0003FD100293FD0002A3DD021230025456464
:104BC00080F84130FDF7CEFCA368A784B3F5805F81
:104BD0008146E78403D123690BB935461E46E38C31
:104BE0009BB253B943464A4640212046FFF776FF21
:104BF000202350B984F841300AE043464A468021D8
:104C00002046FFF76BFF28B1202384F841300320B2
:104C1000BDE8F88322684EB935F8023BC3F30803B8
:104C20005360E18C013989B2E184D8E716F8013B81
:104C3000F6E70220ECE70120EAE72DE9F8431F46FA
:104C400090F84230202B04460E46914648D1002968
:104C500048D0002A46D022230025456480F84230FF
:104C60000563FDF77FFCA368A4F82C90B3F5805F83
:104C70008046A4F82E9003D123690BB935461E4611
:104C8000E08D80B218B9202384F842300AE03B4618
:104C9000424620212046FFF721FF28B1202384F837
:104CA00042300320BDE8F88323684EB95B68C3F344
:104CB000080325F8023BE38D013B9BB2E385DFE768
:104CC000A268B2F5805F02D032B9226922B9596870
:104CD000C9B206F8011BEEE7596801F07F01F8E759
:104CE0000220DFE70120DDE7704708B5806B002375
:104CF000C385FCF706FC08BD704790F84230222BB4
:104D000007B542D181680268836AB1F5805F3FD1FF
:104D1000016900293FD15268C2F3080223F8022B2F
:104D20008362C38D013B9BB2C385002B2DD10268EA
:104D3000D16821F02001D160D16821F48071D16067
:104D4000516921F001015161202280F84220436322
:104D5000026B012A026828D1036302F10C0353E8B5
:104D6000003F23F0100302F10C0C4CE80031002945
:104D7000F3D11368DB0605D50191136801935368DD
:104D80000193019B818DFFF7B7FF03B05DF804FB32
:104D900039B9016929B95268D2B21A70836A0133EC
:104DA000BEE7526802F07F02F7E7FCF7A9FBECE7E9
:104DB00003681A6873B51607D9685D69044608D197
:104DC000960668D58D0666D502B0BDE87040FFF73F
:104DD00094BF05F0010001F4907505435BD0D60740
:104DE00005D5CD0542BF636C43F0010363645307EF
:104DF00004D518B1636C43F002036364960704D5CD
:104E000018B1636C43F004036364150707D501F020
:104E1000200303431EBF636C43F008036364636CA9
:104E2000002B32D0920604D58B0602D52046FFF720
:104E300064FF26687369626C03F0400302F00802A5
:104E400053EA0205204622D0FFF7BCFD73695E06D7
:104E500018D5226802F1140353E8003F23F0400301
:104E6000143242E800310029F3D1E06B50B1774BA6
:104E70000365FDF712FD40B1E06B036D02B0BDE8C4
:104E8000704018472046FCF73CFB02B070BDFCF7B1
:104E900038FB6564F9E7206B012840F09B80D5065C
:104EA00040F19880C80640F19580002201921A686E
:104EB00001925A680192019A5969A28D490656D504
:104EC000E06B0168496889B2002947D0914245D218
:104ED000C269E185B2F5807F36D003F10C0252E859
:104EE000002F22F4807203F10C0040E80021002919
:104EF000F3D103F1140252E8002F22F0010203F172
:104F0000140040E800210029F3D103F1140252E813
:104F1000002F22F0400203F1140040E80021002994
:104F2000F3D1202284F84220216303F10C0252E8DD
:104F3000002F22F0100203F10C0040E800210029AC
:104F4000F3D1E06BFDF76BFC02236363E38DA18D6E
:104F5000C91A89B22046FFF7CFFE96E7914294D155
:104F6000C369B3F5807F90D102236363F2E7E18DDB
:104F7000E08D80B289B2002887D0511A89B2002909
:104F800083D003F10C0252E8002F22F4907203F157
:104F90000C0545E800200028F3D103F1140252E883
:104FA000002F22F0010203F1140545E8002000283B
:104FB000F3D1202284F84220206303F10C0252E84E
:104FC000002F22F0100203F10C0545E80020002814
:104FD000F3D1C9E7160628D50D0626D594F8412049
:104FE000212A7FF452AFA168226AB1F5805F17D100
:104FF0002169A9B932F8021BC1F308015960226284
:10500000E28C013A92B2E284002A7FF43EAFDA6881
:1050100022F08002DA60DA6842F04002DA6034E7B7
:10502000511C216212785A60EAE750067FF52DAFD5
:105030004A067FF52AAFDA6822F04002DA602023C0
:1050400084F841302046FFF74FFE1EE7EB4C000886
:1050500008B50FF0BBFABDE808400FF03FBA0FF0FB
:10506000B7BA704708B50C2934D8DFE801F0070B50
:105070000F132B2B171B1F23272B2F0008F036FA9B
:10508000006808BD08F032FA4068FAE708F02EFA26
:105090008068F6E708F02AFAC068F2E708F026FA16
:1050A0004069EEE708F022FA8069EAE708F01EFAA4
:1050B000C069E6E708F01AFA006AE2E708F016FAB3
:1050C000406ADEE708F012FA0069DAE708F00EFA43
:1050D000806AD6E70020D4E710B50421044628F002
:1050E0006AFD204610BD13B5002451B10368019438
:1050F0008DF8034001AA9C680DF10303A04702B09C
:1051000010BD0846FBE7C0897047008A7047C08819
:10511000704780887047807A00F07F007047807AFF
:10512000C0097047002070479FED010A704700BF1B
:1051300000000000704710B50821044628F03BFD30
:10514000204610BD406A7047806A704770478A8861
:105150000B8810B5D20A4C88C1699BB251F8220065
:1051600043EA0443184410BD10B50446BAB1107B9D
:1051700068B1537BD27A1B0203F4E0631A43236ABB
:1051800003EB82031A888A4202D193F9020010BD10
:1051900005D8013880B204330028F3D1F7E70020A6
:1051A000F5E710B52C21044628F005FD204610BD7A
:1051B00030B58BB00446BDF860500895BDF85C5022
:1051C00007959DF8505006959DF84C5005959DF813
:1051D000485004959DF8445003959DF84050029521
:1051E0009DF83C500195BDF83850009518F0BCF87A
:1051F000064B2360159BE361169B2362199B636238
:105200001A9BA36220460BB030BD00BFC01F03082D
:105210007047000030B5174D2C6814F001048FB0B2
:10522000BFF35B8F22D1284628F0C7FCF0B13F23A3
:105230000993114B0893114B07930123CDE90543C3
:105240000223CDE9024313230D4900932D22162397
:10525000CDE90B440B480A9404940194FFF7A8FF8E
:10526000094829F027FC284628F0B3FC05480FB070
:1052700030BD00BF70500020E410040890150408F1
:1052800018F5030874500020115200087047000000
:1052900030B5174D2C6814F001048FB0BFF35B8F4D
:1052A00022D1284628F089FCF0B13F230993114B05
:1052B0000893114B07930123CDE905430223CDE960
:1052C000024317230D49009331221C23CDE90B44DF
:1052D0000B480A9404940194FFF76AFF094829F0E7
:1052E000E9FB284628F075FC05480FB030BD00BF2B
:1052F000A0500020981104089415040890F70308A2
:10530000A45000208D5200087047000030B5174DA2
:105310002C6814F001048FB0BFF35B8F22D12846B4
:1053200028F04BFCF0B13F230993114B0893114B2C
:1053300007930123CDE905330223CDE9024314236A
:105340000D49009317221823CDE90B440B480A940A
:1053500004940194FFF72CFF094829F0ABFB284681
:1053600028F037FC05480FB030BD00BFD0500020FA
:10537000741204089815040840FA0308D450002059
:10538000095300087047000030B5174D2C6814F021
:1053900001048FB0BFF35B8F22D1284628F00DFCAB
:1053A000F0B13F230993114B0893114B079301234D
:1053B000CDE905330223CDE902430C230D490093C7
:1053C0005F220F23CDE90B440B480A940494019407
:1053D000FFF7EEFE094829F06DFB284628F0F9FB9F
:1053E00005480FB030BD00BF00510020A4120408D2
:1053F0009C15040884FB0308045100208553000811
:105400007047000030B5174D2C6814F001048FB0C0
:10541000BFF35B8F22D1284628F0CFFBF0B13F23AA
:105420000993114B0893114B07930123CDE90533E1
:10543000022201930F23CDE902420D490093642219
:105440001223CDE90B440B480A940494FFF7B0FEF5
:10545000094829F02FFB284628F0BBFB05480FB070
:1054600030BD00BF3051002028130408A0150408E7
:10547000B8000408345100200154000870470000AF
:1054800030B5174D2C6814F001048FB0BFF35B8F5B
:1054900022D1284628F091FBF0B13F230993114B0C
:1054A0000893114B07930123CDE905330223CDE97E
:1054B000024310230D49009349221323CDE90B44E5
:1054C0000B480A9404940194FFF772FE094829F0EE
:1054D000F1FA284628F07DFB05480FB030BD00BF2B
:1054E0006051002004140408A415040830060408C0
:1054F000645100207D5400087047000030B5174DFE
:105500002C6814F001048FB0BFF35B8F22D12846C2
:1055100028F053FBF0B13F230993114B0893114B33
:1055200007930123CDE905330223CDE9024312237A
:105530000D49009339221623CDE90B440B480A94F8
:1055400004940194FFF734FE094829F0B3FA284681
:1055500028F03FFB05480FB030BD00BF9051002040
:10556000C4140408A8150408300A04089451002043
:10557000F95400087047000030B5164D2C6814F03F
:1055800001048FB0BFF35B8F21D1284628F015FBB3
:10559000E8B13F230993104B0893104B0793012365
:1055A000CDE905430223CDE9024314230C490093BE
:1055B0001622CDE90B440B480A9404940194FFF79A
:1055C000F7FD094829F076FA284628F002FB05483D
:1055D0000FB030BDC051002060150408AC150408A0
:1055E000500D0408C4510020755500087047000094
:1055F00030B5164D2C6814F001048FB0BFF35B8FEB
:1056000020D1284628F0D9FAE0B13F230993104B66
:105610000893104B104911480A94CDE90643022320
:10562000CDE90243202300930F22CDE90B44CDE9BD
:1056300004440194FFF7BCFD094829F03BFA2846D1
:1056400028F0C7FA05480FB030BD00BFF051002068
:1056500084150408B0150408840E0408F4510020D1
:10566000ED5500087047000030B5164D2C6814F059
:1056700001048FB0BFF35B8F20D1284628F09DFA3C
:10568000E0B13F230993104B0893104B1049114888
:105690000A94CDE906430223CDE902432223009375
:1056A0000D22CDE90B44CDE904440194FFF780FDC0
:1056B000094829F0FFF9284628F08BFA05480FB071
:1056C00030BD00BF2052002088150408B41504081E
:1056D000580F040824520020655600087047000047
:1056E00030B5164D2C6814F001048FB0BFF35B8FFA
:1056F00021D1284628F061FAE8B13F230993104BE5
:105700000893104B104911480A94CDE9064302232F
:10571000CDE902432D2300930F222E23CDE90B4424
:10572000CDE904440194FFF743FD094829F0C2F98B
:10573000284628F04EFA05480FB030BD50520020E0
:105740008C150408B81504081010040854520020E1
:10575000DD5600087047704700F59873086849687F
:1057600003C3704770477047416070477047704788
:10577000064BC0F84C310023C0F8503100F5A2733D
:10578000C0F84801C0F84031704700BF31580008E8
:10579000012303727047704710B4C2684168541007
:1057A000034601EB6200D20748BF0A599B685DF8C7
:1057B000044B48BFD35818470346406830B19A6835
:1057C0001AB9D86800F0010070470120704710B581
:1057D0000C21044628F0EFF9204610BD10B5102129
:1057E000044628F0E8F9204610BD10B54FF4AE711C
:1057F000044628F0E0F9204610BD10B516F066FA10
:105800000368BDE81040DB6B184710B50446D0F8BC
:10581000400158B10368DB68984738B1D4F84001BB
:1058200003689B6898470023C4F8403110BD00000E
:105830002DE9F14FD0E9556A0746B06803681B6A45
:105840009847B0F5F85F05D2444B454AA321454837
:1058500029F012F9706803681B6A98470F2803D86B
:10586000414B3F4AA421F2E7F06803681B6A98475E
:105870000B2803D83D4B3A4AA521E8E716F026FA53
:10588000DFF8F090043016F046FAD9F8000010B1B5
:105890000368DB689847D9F8000010B103681B68FB
:1058A0009847DFF8D480D8F8000010B103685B692E
:1058B0009847D7F83C0110B103685B689847D8F85F
:1058C000000010B103681B689847D7F83C0110B17D
:1058D00003689B689847F068036800215B6A9847F3
:1058E0004FF0000B224BC0F804B0044680F808B01B
:1058F0000360B068036859465B6A984705460CF038
:10590000A7FE7068036859465B6A984729460646B1
:105910000CF078FE331DC7F83C61C9F80040C8F8A8
:105920000050CAF800302B68C6F808A02846DB688B
:10593000EE639847336830461B68984721462846EF
:1059400018F089F9236820461B69984723685B692A
:10595000204601B0BDE8F04F184700BF0EFF020817
:105960009CFF02086E000308B200030855010308FB
:1059700094200308D8210120DC210120044B1B685E
:1059800093F85C200AB1186D00B99868704700BFA1
:1059900090210120F8B5174604460E4616F05CFA31
:1059A000124B1C60124B2360124B0025C4E9513589
:1059B000114BC4E953551868036829469B68C4E92C
:1059C0004F55C4E955769847284607F03FFDFFF745
:1059D000D5FF1EF000FBFFF7D1FF24F093FFFFF788
:1059E000CDFF24F09BFF2046F8BD00BFE021012041
:1059F000402003082820030890210120064BC0F80E
:105A00004C310023C0F8503100F5A273C0F84801B2
:105A1000C0F84031704700BF31580008002070477F
:105A200081807047C1807047018170474181704714
:105A30007047704770477047704710B4C488036858
:105A4000121B84885B6D091B12B25DF8044B09B20E
:105A500018474FF6FF7383814FF0FF3303621368DB
:105A6000C36110607047806A7047704790F82C30AF
:105A70004BB100F16C021268C2653BB100F17403D6
:105A80001B680366704700F16802F4E700F17003D9
:105A9000F6E790F82D3080F85A30704710B578212D
:105AA000044628F088F8204610BD90F8252012B151
:105AB00003685B691847704710B50446006B50B126
:105AC0000368DB68984730B1206B036821469B6808
:105AD000BDE81040184710BD90F825201AB190F885
