:020000040800F2
:10000000008001208D2D0008D9240008DB24000881
:10001000DD240008DF240008E124000800000000BF
:10002000000000000000000000000000E3240008C1
:10003000E524000800000000E7240008E924000887
:10004000DD2D0008DD2D0008DD2D0008DD2D000868
:10005000DD2D0008DD2D0008DD2D0008DD2D000858
:10006000DD2D0008DD2D0008DD2D0008ED24000841
:10007000DD2D0008DD2D0008DD2D0008DD2D000838
:10008000F9240008DD2D0008DD2D00080000000027
:10009000000000000000000000000000DD2D00084E
:1000A000DD2D0008DD2D000805250008DD2D0008E8
:1000B000DD2D0008DD2D0008DD2D0008DD2D0008F8
:1000C000DD2D0008DD2D0008DD2D0008DD2D0008E8
:1000D000DD2D0008DD2D0008392500080000000096
:1000E00021250008DD2D0008DD2D0008000000009E
:1000F000000000000000000000000000DD2D0008EE
:1001000000000000DD2D0008DD2D00083725000867
:1001100000000000000000000000000000000000DF
:10012000DD2D0008DD2D0008DD2D00084525000827
:10013000DD2D0008000000000000000000000000AD
:10014000000000000000000000000000DD2D00089D
:10015000DD2D0008DD2D0008DD2D0008DD2D000857
:10016000DD2D0008DD2D000800000000000000006B
:10017000000000000000000000000000000000007F
:1001800000000000DD2D000800000000000000005D
:04019000DD2D000859
:1001A00010B5054C237833B9044B13B10448AFF3B1
:1001B00000800123237010BDF80000200000000023
:1001C0004409030808B5034B1BB103490348AFF3C7
:1001D000008008BD00000000FC0000204409030866
:1001E00001F0FF01102A2BDB10F0070F08D010F8E8
:1001F000013B013A8B422DD010F0070F42B3F6D1EC
:10020000F0B441EA012141EA014122F007047FF004
:1002100000070023F0E80256083C85EA010586EA5B
:10022000010685FA47F5A3FA87F586FA47F6A5FA97
:1002300087F68EB9EED1F0BC01F0FF0102F00702A3
:1002400032B110F8013B013A83EA010313B1F8D14E
:100250000020704701387047002D06BF354603382F
:10026000073815F0010F07D1013015F4807F02BF68
:10027000013015F4C03F0130F0BC0138704700BFB9
:100280007BB972B90029BEBF00204FF0004106E0E3
:1002900008BF00281CBF6FF000414FF0FF3000F096
:1002A000D3B9ADF1080C6DE904CE002909DB002BB0
:1002B0001ADB00F04DF8DDF804E0DDE9022304B0BC
:1002C0007047404261EB4101002B1BDB00F040F81E
:1002D000DDF804E0DDE9022304B0404261EB4101B6
:1002E000524263EB43037047524263EB430300F017
:1002F0002FF8DDF804E0DDE9022304B0404261EBB1
:1003000041017047524263EB430300F021F8DDF8EE
:1003100004E0DDE9022304B0524263EB430370477B
:1003200053B94AB9002908BF00281CBF4FF0FF315C
:100330004FF0FF3000F088B9ADF1080C6DE904CE44
:1003400000F006F8DDF804E0DDE9022304B07047B0
:100350002DE9F047089D8E4604468846002B4AD179
:100360008A42174662D9B2FA82F64EB1C6F120032C
:1003700001FA06F820FA03F3B74043EA0808B4404C
:100380004FEA174E1FFA87FCB8FBFEF1230C0EFB59
:10039000118843EA084301FB0CF29A4209D9FB1881
:1003A00001F1FF3080F0EA809A4240F2E7800239A2
:1003B0003B449A1AA3B2B2FBFEF00EFB102243EAB2
:1003C000024300FB0CFC9C4509D9FB1800F1FF32ED
:1003D00080F0D6809C4540F2D3803B44023840EA0E
:1003E0000140A3EB0C0300211DB1F3400022C5E93D
:1003F0000032BDE8F0878B4205D90DB1C5E9000197
:1004000000210846F5E7B3FA83F1002946D1734588
:1004100002D3824200F20581841A6EEB03020120AE
:100420009046002DE5D0C5E90048E2E7002A00F03B
:100430009080B2FA82F6002E40F0A4808A1A030C53
:100440004FEA174E80B2BCB20121B2FBFEFC0EFB9C
:100450001C2243EA024304FB0CF29A4207D9FB1820
:100460000CF1FF3802D29A4200F2E080C4469B1A97
:10047000B3FBFEF20EFB123340EA034302FB04F42B
:100480009C4207D9FB1802F1FF3002D29C4200F2D5
:10049000CA8002461B1B42EA0C40A5E7C1F12006B8
:1004A0008B4022FA06F71F430EFA01F420FA06F3F6
:1004B0002EFA06FE4FEA1749234300FA01F81FFA05
:1004C00087FCBEFBF9F01C0C09FB10EE44EA0E445D
:1004D00000FB0CFEA64502FA01F209D93C1900F115
:1004E000FF3A80F09C80A64540F2998002383C4457
:1004F000A4EB0E041FFA83FEB4FBF9F309FB1344CB
:100500004EEA044403FB0CFCA44508D93C1903F152
:10051000FF3E80F08280A4457FD9023B3C4443EA01
:100520000040A4EB0C04A0FB02EC64457346E146DA
:1005300062D35FD05DB1B8EB030264EB090404FA47
:1005400006F622FA01F31E43CC40C5E900640021FF
:100550004FE7B1FBF2FC010C41EA0E4180B240EAE8
:1005600001423B4638463C46B846BE462026B1FBD3
:10057000F7F1A2EB080241EA0C4166E7014618E7F1
:1005800010462CE7C6F120022EFA02F3B740B14024
:1005900020FA02F24FEA174E0A43B3FBFEF8BCB250
:1005A0000EFB1833110C41EA034108FB04F9B0407B
:1005B00089454FEA104380B23ED9791808F1FF3CD3
:1005C00001D289451FD8A1EB0901B1FBFEF909FB56
:1005D00004F80EFB191192B242EA0142424529D2B7
:1005E000BA1809F1FF31C4D24245C2D2A9F10201C1
:1005F0003A44BEE7F0459DD2BEEB02036CEB070C1C
:100600000138E14696E7A7EB09094944A8F1020C35
:10061000B1FBFEF909FB04F8DBE773467FE75046C0
:1006200066E70846FDE63B44023A33E7ACF1020CCC
:100630003B441CE749469CE7A1EB0901C446B1FBDA
:10064000FEF909FB04F8C4E7704700BF02F0F8B8F0
:1006500002F022BA70B504460D46164602F09AFA28
:1006600030B9324629462046BDE8704002F014BA3F
:1006700070BD0000054A4FF6FF731380044A1380D3
:10068000044A1380044A1380704700BF0A00002008
:1006900008000020060000200400002037B51546A1
:1006A0008DF80700002215480C464FF4007102F047
:1006B0001BFF134800224FF4806102F015FF114820
:1006C0004FF0FF3301220DF1070103F0E9FD6DB199
:1006D00064B10B4801224FF4806102F005FF094824
:1006E0004FF0FF33AAB2214603F0DAFD034801229E
:1006F0004FF4007102F0F8FE03B030BD000002407C
:10070000000402404C55002000221146FFF7C6BFEE
:100710002DE9F743DFF87890DFF878801C46B9F8C8
:100720000030834207460D46164603D1B8F8003024
:1007300093420FD07BBA0422ADF804300DEB0201D6
:1007400073BA2A20ADF80630FFF7A8FFA9F80070A9
:10075000A8F800600C4F0D4E3B88AB4202D13388A5
:10076000A3420DD06BBA0422ADF804300DEB0201A8
:1007700063BA2B20ADF80630FFF790FF3D80348040
:10078000012003B0BDE8F083060000200400002033
:100790000A0000200800002008B52920FFF7B4FF58
:1007A000BDE808400A2002F06BBB000010B5112024
:1007B00086B0FFF7A9FF782002F062FB662302A94A
:1007C00001223A208DF80830FFF768FFE82302A9DC
:1007D000012236208DF80830FFF760FF2120FFF757
:1007E00093FF002402A90122B0208DF80840FFF7F2
:1007F00055FF4FF48D5302A90222B120ADF8083005
:10080000FFF74CFF40F20223ADF8083002A93B236A
:100810000322B6208DF80A30FFF740FF41F215732E
:1008200002A90222C020ADF80830FFF737FF4123AC
:100830000DF107010122C1208DF80730FFF72EFFCF
:100840004FF49053ADF8083002A980230322C5204D
:100850008DF80A30FFF722FF0DF107010122E92090
:100860008DF80740FFF71AFF164B029302A90422E6
:10087000F720FFF713FF144A144B0F24CDE902238E
:10088000134B0493224641F6162302A9E020ADF84B
:1008900014308DF81640FFF701FF0E490E4B8DF80E
:1008A0001640CDE902130D4B0493224643F23573F3
:1008B00002A9E120ADF81430FFF7F0FEFFF7DAFEF1
:1008C00006B010BDA9512C8200030908160A3F7812
:1008D0004C090A08001619030F05324546040E0D8F
:1008E00073B52C238DF80730294B1C7804F0FF03D7
:1008F000002C4BD1274C20700133B3F5F07F617091
:10090000A27004F10304F6D10021FFF7B3FE0846FC
:1009100040F23F1340F2DF12FFF7FAFEB0B31E4879
:1009200000224FF4007102F0DFFD1C4800224FF45A
:10093000806102F0D9FD1A484FF0FF3301220DF11A
:10094000070103F0ADFCC8B900F1804001224FF46B
:10095000806100F5013002F0C7FD0E4D104E4FF4DE
:10096000A0744FF0FF334FF4B4622946304603F0D1
:1009700097FC18B9013CA4B2002CF2D10122064820
:100980004FF4007102F0B0FDFFF774FE02B070BDCD
:10099000B451002014010020000002400004024075
:1009A0004C55002010B50A4C00220221204602F0CE
:1009B0009BFD0A2002F064FA20460122022102F087
:1009C00093FD782002F05CFABDE81040FFF752BEBC
:1009D0000000024070470000014B1878704700BFCC
:1009E000B45100202DE9F341DFF81881BDF8204013
:1009F000054608461146012288F80020002D59D0EE
:100A0000002B57D0002C55D0B0F5F07F52D2B1F565
:100A1000A07F4FD2C0F5F07293424BDCC1F5A072BB
:100A2000944247DC04FB03F606EB4602B2F5964F10
:100A30004FEA46073ED8421E13449AB2824239D347
:100A40004B1E23449BB28B4234D3B2F5F07F31D29C
:100A5000B3F5A07F2ED2FFF75BFE58B3254AE81905
:100A6000A84202F103022DD1234800224FF4007165
:100A700002F03AFD214800224FF4806102F034FD7B
:100A80002C238DF807300DF107014FF0FF330122C1
:100A90001B4803F005FC194801224FF4806102F065
:100AA00023FDF2191349164892B203F049FE02B031
:100AB000BDE8F081002388F8003002B0BDE8F041C5
:100AC00014F0F6BC35F8023B190A21F0070141EA9F
:100AD000533102F8031CD908C3F3412421F0030168
:100AE000214302F8021CC3F3820141EAC30302F866
:100AF000013CB5E7B40600200000024000040240BB
:100B00004C550020B451002008B50268084B9A42A9
:100B10000CD1012207484FF4007102F0E5FC064BAE
:100B200000221A70BDE8084014F0C2BC08BD00BF26
:100B30000030014000000240B45100200346084646
:100B400051B142B1B3FBF2F102FB1133D21A904220
:100B500028BF104670471046704730B121B14B1E78
:100B60001844B0FBF1F070470846704700687047C2
:100B70000B0A017043700B0C090E8370C170704733
:100B80000E4B84B01B6800220092196800915968CE
:100B90000091009901921968019159680191019998
:100BA00002921968029159680291029903921A6897
:100BB00003925B680393039B04B070475C5300206F
:100BC0002DE9F7430024DFF884801E4FDFF8809082
:100BD00026462546322301220DF10701404604F046
:100BE000B6FC10B1FFF7CCFFF4E79DF807307A5D53
:100BF0009A4206D10135ADB2082D06D103B0BDE849
:100C0000F083A3F141014D424D4119F806209A426B
:100C100005D10136B6B2082E05D10120EEE7A3F1C9
:100C2000410256425641084A125D9A4205D10134AA
:100C3000A4B2082CCED10220E0E7413B5C425C41EB
:100C4000C8E700BF9C090308AE0903085C530020F5
:100C5000A509030837B5FFF793FF0A4D4FF4007459
:100C6000002301220DF10701284604F070FC18B1A1
:100C7000FFF786FF03B030BD013CA4B2002CEFD1DA
:100C8000F8E700BF5C53002008B50A4641F28833FC
:100C90000146034804F00DFCB0FA80F0400908BD9D
:100CA0005C53002007B545238DF80500022101A8FB
:100CB0008DF80430FFF7E8FF03B05DF804FB000097
:100CC00013B503788DF804300446437811488DF845
:100CD00005300421FFF7D8FF022101A8FFF7D4FF58
:100CE0006021A01CFFF7D0FF022104F16200FFF792
:100CF000CBFF012104F16400FFF7C6FF032104F1DB
:100D00006500FFF7C1FF042104F16800FFF7BCFF95
:100D100002B010BDB709030800B589B003F044F96B
:100D2000144B0093144B0246596801A8FFF720FFAB
:100D3000124B02A81968FFF71BFF1146104A03A8BF
:100D4000FFF716FF916804A8FFF712FFD16805A806
:100D5000FFF70EFF116906A8FFF70AFF516907A800
:100D6000FFF706FF20216846FFF78EFF09B05DF808
:100D700004FB00BF554346475C530020140000208D
:100D80000044004000B5154B9DB01A889B78ADF823
:100D90000020012168468DF80230FFF775FF04211D
:100DA0000F48FFF771FF02210DF10100FFF76CFF03
:100DB00001A9002001F0F0FD01A8FFF781FF01A9C2
:100DC000032001F0E9FD01A8FFF77AFF01F07CFDA7
:100DD000FFF740FF1DB05DF804FB00BFC109030829
:100DE000BC09030808B50A4641F2883301460848A1
:100DF00004F0ADFB50B1064804F072FE20B1044887
:100E000004F06AFCFFF7BCFE002008BD0120FCE7EF
:100E10005C5300202DE9F0430421C7B02348FFF7BD
:100E200033FFFFF779FF642002F02AF80024A04680
:100E30004FF0FF36274625460DF118094FF4807113
:100E40004846FFF7CFFFA8B1002319F80310DAB224
:100E5000914206D0701C07F1010702BF5E190C46D3
:100E600090460133B3F5807FEFD105F58075B5F578
:100E7000803FE3D10E4B0193294602A8FFF778FE8D
:100E8000394603A8FFF774FE314604A8FFF770FE49
:100E9000122101A88DF814808DF81540FFF7F4FE9B
:100EA000FFF7D8FE47B0BDE8F08300BF272A03084C
:100EB0005552455370B5C0B06B46054600241E46DA
:100EC00003F8014B0134B4F5807FF9D104210C48BB
:100ED000FFF7DAFEFFF720FF642001F0D1FF4FF4A7
:100EE00080713046FFF7D0FE28B115B1284601F0D9
:100EF000C7FF013CF3D1FFF7ADFE40B070BD00BFAE
:100F0000272A030807B50E4B0E481A889B78ADF8C0
:100F100004208DF806300322FA2301A904F017FB00
:100F2000FFF72EFE9DF80430BDF80500522B04D1CA
:100F3000FFF770FF03B05DF804FBFFF7BBFFF9E7B5
:100F4000C50903085C5300202DE9F04F99B010B19A
:100F5000002900F09881B24804F050FBFFF710FE22
:100F6000FFF778FEFFF72CFE012802D1FFF70AFFFA
:100F7000F8E7022802D1FFF7C5FFF3E7202001F0D0
:100F8000CFFC48230DF14100109301F04DFC0421EA
:100F900010A8FFF779FE01F041FC18B94920FFF7CE
:100FA00081FEDDE701F066FF002400F59C58DFF8C4
:100FB00070920746264608F1080801F05BFF41F2EF
:100FC0008735C01BA84201D95420E8E701F052FF41
:100FD000C31BAB42F8D8B8EB0003F5D0322B28BFC7
:100FE0003223012210A9484604F0B1FA054610B197
:100FF000FFF7C6FDE1E78B4A9DF84030925D9A42CB
:1010000023D10136B6B2082E23D1182102A8FFF74A
:10101000E9FE0028D8D002A8FFF7A8FD064603A8DD
:10102000FFF7A4FD804A0223CDE9082304ABCDE9F4
:101030000A6080460FCB0CAC84E80F007B4908A8FF
:1010400000F068F998B94820A9E7A3F141004642A9
:101050004641774A125D9A4204D10134A4B2082C69
:10106000ABD183E7A3F141014C424C41A5E7714963
:1010700008A800F06FF90028E5D04123012110A84D
:101080008DF84030FFF700FE4FF480513046FFF7F7
:1010900064FD0746AF4218D1644801F0B7FDD0B1F6
:1010A0005223012110A88DF84030FFF7EDFD4FF0DD
:1010B000FF394FF0000A56450FD8484600F004F9B2
:1010C000804500F08D80432069E7280301F09EFDF4
:1010D00008B10135DEE7452061E701F0CBFE00F500
:1010E0009C5B074600250BF1080B01F0C3FE41F2A3
:1010F0008733C01B98423FF667AF01F0BBFE41F259
:101100008733C21B9A423FF65FAFBBEB00033FF44D
:101110005BAF322B28BF3223414801220DF103017E
:1011200004F015FA10B1FFF72BFDDEE7424A9DF8F7
:101130000330525D9A420CD10135ADB2042DD4D1A9
:10114000062110A8FFF74EFE38B95420FFF7AAFD7C
:10115000B1E7413B5D425D41C7E710A8FFF706FDDF
:10116000BDF844707B1EFF2B834601D94820EDE774
:1011700032483946FFF736FE0028E6D0294601A856
:10118000FFF730FE0028E0D001A8FFF7EFFC2B4965
:1011900005463A464FF0FF3000F07EF800F094F834
:1011A000854201D04320D1E7D34517D123493A46A0
:1011B000584601F0ADFD08B95020F0E648461F49F9
:1011C0003A4600F069F8BA4481464B2301210DF1FB
:1011D00003008DF80330FFF757FD6CE7C6D2F4E744
:1011E0000023ADF845308DF847300F4B1093314652
:1011F000022312A88DF84430FFF7BAFC414613A829
:10120000FFF7B6FC94E80F0018AC04E90F0007489C
:10121000202210A901F07CFD90B94D20BFE600BF4F
:101220005C530020C80903085448444100F07F0083
:10123000A509030840C90308D1090308B5510020D6
:101240005624012110A88DF84040FFF71DFD01F044
:1012500051FC08B92046A2E64423012110A88DF8CC
:101260004030FFF711FD642001F00AFEBFF34F8FFD
:101270000649074BCA6802F4E0621343CB60BFF330
:101280004F8F00BFFDE719B0BDE8F08F00ED00E023
:101290000400FA050068704730B519B1094D0A44D9
:1012A000914200D130BD11F8013B5840082340F372
:1012B0000004013B2C4013F0FF0384EA5000F6D1F8
:1012C000EEE700BF2083B8EDC043704708B5034682
:1012D000E0B1E1B1FFF7DEFF0860181DFFF7DAFFAC
:1012E000486003F10800FFF7D5FF886003F10C00A8
:1012F000FFF7D0FF03F11002C8602033103152F81D
:10130000040B41F8040B9A42F9D1012008BD0846AC
:10131000FCE700000346C0B100680D4A904214D1BA
:101320005A68022A11D1986880B188420DD803F119
:101330000F0200201F3312F8011F9A4240EA0100F9
:10134000F9D1003818BF012070470020704700BF56
:101350005448444108B5C0B1D1B102680B689A4203
:1013600014D142684B689A4210D182688B689A42C5
:101370000CD1C268CB689A4208D1102211441044A3
:101380002EF0F7FAB0FA80F0400908BD0020FCE723
:101390000846FAE708B5FFF71FFB30B9044803F029
:1013A00079FC431E5842584108BD0020FCE700BFAD
:1013B0004C55002010B588B0044620220021684614
:1013C0002EF0E7FA2046694600F0EDF8044668B9C9
:1013D000FFF7E0FF60B1074820236A46214600F08E
:1013E000DDFB002818BF052008B010BD0320FBE777
:1013F0000420F9E72C2A030810B588B004462022FF
:10140000002168462EF0C5FA9CB1FFF7C3FF90B1EA
:101410000B4820236A46002100F08EFB68B9214664
:10142000684600F007F9032828BF0320C0B208B0BF
:1014300010BD0320FBE70420F9E70520F7E700BF14
:101440002C2A0308F0B50F4B0F4F104C104987B0F2
:10145000012600201E703870266000F047F901A8B0
:10146000FFF7CAFFB0420AD8059B3344236030B966
:1014700001AC0FCC064D3E700FC523682B6007B042
:10148000F0BD00BFCD520020CC5200200C00002047
:10149000B8520020F0B50F4B1B7887B00BB9FFF79F
:1014A000D1FF0D4F01A9386800F020F901A8FFF71E
:1014B00081FF064650B901AC0FCC084D0FC523681B
:1014C0002B60074B1E703B6801333B60304607B012
:1014D000F0BD00BFCD5200200C000020B85200200B
:1014E000CC5200202DE9F043054687B0002830D0CB
:1014F000194B1B780BB9FFF7A5FFDFF86880174978
:1015000098F80020284600F0FCF804468146B8B15F
:10151000012819D1124F01AA3968284600F0D2F8E3
:1015200001A8FFF747FF044650B901AD0FCD0B4EA0
:1015300088F800900FC62B6833603B6801333B602E
:10154000204607B0BDE8F08307B0BDE8F043FFF7E1
:10155000A1BF0324F4E700BFCD520020B852002001
:101560000C000020CC5200200068704730B500B954
:1015700039B90246014441F221044FF6FF708A4214
:1015800000D130BD12F8013B80EA0320082305B2E8
:101590004000002D80B203F1FF33B8BF604013F06C
:1015A000FF03F4D1EBE770B50C46054600283FD0A9
:1015B00000293DD020263246002120462EF0E9F9B0
:1015C00042222B782270532262705422A27052223F
:1015D000E27001222271A67123726B88A3721B0A2A
:1015E000E372AB8823731B0A6373EB88A3731B0A34
:1015F000E373EB6823741A0A62741A0C1B0EA2744C
:10160000E3742B6923751A0A62751A0C1B0EA275F6
:10161000E3756B7823762B7A63766B7AA3761E213B
:101620002046FFF7A3FFA077000AE077002070BDF7
:101630000320FCE770B50D46044600283CD0002985
:101640003AD01422002128462EF0A3F92046FFF7B5
:101650008BFF1B4B984231D1A388012B2ED1E388FD
:10166000202B2BD11E212046FFF780FFE68BB042B6
:1016700024D1228902F001032B7063896B80A18938
:10168000A980E189E98004F11000FFF76DFFE860AF
:1016900004F11400FFF768FF2861217E6970617E04
:1016A0002972A17E697212F0010F4FF0000000D084
:1016B0000BB92870012070BD0320FCE70220FAE777
:1016C0004253545288B182B101231370437853704E
:1016D0004388538083889380C388D380037A1372AE
:1016E000437A5372C368C2E90331704710B50B46A1
:1016F000044629B11422002118462EF04AF904614B
:1017000010BD10B550B1037833B1437823B144888C
:1017100014B122B9012001E05200D0B210BD00295D
:10172000F8D04A88A242F5D18C8882889442F1D1BF
:101730004A789A42EED10A8903899A42EAD1CB6863
:10174000C068181A18BF0120E8E70000642828BF05
:1017500064200F4B0A2838BF0A2018700D4B1B68F5
:10176000A3B11A680C49D36A096803FB000064231B
:10177000B0FBF3F309B953637047042901D19363B4
:101780007047082901D1D36370471364704700BFC5
:1017900010000020D4520020D052002038B5094B50
:1017A0001860094B1960094B044664200D461870F7
:1017B0003CB1FFF7CBFF29462046BDE8384003F097
:1017C0002BBD38BDD4520020D05200201000002084
:1017D00008B501F04FFB0C4A002313700B4A106050
:1017E0000B4A10600B4A10600B4A13700B4A1380AF
:1017F0000B4A13800B4A4FF4F57111600A4A1360CB
:101800000A4A136008BD00BFF8520020F4520020BD
:10181000F0520020EC520020E8520020E652002056
:10182000E4520020E0520020DC520020D852002078
:10183000034B1A781AB901221A70FFF7C9BF704713
:10184000F9520020F8B5044601F014FB0546FFF7F5
:10185000EFFF5448544F0378544E554983B13B78B9
:1018600073B9544A1268AA1AB2F5FA6F06D3012264
:101870003A70514A03701360504B1D600D600CE0CC
:101880003A783388022AF9D10A680020002B36D131
:1018900008B133800A60FFF79BFF3A78DFF818C180
:1018A0004749DCF80000DFF814E1464F931E012B96
:1018B0002FD90860CEF8005000232370131E18BFE4
:1018C00001236370E370338823813F4B22711B88AF
:1018D0006381D31E5A425A410323002063733B683D
:1018E000A070236101200B682273E0806361207681
:1018F000F8BD013B9BB202F57A720120C6E7A5EB69
:10190000020CBCF57A7FF4D20028C6D033800A607E
:10191000C3E7032A07D1B0F5FA7FA8BF4FF4FA70E6
:1019200020EAE070C5E7DEF80030CEF80050EB1A90
:101930004FF03C0E0EFB03FEBEF57A7F25DB4FF425
:101940007A739EFBF3F3D7F800E0864521DD03446C
:101950007345D4BFCCF80030CCF800E0DCF80030A0
:101960009E4508D119484FF4AF73B5FBF3F303F06C
:101970000703C3567344B3F5FA7FA8BF4FF4FA7355
:1019800023EAE3730B60012397E7003B18BF0123B1
:10199000D9E7E3DAC01A7045ACBFCCF80000CCF848
:1019A00000E0DBE7F8520020E8520020E652002079
:1019B000EC520020F4520020DC520020F0520020B3
:1019C000D8520020E0520020E45200203C2A0308B4
:1019D000024B01221A70FFF7FBBE00BFF952002034
:1019E00008B1FFF72FBF704710B501F043FA044666
:1019F000FFF71EFF094A137803F0FD03012B0BD1FB
:101A000002231370064B1E221A80064B00221A80F6
:101A1000054B1C60054B1C60012010BDE8520020E6
:101A2000E6520020E4520020F0520020EC52002048
:101A300008B5FFF7FDFE054B1A78022A04D10322F0
:101A40001A70034B05221A80012008BDE8520020BD
:101A5000E452002010B501F00DFA0446FFF7E8FE4D
:101A6000074B1A78032A08D102221A70054B00226C
:101A70001A80054B1C60054B1C60012010BD00BF87
:101A8000E8520020E4520020F0520020EC520020E6
:101A900008B5FFF7CDFEFFF79BFE012008BD000053
:101AA00010B50446FFF7C4FEB4F5F57FA8BF4FF4A8
:101AB000F574044BB4F5917FB8BF4FF491741C607A
:101AC000012010BDE052002008B5FFF7B1FE064B23
:101AD0001B7833B9054B01221A7001F0CBF9044B86
:101AE0001860012008BD00BFE8520020F852002015
:101AF000F452002008B5FFF79BFE024B00221A703B
:101B0000012008BDF852002001207047704770473F
:101B100030B1036823B14068B0FA80F040097047E3
:101B20000120704701894068002201F0DDBC018975
:101B30004068012201F0D8BCF7B5054617461E469D
:101B4000FFF7E6FF40BB3AB38B19B3F5004F23D83C
:101B500006B30B0A032428468DF804408DF805309F
:101B60008DF80610FFF7DEFF2246EB68286801A912
:101B700002F096FB044630B9EB682868B2B23946E9
:101B800002F03AFD04462846FFF7D1FF201E18BF99
:101B90000120400003B0F0BD0120FBE72DE9F34137
:101BA00005460C4617461E46FFF7B2FF00283DD1FA
:101BB000002A3BD08B19B3F5004F37D89EB30623CC
:101BC00028468DF80430FFF7ADFFEB682868012246
:101BD00001A902F065FB80462846FFF7A8FF022016
:101BE000B8F1000F1FD1230A8DF8040028468DF8A4
:101BF00005308DF80640FFF795FFEB682868032253
:101C000001A902F04DFB044630B9EB682868B2B276
:101C1000394602F045FB04462846FFF788FF201EA0
:101C200018BF0120400002B0BDE8F0810120FAE7B2
:101C300010B594B0102200210AA82DF0AAFE14229B
:101C4000002103A82DF0A5FE214B002101911A6C63
:101C500042F080521A641B6C1E4A03F080530193B9
:101C6000019B0291136823F4404343F40043136043
:101C7000136803F440430293029B01224FF4A02314
:101C8000CDE9082302244FF48003CDE90E43082157
:101C90004FF4A8730420CDE910130723CDE91203F4
:101CA00008A801F00BFF08B172B6FEE70F23CDE9DB
:101CB00003344FF48053CDE906300590214603A844
:101CC00002F0D8F808B172B6FEE714B010BD00BF3C
:101CD00000380240007000402DE9804897B0002491
:101CE000BB4D01F0A1F8FFF7A3FF142200210EA8BD
:101CF0002DF04FFE01942B6BB64843F004032B6389
:101D00002B6B03F004030193019B02942B6B43F0B4
:101D100080032B632B6B03F080030293029B0394DD
:101D20002B6B43F001032B632B6B03F00103039335
:101D3000039B04942B6B43F002032B632B6B03F088
:101D40000203049301220821049B01F0CDFBA1486A
:101D500022464FF4A07101F0C7FB9F48224640F293
:101D6000022101F0C1FB22469C484FF4846101F03E
:101D7000BBFB4FF40419974810944FF4005A0EA976
:101D800001260827CDE90EA901F0E2FA03239148C4
:101D900011930EA9CDE90E76109401F0D9FA022222
:101DA0008D480EA9CDE90E26CDE9104401F0D0FAF8
:101DB0004FF4846289480EA9CDE90E264FF0400BFE
:101DC000CDE9104401F0C4FA82480EA9CDE90EB65F
:101DD000CDE9104401F0BCFA4FF480727D480EA9A1
:101DE000CDE90E264FF40078CDE9104601F0B0FAA7
:101DF0000323794811930EA9CDE90E86109401F0C2
:101E0000A7FA4FF48062744810960EA9CDE90E2906
:101E100001F09EFA22463146282001F057F828208A
:101E200001F086F851466B48DFF8E09101F056FB6F
:101E3000B0FA80F0400989F800000EA96548CDE9A4
:101E40000E76CDE9104401F083FA624832463946F5
:101E500001F04AFB32466048414601F045FB03234E
:101E60005E4811930EA9CDE90EB6109401F070FAF8
:101E70005A483246594601F037FB00942B6B43F425
:101E800000132B632B6B03F40013224621460093AF
:101E90000B20009B01F01AF80B2001F049F82246B4
:101EA0002146102001F012F8102001F041F84C48B2
:101EB0004C4B036001F05EF8034608B172B6FEE7D2
:101EC00049484A4A4A4D0362C0E900524FF48042F1
:101ED000C0E90233C0E90423C0E9063301F0CCFBBA
:101EE00008B172B6FEE7434C434BA062C4E902005E
:101EF000C4E90400C4E908004FF482750A262046AC
:101F0000C4E90035C4E90687E66202F06DF90346CC
:101F100008B172B6FEE722683848116821F0400126
:101F20001160116821F0380141F008011160116859
:101F3000E76141F040011160314AC0E90233C0E974
:101F40000025C0E90433C0E90687C0E90833C0E9C9
:101F50000A3602F049F9054608B172B6FEE71C22BE
:101F60000146CDE905000DEB02002DF012FD202207
:101F700029460EA82DF00DFD224C234BA560C4E987
:101F8000003541F2670680232046C4E90365656198
:101F9000A36103F02DF808B172B6FEE7CDE90500A4
:101FA00005A9204603F03AF9024608B172B6FEE7E9
:101FB000CDE90900CDE90B0060230D9007A920466B
:101FC000CDE9073603F06CF810B372B6FEE700BF38
:101FD00000380240000802400000024000040240B5
:101FE000F855002000300240A4550020801A060059
:101FF000005400404C55002000300140F4540020B3
:10200000003C0040EC53002000000140FA52002048
:10201000CDE90E00CDE91000CDE9120A15900EA908
:10202000204603F031F9054608B172B6FEE72046B6
:1020300000F0EAF9254C264842F2CF03C0E90043FC
:10204000A523C0E903358560856102F0A5FF03463D
:1020500008B172B6FEE71F481F4903614FF41642EC
:10206000C0E900120C22C0E90233C0E90523C361B4
:1020700003F0F0F908B172B6FEE703F033FD00F0AB
:1020800023FC99F80030FBB900F034FD99F80010FA
:10209000FEF75AFF11480021FFF780FBFEF782FC94
:1020A000FEF798FCFEF782FB002210461146FEF771
:1020B00017FCFEF771FB0748FFF78AFC044802F0A3
:1020C00061FE03F016FDFCE70020DFE70048014059
:1020D000A45300205C53002000440040EC53002037
:1020E00072B6FEE782B00C4B002100915A6C42F4AC
:1020F00080425A645A6C02F480420092009A019124
:102100001A6C42F080521A641B6C03F080530193E6
:10211000019B02B0704700BF003802400268094BC3
:102120009A4282B00BD100230193074B1A6B42F401
:1021300080521A631B6B03F480530193019B02B01E
:10214000704700BF003002400038024030B50446FE
:1021500089B01422002103A82DF01BFC2268144B27
:102160009A4222D1134C144800250195236B43F069
:1021700002032363236B03F002030193019B4FF4DB
:1021800040721223CDE9032303210423CDE9061372
:1021900003A901F0DDF80295236C43F400132364D6
:1021A000236C03F400130293029B09B030BD00BFFF
:1021B00000540040003802400004024070B5142270
:1021C0008AB0064600210DEB02002DF0E2FB3368D9
:1021D000604A934252D1604C604800250095636C80
:1021E00043F480536364636C03F480530093009B57
:1021F0000195236B43F001032363236B03F0010379
:102200000193019B4FF0E00C0223CDE905C34FF091
:10221000030E052305A9CDE908E301F099F802951D
:10222000236B4F4A43F480032363236B4D4C03F429
:1022300080030293029B4FF0C063C4E90023402354
:10224000C4E902354FF48063C4E9043520464FF4F5
:102250000033C4E90655C4E9083500F0B1FE08B101
:10226000FFF73EFF00223B20B4641146A66300F056
:102270002DFE3B2000F05CFE0AB070BD3A4A93424E
:10228000FAD10025344B03951A6C42F400421A64CB
:102290001A6C02F400420392039A04951A6B42F0FE
:1022A00004021A631B6B03F004030493049B4FF4B2
:1022B000E0500223CDE90503032406232B4805A99A
:1022C000CDE9084301F044F8294C2A4B2046C4E9E3
:1022D00000354FF48063C4E90255C4E90435C4E90C
:1022E0000655C4E9085500F06BFE08B1FFF7F8FE8B
:1022F000F464A663204C214900234022C4E9022350
:1023000020464FF48062C4E90013C4E90423C4E901
:102310000633C4E9083300F053FE08B1FFF7E0FECE
:1023200000221146B4643320A66300F0CFFD3320B1
:1023300000F0FEFD4FF4E0520223CDE90523002317
:10234000CDE907330948062305A9099301F000F8F0
:1023500092E700BF00300140003802400000024018
:1023600058640240FC520020003C0040000802403B
:1023700094540020106002403454002088600240D1
:1023800007B50F4B02689A4216D1002203F59C3321
:102390000192596C41F0010159645B6C03F0010337
:1023A000019311461A20019B00F090FD1A2003B002
:1023B0005DF804EB00F0BCBD03B05DF804FB00BFAA
:1023C0000000014007B50F4B02689A4216D1002267
:1023D00003F570430192596C41F4802159645B6CA0
:1023E00003F48023019311461A20019B00F06EFD37
:1023F0001A2003B05DF804EB00F09ABD03B05DF85D
:1024000004FB00BF0048014010B5044686B014220A
:10241000002101A82DF0BDFA22680E4B9A4216D178
:10242000002300930C4B0D481A6B42F001021A6313
:102430001B6B03F001030093009B4FF48072022397
:10244000CDE9012301A90123059300F081FF06B026
:1024500010BD00BF000001400038024000000240F3
:1024600010B5044688B01422002103A82DF091FA7B
:102470002268174B9A4228D103F5FA3300240194BD
:102480001A6C144842F400321A641A6C02F40032D6
:102490000192019A02941A6B42F001021A631B6BBB
:1024A00003F0010302930C22029B0223CDE90323D4
:1024B00003A90723079300F04BFF2620224621465D
:1024C00000F004FD262000F033FD08B010BD00BF71
:1024D0000044004000000240FEE7FEE7FEE7FEE7A2
:1024E000FEE770477047704700F0B8BC014800F045
:1024F0006FBE00BF94540020014800F069BE00BFC9
:102500003454002008B5044802F072FCBDE80840CD
:10251000024802F06DBC00BFEC530020A453002021
:1025200008B54FF4806000F0E5FFBDE808404FF4C7
:10253000005000F0DFBF7047014803F081B900BFD1
:102540005C530020014800F043BE00BFFC52002055
:102550000268034B9A4201D112F0ACBF704700BF32
:1025600000480140B0F5806F02BF024B01221A60A3
:10257000704700BFE85800200120704708B52DF0D3
:1025800079FA162303604FF0FF3008BD08B52DF02F
:1025900071FA16230360FEE770B50D4614460E4629
:1025A000731B9C4201DC204670BDAFF3008006F82F
:1025B000010BF5E770B50D4614460E46731B9C42A1
:1025C00001DC204670BD16F8010BAFF30080F5E783
:1025D0004FF0FF3070474FF400534B6000207047BE
:1025E00001207047002070470B4A116810B5034660
:1025F00009B90A491160106809490A4C0344091BCA
:102600008B4206D92DF036FA0C2303604FF0FF30D1
:1026100010BD1360FCE700BF005600204867012092
:102620000080012000040000034AD2F8883043F4FF
:102630007003C2F88830704700ED00E00378EF2B9C
:1026400008D14378402B05D18078A0F11703584278
:10265000584170470020704702480122082100F0CD
:1026600043BF00BF0008024002480022082100F0DA
:102670003BBF00BF00080240B0F5000F07B514D201
:1026800003238DF80430030C40BA8DF80530ADF803
:102690000600FFF7E9FF0422074864230DEB02015F
:1026A00001F0FEFD28B1FFF7D7FF002003B05DF871
:1026B00004FB0120FAE700BFF454002013B5062301
:1026C0008DF80730FFF7D0FF642301220DF10701D9
:1026D000054801F0E5FD0446FFF7BEFFB4FA84F0BB
:1026E000400902B010BD00BFF454002073B50523AB
:1026F0008DF80630012304468DF8073000F0BAFB50
:10270000134E0546FFF7B0FF1148642301220DF177
:10271000060101F0C5FD20B1FFF79EFF002002B0C9
:1027200070BD642301220DF10701304601F064FF02
:102730000028F1D1FFF790FF9DF80730DB0705D5A2
:1027400000F098FB431BA342DCD3E7E70120E6E758
:10275000F4540020F8B504460F4616461D46FFF710
:1027600083FF21460A4864233A4601F099FD044656
:1027700038B935B1064864232A46314601F03CFF9A
:102780000446FFF769FFB4FA84F04009F8BD00BFC2
:10279000F454002013B5AB230421024601930DEB42
:1027A00001000123FFF7D6FF044610B1012000F01D
:1027B00067FB204602B010BD13B5FFF74DFF66233F
:1027C0008DF8073000231A4601210DF10700FFF7AD
:1027D000C1FF18B90024204602B010BD99238DF81E
:1027E000073000231A4601210DF10700FFF7B2FF61
:1027F00004460028EED0012000F042FBEBE707B5CD
:102800009F2302468DF80730012103230DF10700B5
:10281000FFF7A0FF03B05DF804FB0000014B187840
:10282000704700BF0756002030B1044B1A78027081
:102830005A7842709B788370704700BF045600201E
:1028400038B500F017FB084D04462B785BB100F05B
:1028500011FB001B6428F8D9044802F0CFF8FFF7F9
:10286000FBFE00232B7038BD08560020F4540020D6
:1028700038B5044600B3032821D102220123114DAB
:10288000C5E90423FFF7DCFFFFF7E6FE284602F068
:10289000B5F82B681A6822F040021A601A6822F014
:1028A000030222431A601A6842F0400201201A60B3
:1028B00000F0E6FA012038BD02460346DFE70020BB
:1028C000F9E700BFF454002073B5124B124D134EBC
:1028D00000248DF807401C7034702C706C70AC7044
:1028E000FFF7BAFE2046FFF7C3FF78B1FFF764FF9A
:1028F00060B10DF10700FFF74DFF38B12846FFF733
:102900007EFF18B12846FFF799FE3070307802B08C
:1029100070BD00BF08560020045600200756002056
:1029200073B51B4E0024ADF804408DF806408DF8B9
:10293000034034700546B0B12046FFF799FF90B1CF
:10294000FFF73AFF78B10DF10300FFF723FF50B115
:1029500001A8FFF754FF48B90E4BBDF804109DF8CD
:10296000062019809A70002002B070BD01A8FFF700
:1029700065FE0028F0D00134AC42E9D1054BBDF82A
:1029800004109DF8062019809A7001233370EBE73C
:1029900007560020045600202DE9F043074685B075
:1029A0000C4600296FD06B220021601C2CF0F1FF37
:1029B00027703846FFF75CFF00286AD0FFF7FCFE5F
:1029C000002866D004F16400FFF7E4FE0546A61C6B
:1029D00004F162083046FFF712FF002857D0304656
:1029E000FFF72CFE10B16378013363700336464560
:1029F000F0D19023324602930421022302A8FFF76C
:102A0000A9FE0123002804F1650219464FF00509CB
:102A10000DF1070008BF00258DF80790FFF79AFE1B
:102A200035238DF807300123B0F1000804F1660268
:102A300019460DF1070018BFA846FFF78BFE1523B6
:102A40008DF807300123061E04F1670219460DF1C7
:102A5000070018BF4646FFF77DFE5A23051E18BF24
:102A60003546029304F1680200260423494602A871
:102A70008DF80C60FFF76EFE041E18BF2C4617B1D0
:102A80003046FFF7F5FE204605B0BDE8F083054669
:102A9000ACE700259BE70000B0F1104F70B504468D
:102AA0000E46154628BF00F1E04409B9002070BD6C
:102AB000013A4FF6FE739A42F8D8B4F5000FF5D2FA
:102AC000C4F50003AB42F1D3FFF7BAFE2046FFF78F
:102AD000D3FD0028EAD06423AAB23146044801F0AD
:102AE0008BFD0446FFF7B8FDB4FA84F04009DEE739
:102AF000F454002070B5244B1B78D0B013B90020DB
:102B000050B070BD214820226946FFF7C5FF00285C
:102B1000F5D008A96846FEF7D9FB0028EFD01B497D
:102B200008A8FEF7F7FB0028E9D018491848FEF777
:102B3000F1FB0028E3D0164908A8FEF70BFC00289B
:102B4000DDD04FF0FF35002613E0A41BB4F5807FE5
:102B500028BF4FF48074224610A93046FFF79CFF2F
:102B60000028CCD02846224610A9FEF795FB264423
:102B700005460A9CB442E8D82846FEF7A5FB0B9B05
:102B80001B1A58425841BBE70756002000F07F004F
:102B900040C90308B0F1104FF8B504460E4615467B
:102BA00028BF00F1E044F9B1013A4FF6FE739A42B2
:102BB0001AD8B4F5000F17D2C4F50003AB4213D3F3
:102BC000FFF73EFE2046FFF757FD044660B1084F71
:102BD00008480123AAB231463B7001F09BFE20B1A8
:102BE00000233B70FFF738FD00242046F8BD00BFEE
:102BF00008560020F454002008B5FFF72DFD024BC5
:102C000000221A7008BD00BF08560020174B1B7821
:102C1000B0F1104F13B5044628BF00F1E04413B9DA
:102C2000002002B010BDB4F5000FF9D2FFF746FD49
:102C30000028F5D020238DF80430230C64BA8DF8D9
:102C40000530ADF80640FFF70FFD04220848642365
:102C50000DEB020101F024FB0446FFF7FDFC002C04
:102C6000DED14EF66020FFF741FDDAE7075600207F
:102C7000F4540020244B1B78B0F1104F73B5044678
:102C80000E46154628BF00F1E04453B349B3531E26
:102C9000FF2B26D8B4F5000F23D2C4F500039342CE
:102CA0001FD34FF4807229462046FDF747FFA84204
:102CB00017D1FFF703FDA0B102238DF80430230CD8
:102CC00064BA8DF80530ADF80640FFF7CDFC04225C
:102CD0000E4864230DEB020101F0E2FA20B1FFF788
:102CE000BBFC002002B070BD08486423AAB2314684
:102CF00001F0D6FA0446FFF7AFFC002CF1D16420B6
:102D0000FFF7F4FCEEE700BF07560020F454002064
:102D10002DE9F843154B1B78B0F1104F0446884657
:102D2000164628BF00F1E044F3B1E9B1E2B1B4F5D1
:102D3000000F19D2C4F50003934215D3002504EB0C
:102D400005094FF48072711B4846FDF7F7FE08EB4A
:102D50000501074602464846FFF78CFF20B13D4477
:102D6000AE42ECD8BDE8F8830020FBE70756002010
:102D70000268034B9A4201D1FFF73EBF704700BF84
:102D8000003C0040FFF7F4BFFFF7F2BFDFF834D09C
:102D9000FFF74AFC0C480D490D4A002302E0D458C5
:102DA000C4500433C4188C42F9D30A4A0A4C002395
:102DB00001E013600432A242FBD32CF061FEFEF767
:102DC0008BFF70470080012000000020F8000020E9
:102DD00008210508F800002048670120FEE70000F0
:102DE00038B50E4B1A784FF47A73B3FBF2F30C4AF2
:102DF00005461068B0FBF3F000F0A8F8044658B997
:102E00000F2D09D8024629464FF0FF3000F05EF83A
:102E1000044B20461D6038BD0120FCE7180000204F
:102E2000140000201C00002008B50B4B1A6842F467
:102E300000721A601A6842F480621A601A6842F4DA
:102E400080721A60032000F02FF80020FFF7C8FFFF
:102E5000FFF748F9002008BD003C0240034A044B3C
:102E600011681B780B441360704700BF0C5600209C
:102E700018000020014B1868704700BF0C56002056
:102E800038B50446FFF7F6FF631C1CBF054B1B78E3
:102E9000054618BFE418FFF7EDFF431BA342FAD322
:102EA00038BD00BF180000200749CA6822F4E0625C
:102EB0000302120403F4E063120C134343F0BF63F4
:102EC00043F40033CB60704700ED00E0164B30B5A3
:102ED000DC68C4F30224C4F10703251D042B28BFBA
:102EE0000423062D4FF0FF358CBF033C002405FA68
:102EF00003F321EA0303A54022EA0502A3400028C8
:102F000043EA0203ACBF00F16040084A4FEA0313F2
:102F1000B8BF00F00F00DBB2AABF00F56140135448
:102F200080F8003330BD00BF00ED00E014ED00E09C
:102F3000002807DB044A4109012300F01F008340F9
:102F400042F82130704700BF00E100E00138B0F1E5
:102F5000807F0BD24FF0E023054A5861F02182F8C0
:102F600023100020072298611A61704701207047E2
:102F700000ED00E010B5044650B1437903F0FF02C4
:102F800013B90271FFF7CAF801236371002010BD65
:102F90000120FCE7036810B5084C0246D9B210398D
:102FA0001820B1FBF0F0205CD06523F47F7020F096
:102FB00003005F2988BF0430906510BD5C2A0308B8
:102FC00070B50446FFF756FF0546002C60D002237B
:102FD00084F835302268002384F83430136823F0F5
:102FE0000103136022681368D8072ED4136832488F
:102FF000A1691840D4E901352B43E5682B432569C5
:103000002B4365692B43E5690B432B43256A2B430F
:103010000343606A042802BFD4E90B5635432B43AF
:1030200013605369042823F0070343EA000335D1F2
:10303000A06AE56A03438DB391B9012820D030F02E
:1030400002012BD1E90129D51DE0FFF713FF401B39
:103050000528C7D920230320636584F8350070BD97
:10306000B1F5005F16D1032818D801A151F820F05E
:10307000873000084530000887300008813000089C
:10308000B5F1C07F0AD140236365012384F8353050
:103090000120E4E70228F6D90328D3D05361204663
:1030A000FFF778FFE26D3F23934083600020012308
:1030B000606584F83530D2E73F8010F070B590F845
:1030C0003440866D012C30D0012480F8344090F8D3
:1030D0003540012C4FF0000425D1022580F83550F1
:1030E00044650468256825F480252560636083684D
:1030F000402B0EBFA260A160E260C26D08BFE1601C
:103100003F239340B360236843F016032360036CAE
:103110001BB1236843F008032360236843F00103D5
:103120002360002070BD80F834400220FAE770B5BB
:103130000446866DFFF79EFE94F83530022B054657
:1031400006D0802363650120002384F8343070BDED
:1031500023681A6822F016021A605A6922F0800267
:103160005A61226C0AB9A26C1AB11A6822F00802DC
:103170001A601A6822F001021A602368186810F0B9
:10318000010007D1E26D3F239340B360012384F82F
:103190003530D9E7FFF76EFE401B0528EDD9202317
:1031A0000320636584F83500CEE790F83530022BB4
:1031B00003D080234365012070470268052380F80F
:1031C0003530136823F001031360002070470000BE
:1031D000F7B5002301935C4B856D1F68C36D2E68A6
:1031E00008229A40324204460CD001680868400721
:1031F00008D5086820F004000860AA60626D42F0FB
:103200000102626501229A40324208D02168496970
:10321000090641BFAA60626D42F0020262650422A3
:103220009A40324208D021680968880741BFAA60E5
:10323000626D42F00402626510229A40324210D060
:103240002368196809070CD5AA601A68500337D596
:103250001B68190301D4236C00E0A36C0BB120465A
:103260009847E16D20228A4032423AD0236818689C
:10327000C60636D5AA6094F83520052A1A6827D1E3
:1032800022F016021A605A6922F080025A61226CFA
:103290000AB9A26C1AB11A6822F008021A603F2318
:1032A0008B40AB60012384F83530002384F8343040
:1032B000236D002B45D0204603B0BDE8F0401847F1
:1032C0001A68D2055EBF1A6822F008021A60C2E7C7
:1032D000500327D51B68190331D4636C0BB120460A
:1032E0009847636D6BB3636DDA0719D522684FF4A5
:1032F0001653B7FBF3F7052384F83530136823F032
:1033000001031360019B0133BB42019302D8136890
:10331000DB07F7D4012384F83530002384F83430F8
:10332000E36CC6E71A6812F4807208D1196821F0BC
:1033300010011960012384F8353084F83420E36BE0
:10334000CCE703B0F0BD00BF14000020406D704713
:103350002DE9F74FDFF880915D4A00230D680124C5
:103360009C4004EA0506AC4340F0A3804D68032767
:1033700005F003044FEA430807FA08FC671E012F13
:103380006FEA0C0C34D8876807EA0C0ECF6807FA8E
:1033900008F747EA0E078760476827EA060EC5F375
:1033A00000179F4047EA0E074760C76807EA0C0E00
:1033B0008F6807FA08F747EA0E07022CC76019D191
:1033C0004FEAD30A00EB8A0A03F0070BDAF8207001
:1033D0004FEA8B0B4FF00F0E0EFA0BFE27EA0E0E84
:1033E0000F6907FA0BF747EA0E07CAF8207001E0E9
:1033F000032CDAD1076804FA08F407EA0C073C4307
:1034000015F4403F046054D000240194D9F844409E
:1034100044F48044C9F84440D9F8444023F00307F9
:1034200007F1804704F4804407F59C37019403F0CA
:10343000030C019CD7F808E04FEA8C0C0F2404FA27
:103440000CF42EEA040E234CA04239D004F580641B
:10345000A04237D004F58064A04235D004F58064E2
:10346000A04233D004F58064A04214BF0724042492
:1034700004FA0CF444EA0E04BC609468F74315F4B3
:10348000801F0CBF3C4034439460D46815F4001F87
:103490000CBF3C403443D460546815F4003F0CBF6B
:1034A0003C40344354601468ED0354BF3C40344303
:1034B00014600133102B7FF451AF03B0BDE8F08FDF
:1034C0000024D5E70124D3E70224D1E70324CFE782
:1034D000003C0140000002400038024003691942EC
:1034E00014BF0120002070470AB1816170470904B0
:1034F000FBE70000044A5169014208B502D050615F
:10350000FFF730F808BD00BF003C01402DE9F84648
:1035100006460F4691461D464FEA114A3368BAF1F6
:10352000010F0CBF5C699C6927EA0404A4B2B4FAD9
:1035300084F46409A14501D0002025E06A1CEED086
:10354000FFF798FC089BC01AA84201D8002DE5D1CE
:103550003368BAF1010F0CBF5B699B6927EA03036B
:103560009BB2B3FA83F35B099945D7D1002320229C
:10357000336386F83D2086F83E30326C86F83C3066
:1035800042F0200232640120BDE8F8862DE9F041C6
:1035900004460F46164698462568686927EA0000E3
:1035A00080B2C0B16B695A0517D52B6843F400731C
:1035B0002B606FF480636B6120220023236384F807
:1035C0003D2084F83E30236C43F004032364002341
:1035D00084F83C300120BDE8F081731CDDD0FFF79A
:1035E00049FCA0EB0800B04201D8002ED4D12368DA
:1035F0005A6927EA020292B2002ACDD00023202283
:10360000236384F83D2084F83E30236C1343DDE7C8
:1036100070B504460D46164621684B6913F0400309
:1036200001D0002011E04A69D2060FD56FF01002D8
:103630004A612022236384F83D2084F83E30236CC5
:103640002364002384F83C30012070BDFFF712FC96
:10365000801BA84201D8002DDED123685B6913F0DE
:103660004003D9D12022236384F83D2084F83E30E2
:10367000236C1343E4E7000070B5044608B9012049
:1036800070BD90F83D3003F0FF021BB980F83C207C
:10369000FEF75CFD242384F83D3023681A6822F08D
:1036A00001021A601A6842F400421A601A6822F491
:1036B00000421A6000F078FC3F4B65689D4294BF61
:1036C0003E4B3F4B98428CBF00230123002BD6D1A9
:1036D0002268394E51683B4BB0FBF3F321F03F01B8
:1036E0001943B542516088BF4FF49676116A88BF7E
:1036F000734321F03F0184BF4FF47A76B3FBF6F3B6
:1037000001330B431362D169431E2B4821F44F410F
:10371000854221F0FF0132D86D0040F6FC70B3FB0A
:10372000F5F30133034242D0C3F30B031943D161D4
:10373000D4E907301168034321F0C0010B43136043
:103740009168D4E9030321F40341034321F0FF010D
:103750000B439360D4E90530D168034321F0FF01A6
:103760000B43D360136843F0010313600020202350
:10377000206484F83D30206384F83E0080E7A06830
:1037800050B905EB4505B3FBF5F30133C3F30B0368
:103790007BB143F40043C9E719206843B3FBF0F35E
:1037A0000133C3F30B0323B143F44043BEE70423C7
:1037B000BCE70123BAE700BFA08601007F841E009A
:1037C000FF083D0040420F002DE9F043044689B058
:1037D0009846109F0E469146FFF74CFB94F83D30FB
:1037E000202B054604D00226304609B0BDE8F08300
:1037F00000909A49192301222046FFF787FE0028EE
:10380000F1D194F83C30012BEDD02168012384F8EC
:103810003C300B68DB075EBF0B6843F001030B60B5
:103820000B6823F400630B60222384F83D301023DF
:1038300084F83E3000232364A4F82A80638D238516
:10384000874BE362E36A0A68C4F8249042F480621A
:10385000082B0A6004D0012B02D013F5803F04D15D
:103860000B6843F480730B6002E0236B112BF7D0DD
:103870003B46009500224FF001112046FFF746FE1F
:10388000236838B11B68DD0544BF4FF4007323641F
:103890000126A9E72269B2F5804F27D146F001063B
:1038A000F6B21E616F492B463A462046FFF76EFE80
:1038B00006460028ECD1238D2168002B4BD10390C4
:1038C0004B6903938B690393039B0B6843F4007369
:1038D0000B60DFF89881238D002B64D1202284F8BF
:1038E0003D2084F83C3084F83E307DE74FEAE6180E
:1038F00008F0060848F0F0021A615B492B463A4688
:103900002046FFF743FE0028C2D123685549F6B28E
:103910001E613A462B462046FFF738FE0246002835
:10392000B6D123680790596907919969079107995A
:10393000196841F480711960204600953B464FF0AC
:103940000111FFF7E3FD226808B113689BE748F017
:10395000F1031361A6E7012B0AD10B6823F48063FE
:103960000B6004904B6904938B690493049BACE750
:10397000022B0B680DD123F480630B600B6843F4BA
:1039800000630B6005904B6905938B690593059B5C
:103990009FE743F480630B6006904B6906938B6945
:1039A0000693069B95E7032B62D8012B16D12A4676
:1039B00039462046FFF72CFE00287FF469AF2368C4
:1039C0001A69636A1A70636A01336362238D013B6B
:1039D0002385638D013B9BB263857CE7022B0095B9
:1039E0003B464FF00002414620461AD1FFF78EFDBC
:1039F00000287FF44DAF23681A6842F400721A6001
:103A00001A69636A1A70626A531C6362238D013BF0
:103A10002385638D013B9BB2638523681B695370CB
:103A2000D1E7FFF773FD024600287FF431AF23682A
:103A3000196821F4806119601969636A1970636AF1
:103A400001336362238D013B2385638D013B9BB270
:103A50006385414600953B462046C7E702001000BB
:103A60000000FFFF02000100080001000400010047
:103A70002A4639462046FFF7CBFD00287FF408AFE1
:103A800023681A69636A1A70628D616A013A92B298
:103A90004B1C628522686362238D5069013B9BB297
:103AA000400723857FF517AF032B02BF136823F46C
:103AB0008063136013694B7085E700BF2DE9F34104
:103AC000044640B30368DE0710D423689D075BD427
:103AD0002368190700F19D8023685A0700F1BD8013
:103AE000A369002B40F0248100202CE08D4B9A68C4
:103AF00002F00C02042A07D09A6802F00C02082A8D
:103B00000BD15B68590208D5864B1B689A03DCD53C
:103B10006368002BD9D1012015E06368814DB3F5AE
:103B2000803F13D12B6843F480332B60FFF7A2F959
:103B30007C4E054633689B03C7D4FFF79BF9401BB7
:103B40006428F7D9032002B0BDE8F081B3F5A02FB7
:103B500004D12B6843F480232B60E3E72A6822F426
:103B600080322A602A6822F480222A60002BDDD16C
:103B7000FFF780F906462B689F03A6D5FFF77AF971
:103B8000801B6428F7D9DDE7664B9A6812F00C0FAA
:103B900007D09A6802F00C02082A11D15B685D0216
:103BA0000ED4604A1368990702D5E368012BB2D19D
:103BB0001368216923F0F80343EAC103136087E720
:103BC000E268594BB2B101221A60FFF753F9554D23
:103BD00006462B689B0707D52B68226923F0F8035C
:103BE00043EAC2032B6073E7FFF744F9801B022806
:103BF000EFD9A7E71A60FFF73DF94A4E054633684B
:103C00009F077FF565AFFFF735F9401B0228F6D90E
:103C100098E76269444B82B10122C3F8802EFFF716
:103C200029F9404E0546736F9B073FF555AFFFF7E7
:103C300021F9401B0228F6D984E7C3F8802EFFF74C
:103C400019F9384E0546736F9F077FF545AFFFF7AB
:103C500011F9401B0228F6D974E7324B1A6C12F0A6
:103C6000805228D101921A6C42F080521A641B6C67
:103C700003F080530193019B01272C4D2B68D8053D
:103C80001BD5A368274D012B27D12B6F43F00103D0
:103C90002B67FFF7EFF8234E054641F28838336F64
:103CA0009A0739D5002F3FF41BAF1E4A136C23F03F
:103CB0008053136414E70027DFE72B6843F4807315
:103CC0002B60FFF7D7F806462B68D905D9D4FFF744
:103CD000D1F8801B0228F7D934E7052B04D12B6FCC
:103CE00043F004032B67D0E72A6F22F001022A6712
:103CF0002A6F22F004022A67002BCAD1FFF7BAF814
:103D000041F2883806462B6F9B07CBD5FFF7B2F8F8
:103D1000801B4045F7D915E7FFF7ACF8401B40453D
:103D2000BDD90FE700380240000047420070004054
:103D3000374DAA6802F00C02082A3ED0022B354B00
:103D40004FF000021A662BD1FFF794F806462B6855
:103D500099011FD4D4E907321343626A43EA8213FC
:103D6000E26A43EA0263A26A5208013A43EA024362
:103D70006B60284B264D01221A66FFF77BF804463C
:103D80002B689A013FF5B0AEFFF774F8001B0228CC
:103D9000F6D9D7E6FFF76EF8801B0228D7D9D1E60F
:103DA000FFF768F804462B689B017FF59DAEFFF78F
:103DB00061F8001B0228F6D9C4E6012B3FF4ABAE34
:103DC0006B68E26903F4800191427FF4A4AE216A3A
:103DD00003F03F028A427FF49EAE616A47F6C072EA
:103DE0001A40B2EB811F7FF496AEA26A520803F428
:103DF0004031013AB1EB024F7FF48DAEE26A03F03D
:103E00007063B3EB026F14BF012000209BE600BF7C
:103E10000038024000004742134908B58B6803F0A0
:103E20000C03042B1CD0082B1CD14A684B68496832
:103E300013F4800314BF0D480D48C1F3881118BF57
:103E4000002302F03F02A1FB0001FCF769FA064BD8
:103E50005B68C3F3014301335B00B0FBF3F008BDC3
:103E60000248FCE70248FAE70038024000127A00F4
:103E70000024F4002DE9F0410D46044610B901205C
:103E8000BDE8F081434B1A6802F007028A4228D34A
:103E900021688F072DD4C80740D43E4B1A6802F022
:103EA0000702AA4265D8226851076BD4130707D5C9
:103EB000394A2169936823F4604343EAC10393605C
:103EC000FFF7AAFF344B354A9B68C3F30313D35C57
:103ED000D840334B1860334B1868FEF781FF002041
:103EE000CEE7CAB21A701B6803F007038B42C6D133
:103EF000CEE7294B11F0040F1EBF9A6842F4E0523E
:103F00009A600E0742BF9A6842F460429A609A68CB
:103F1000A06822F0F00202439A60BCE762681E4B80
:103F2000012A1CD11B6813F4003FA8D01A4EB368B5
:103F300023F003031343B360FEF79CFF41F288387C
:103F40000746B368626803F00C03B3EB820FA4D09A
:103F5000FEF790FFC01B4045F3D9032090E7911E68
:103F600001291B6802D813F0007FDEE713F0020F6F
:103F7000DBE7EAB21A701B6803F00703AB427FF479
:103F80007EAF90E70449E0688B6823F4E053034375
:103F90008B608BE7003C0240003802404C2A03084B
:103FA000140000201C000020044B054A9B68C3F34A
:103FB0008223D35C034A1068D8407047003802401F
:103FC000442A030814000020044B054A9B68C3F3ED
:103FD0004233D35C034A1068D8407047003802402F
:103FE000442A03081400002082B000230093134BDE
:103FF00045F6C0521B68B3FBF2F3642253430193AE
:104000000368019A9AB9426D42F0400242651A680B
:1040100022F040021A605A6822F0E0025A60DB681F
:104020000093009B072380F8513002B07047019A3B
:10403000013A01929A689207E3D5E8E7140000205C
:1040400003685A6822F080025A601A6822F040021F
:104050001A60072380F85130704700002DE9F347BC
:104060001F46894690460446FEF704FF0A9D3D44DC
:104070002D1AFEF7FFFE264B1E68C6F3CB366E43A5
:10408000824601962268936839EA03030CBF012334
:104090000023434501D100202EE07B1CF3D0FEF726
:1040A000E9FEA0EB0A00A84229D323685A6822F04F
:1040B000E0025A606268B2F5827F0AD1A268B2F566
:1040C000004F02D0B2F5806F03D11A6822F040028F
:1040D0001A60A26AB2F5005F07D11A6822F4005292
:1040E0001A601A6842F400521A60012384F85130B1
:1040F000002384F85030032002B0BDE8F087019B14
:104100001BB1019B013B0193BCE71D46BAE700BF11
:1041100014000020F0B585B00B4600920E461746FD
:10412000022101220446FFF799FF054628B1636D7D
:1041300043F020036365032515E0124B1868124B0A
:10414000B0FBF3F04FF47A73584363680390B3F510
:10415000827F0BD1009733462A4680212046FFF705
:104160007DFF0028E3D1284605B0F0BD039B002B5E
:10417000F9D0039B013B039323689B681B06F5D48E
:10418000F1E700BF1400002000366E0137B50B4682
:104190004168B1F5827F044608D0009201210022D7
:1041A000FFF75CFFD0B9002003B030BD8168B1F5E6
:1041B000004F02D0B1F5806F07D125682868B1F5AE
:1041C000806F20F04000286004D0009280210022FF
:1041D0002046E5E7009201210022F9E7636D43F0F4
:1041E000200363650320DFE710B50446002855D09F
:1041F000436A002B4ED14268B2F5827F00D0C36182
:104200000023A36294F8513003F0FF0223B984F82D
:1042100050202046FDF7D2FF2168A068A269022342
:1042200084F851300B6823F040030B60636800F49E
:10423000044003F482730343E06800F40060034326
:10424000206900F002000343606900F001000343AD
:1042500002F400700343E06900F038000343206A71
:1042600000F080000343A06A00F4005003430B6099
:10427000636A120C03F0100302F004021A434A604E
:10428000CB6923F40063CB6100200123606584F8CF
:10429000513010BD0023C0E90433B1E70120F8E735
:1042A0002DE9F74304461F460D469046FEF7E2FD12
:1042B00094F85130012B8146D8B240F09F80002DF8
:1042C00074D0B8F1000F71D094F85030012B00F089
:1042D0009580032384F8513000236365C4E91033CB
:1042E000A4F83680A363A387E387A368266884F8CD
:1042F0005000B3F5004F2563A4F8348007D133682C
:1043000023F040033360336843F480433360336801
:10431000E2685B065EBF336843F040033360B2F58A
:10432000006F636845D113B1B8F1010F07D135F8BB
:10433000023BF3602563E38E013B9BB2E386E38E91
:104340009BB2D3B94A4639462046FFF7E3FE002820
:1043500051D1A36833B901932368DA6801929B684D
:104360000193019B012384F85130606D0023C01A32
:1043700084F8503018BF012018E02268936898072D
:1043800005D5236B33F8021BD1602363D3E7FEF717
:1043900071FDA0EB0900B842D1D3791CCFD0012325
:1043A00084F85130002384F85030032003B0BDE876
:1043B000F08313B1B8F1010F08D12B783373236B5D
:1043C00001332363E38E013B9BB2E386E38E9BB212
:1043D000002BB7D023689A68920703D5226B127816
:1043E0001A73ECE7FEF746FDA0EB0900B842EDD3E7
:1043F0007B1CEBD0D3E720236365AAE70220D5E737
:104400002DE9F74304460D4691461E46DDF8288007
:10441000FEF730FD94F851306268012B0746D9B29F
:104420000AD0B2F5827F40F0E580A368002B40F00F
:10443000E180042940F0DE80002D4BD0B9F1000F5F
:1044400048D0002E46D094F85030012B00F0D28096
:10445000012384F8503094F85130C4F83890042B7C
:104460001CBF052384F8513000236365C4E9103371
:104470002368E687E6861968A687490658BF196843
:10448000256358BF41F04001A68658BF1960E16816
:10449000B1F5006F55D10AB1012E07D135F8022BC5
:1044A000DA60E38E2563013B9BB2E3860125E38E50
:1044B0009BB28BB9E38F9BB273B93A464146204613
:1044C000FFF728FE002800F0818020236365002389
:1044D00084F85030012031E021688B689A070DD5AF
:1044E000E38E9BB253B145B1236B33F8022BCA6004
:1044F0002363E38E013B9BB2E38600258A6812F0BA
:1045000001020CD0E38F9BB24BB1A36BC96823F8B7
:10451000021BA363E38F013B9BB2E3871546FEF7C3
:10452000A9FCC01B4045C2D3B8F1FF3FBFD0012357
:1045300084F85130002384F85030032003B0BDE8E4
:10454000F0830AB1012E08D12A781A73236B013344
:104550002363E38E013B9BB2E38601252DE02268B5
:1045600093689B070ED5E38E9BB25BB14DB1236B75
:104570001B781373236B01332363E38E013B9BB2E0
:10458000E38600252268916811F001010DD0E38FC8
:104590009BB253B1A36BD2681A70A36B0133A363B0
:1045A000E38F013B9BB2E3870D46FEF763FCC01B24
:1045B000404502D3B8F1FF3FB9D1E38E9BB2002B47
:1045C000CDD1E38F9BB2002BC9D176E7A36833B975
:1045D00001932368DA6801929B680193019B012390
:1045E00084F85130606D0023C01A84F8503018BF31
:1045F0000120A3E70220A1E72DE9F7431E4690F82A
:104600005130012B044689461746DDB204D00225FD
:10461000284603B0BDE8F0830029F9D0002AF7D07E
:104620004368B3F5827F0BD183684BB9042380F8CC
:104630005130134600960A46FFF7E2FE0546E7E7CB
:10464000FEF718FC94F85030012B8046DFD0A268AA
:10465000C4F838900123002584F85030B2F5004F9B
:104660004FF0040384F85130C4E9105565652368A0
:10467000E787A7872563A586E58607D11A6822F014
:1046800040021A601A6822F480421A601A685506BD
:104690005EBF1A6842F040021A60E368F3B1E38F2C
:1046A0009BB2FBB123689A68D2073CD5DA68A36B4A
:1046B00023F8022BA363E38F013B9BB2E387EEE772
:1046C00023689A68D0071ED5A26B1B7B1370A36B5F
:1046D0000133A363E38F013B9BB2E387E38F9BB27C
:1046E000002BEDD1424631462046FFF74FFD18BB67
:1046F000012384F85130656D0023ED1A84F85030A1
:1047000018BF012584E7FEF7B5FBA0EB0800B04217
:10471000E4D3711CE2D0012384F85130002384F8E3
:104720005030032574E7FEF7A5FBA0EB0800B0426C
:10473000B5D3731CB3D0EEE720236365D8E7000040
:1047400070B590F85130012B0446DDB250D10029EC
:1047500036D0002A34D090F85030012B48D00323B3
:1047600080F8513000234365C0E91033C28683636B
:104770008387C38783688286B3F5004F026880F819
:104780005050016307D1136823F04003136013688E
:1047900043F480431360A06C164B0364164BC36351
:1047A000164BC364E38E002606659BB20C32FEF7FF
:1047B00085FC38B1636D84F8506043F01003636585
:1047C000284670BD23681A68520658BF1A684FF011
:1047D00000055CBF42F040021A6084F850505A68ED
:1047E00042F020025A605A6842F002025A60E7E73B
:1047F0000225E5E7274B00086B4B0008494B0008F2
:1048000070B5044690F8510066680128C5B207D01B
:10481000B6F5827F71D1A06800286ED1042D6CD1CD
:1048200000293CD0002A3AD0002B38D094F8500010
:10483000012862D0012084F8500094F85100A3862A
:10484000042818BF05204FF0000618BF84F8510057
:104850006665E386E387A38794F85130284D21638A
:10486000042B284BE06C2849A26318BF1946274B3C
:1048700018BF2B46C4E91066C0E90F31244B2168EC
:10488000C0E91336E38F0C319BB2FEF717FC0546E7
:1048900038B1636D84F8506043F010036365012004
:1048A00070BD2268A06C5368216B43F00103536014
:1048B000E38EC0E90F55C0E913559BB20C32FEF7E9
:1048C000FDFB30B1636D84F8505043F01003636515
:1048D000E5E723681A6852065EBF1A6842F0400294
:1048E0001A60002284F850205A6842F020025A6070
:1048F0005A6842F002025A60D2E70220D0E700BFB5
:104900003B4C00083F4B0008334B0008D54B0008D8
:10491000494B00082DE9F041134690F85120012A37
:1049200004460E46D5B260D1002945D0002B43D0B5
:1049300087685FB94268B2F5827F07D1042280F8A8
:104940005120BDE8F0410A46FFF75ABF94F85020C5
:10495000012A4AD0012284F85020042284F85120F0
:10496000B7F5004F4FF000026265C4E91022E387FB
:104970002168A663A387A286E28607D10B6823F08D
:1049800040030B600B6823F480430B60E06C184B12
:104990000364184BC363184BC364E38F0027076598
:1049A0009BB232460C31FEF789FB40B1636D84F84F
:1049B000507043F0100363652846BDE8F08123681A
:1049C0001A68520658BF1A684FF000055CBF42F0E3
:1049D00040021A6084F850505A6842F020025A602F
:1049E0005A6842F001025A60E6E70225E4E700BF98
:1049F000334B0008D54B0008494B00081FB5464B08
:104A000045F6C0521B68B3FBF2F364225343019393
:104A1000019B009303685A6822F020025A605A688A
:104A2000120604460AD53D4A4264009A002A5CD127
:104A3000626D42F040026265019A00925A68500627
:104A40000AD5374A2264009A002A56D1626D42F094
:104A500040026265019A00925B68990714D5A06CC8
:104A600090B100230365FEF762FB08B14023636544
:104A700023685A6822F002025A60009A002A44D140
:104A8000636D43F04003636523685B68DB0711D502
:104A9000E06C78B100230365FEF749FB08B14023C1
:104AA000636523681A6822F040021A605A6822F08F
:104AB00001025A600023E387E386626D402A226880
:104AC00018BF63650293D1680291916802910299BF
:104AD000039318BF184693680393039B08BF0120F4
:104AE000012384F8513004B010BD009A013A0092BD
:104AF00094F85120072A98D19EE7009A013A009233
:104B000094F85120072A9ED1A4E7009A013A009216
:104B10009A689207B1D5B7E7140000204140000819
:104B2000E93F0008704708B5806BFFF7FBFF08BD41
:104B3000704708B5806BFFF7FBFF08BD704708B5ED
:104B4000806BFFF7FBFF08BD806B026808B55368F8
:104B500023F003035360436D43F0100343650123C7
:104B600080F85130FEF710F908BD37B50546846B63
:104B7000FEF780F92B681B68DB05024626D4236804
:104B8000596821F020015960596821F002015960EB
:104B900020466421FFF7BEFA18B1636D43F020038D
:104BA0006365A36833B901932368DA6801929B684F
:104BB0000193019B0023E386012384F85130636D48
:104BC00023B12046FEF7E0F803B030BD2046FBF7E6
:104BD0009BFFF9E738B50546846BFEF74BF92B6868
:104BE0001B68DB05024624D42368596821F02001A4
:104BF0005960A168C9B96168B1F5827F15D159685A
:104C000021F00301596020466421FFF7BFFA08B183
:104C1000202363650023E387012384F85130636D0B
:104C20003BB12046FEF7B0F838BD596821F00101CC
:104C3000E8E72046FEF79CF8F6E738B50546846BB2
:104C4000FEF718F92B681B68DB0502461ED42168A5
:104C50004B6823F020034B6020466421FFF75AFA8B
:104C600018B1636D43F0200363652268536823F035
:104C7000030353600023E386E387012384F8513064
:104C8000636D1BB12046FEF77FF838BD2046FEF766
:104C900079F8FAE790F8510070470000036A026A59
:104CA00022F0010270B50262446882690D6822F048
:104CB00073022A438D6823F002032B430A4DA84256
:104CC0000BD1CD6823F008032B43D1E9055624F41A
:104CD0004074354323F004032C43446082614A68E6
:104CE0004263036270BD00BF00000140036A026AB4
:104CF00022F4807270B502624468C2690D6822F0C5
:104D000073022A438D6823F4007343EA05230B4D95
:104D1000A8420DD1CD6823F4006343EA0523D1E90D
:104D2000055624F44054354323F4806344EA0514C3
:104D30004460C2614A68C263036270BD0000014002
:104D4000036A026A22F4805230B502624468C26982
:104D50000D6822F4E64242EA05228D6823F40053EE
:104D600043EA0533064DA84202BF4D6924F480444E
:104D700044EA85144460C2614A680264036230BD3B
:104D80000000014090F83D30012B28D1022380F82B
:104D90003D300368DA6842F00102DA60114A93425A
:104DA00012D0B3F1804F0FD0A2F57C4293420BD0CA
:104DB00002F58062934207D002F58062934203D0ED
:104DC00002F59A32934204D19A6802F00702062A49
:104DD00003D01A6842F001021A60002070470120D7
:104DE000704700BF00000140704770477047704730
:104DF000036870B5DD681E69B10704460DD5AA07C2
:104E00000BD56FF002021A61012202779B699B07A2
:104E100069D0FFF7EAFF00232377710710D56A07EF
:104E20000ED523686FF004021A61022222779B6973
:104E300013F4407F20465CD0FFF7D7FF0023237791
:104E400033070FD528070DD523686FF008021A61C4
:104E500004222277DB699907204650D0FFF7C5FF6F
:104E600000232377F20610D5EB060ED523686FF0EA
:104E700010021A6108222277DB6913F4407F204672
:104E800043D0FFF7B2FF00232377F00708D5E907E7
:104E900006D523686FF001021A612046FDF758FB22
:104EA000320608D52B0606D523686FF080021A61FA
:104EB000204600F010FA700608D5690606D523686A
:104EC0006FF040021A612046FFF791FFB20622D52B
:104ED000AB0620D523686FF0200220461A61BDE89A
:104EE000704000F0F7B9FFF77FFF2046FFF77EFF25
:104EF00091E7FFF779FF2046FFF778FF9EE7FFF77E
:104F000073FF2046FFF772FFAAE7FFF76DFF204609
:104F1000FFF76CFFB7E770BD1D4A036890420ED0E3
:104F2000B0F1804F0BD0A2F57C42904207D002F541
:104F30008062904203D002F58062904208D14A68B4
:104F400023F070031343CA6823F4407313430AE049
:104F5000104A9042F7D002F580629042F3D002F5F9
:104F600080629042EFD04A6923F0800313438A683D
:104F7000C2620A688262064A904204BF0A690263FA
:104F8000026842F00402026001224261036070473D
:104F9000000001400040014010B5044630B390F8D5
:104FA0003D3003F0FF021BB980F83C20FDF70AFA00
:104FB0000223206884F83D30211DFFF7ADFF012357
:104FC00084F84630002084F83E3084F83F3084F87E
:104FD000403084F8413084F8423084F8433084F81B
:104FE000443084F8453084F83D3010BD0120FCE7A2
:104FF00010B5044630B390F83D3003F0FF021BB902
:1050000080F83C20FDF7BCF90223206884F83D308D
:10501000211DFFF781FF012384F84630002084F82A
:105020003E3084F83F3084F8403084F8413084F8D2
:10503000423084F8433084F8443084F8453084F8B2
:105040003D3010BD0120FCE7036A026A22F0100225
:1050500070B50262446882690D6822F4E64242EA51
:1050600005228D6823F0200343EA05130B4DA84267
:105070000DD1CD6823F0800343EA0513D1E905562D
:1050800024F44064354323F0400344EA850444603B
:1050900082614A688263036270BD00BF0000014004
:1050A00038B590F83C30012B04464FD00120082A37
:1050B00084F83C003AD006D8BAB1042A26D000239E
:1050C00084F83C3038BD0C2AF9D12068FFF738FE4F
:1050D000C3690A6943F40063C361C36923F480634D
:1050E000C361C36943EA02232EE02068FFF7D6FDBF
:1050F00083690A6943F008038361836923F0040329
:1051000083618369134383610020D8E72068FFF738
:105110009BFF83690A6943F400638361836923F415
:1051200080638361836943EA0223ECE72068FFF729
:10513000DDFDC3690A6943F00803C361C36923F055
:105140000403C361C3691343C361DDE70220B9E708
:10515000036A10B501F01F0101248C4023EA040307
:105160000362036A8A401A43026210BD08B529B976
:1051700090F83E30012B1DD001202EE0042907D1EC
:1051800090F83F30012BF7D1022380F83F3014E034
:10519000082907D190F84030012BEDD1022380F887
:1051A00040300AE090F84130012BE5D1022380F82D
:1051B000413002E0022380F83E3000680122FFF710
:1051C000C7FF134B984209D0B0F1804F0BD18368D1
:1051D00003F00703062B15D1002008BD436C43F4F0
:1051E00000434364F3E70B4B9842F0D003F5806330
:1051F0009842ECD003F580639842E8D003F59A33E7
:105200009842E4D0036843F001030360E4E700BF81
:105210000000014000040040FFF7A8BF30B590F83F
:105220003C30012B02464FF002002AD0136882F86E
:105230003D005C680D68986824F070042C435C6045
:10524000104CA34212D0B3F1804F0FD0A4F57C4490
:10525000A3420BD004F58064A34207D004F5806418
:10526000A34203D004F59A34A34204D1496820F044
:105270008000014399600123002082F83D3082F8CC
:105280003C0030BD0000014090F83C30012B02464C
:105290001ED0CB68886823F440730343486823F426
:1052A00080630343086823F400630343086923F41D
:1052B000805303434869C96923F40053034323F42B
:1052C00080430B43116800204B6482F83C00704718
:1052D0000220704770477047026802F10C0353E8E0
:1052E000003F23F490730C3242E800310268002939
:1052F000F2D102F1140353E8003F23F0010302F15D
:10530000140C4CE800310029F3D1036B012B0BD1B5
:1053100002F10C0353E8003F23F0100302F10C0CE0
:105320004CE800310029F3D1202380F842300023DB
:10533000036370470268C16838B5136923F44053AA
:105340000B431361054683680069D16803436869AC
:105350000343E86921F4164121F00C0103430B4398
:10536000D3605369A96923F440730B4353611F4B06
:105370009A4203D003F580639A4224D1FEF724FEBB
:10538000EA691921B2F5004FD5E90043A0FB0101FC
:105390001CD1DA184FF0000545EB0503FAF7C0FF02
:1053A0006422B0FBF2F102FB1103DB003233B3FBEA
:1053B000F2F303F007025B0002EB011203F4F8734F
:1053C0001344A36038BDFEF7EFFDD9E79A009B0FA9
:1053D000FAF7A6FF6422B0FBF2F102FB11031B01F6
:1053E0003233B3FBF2F303EB0113EAE700100140A1
:1053F000F7B505460C4617461E462A68136834EA78
:10540000030301D1002021E0701CF7D0FDF732FD2D
:10541000C01B86421CD3DEB12B68DA685107ECD57D
:10542000802CEAD0402CE8D01A681207E5D5002479
:1054300001941A6801925B6801932846019BFFF76B
:105440004BFF08236B6485F84040012003B0F0BD9A
:105450000320FBE710B5044648B390F8413003F051
:10546000FF021BB980F84020FCF7FAFF22682423D2
:1054700084F84130D36823F40053D3602046FFF70B
:1054800059FF23681A6922F490421A615A6922F07E
:105490002A025A61DA6842F40052DA6000202023BE
:1054A000606484F8413084F84230606310BD0120AC
:1054B000FCE72DE9F843984690F84130202B04464C
:1054C0000E4617463FD100293FD0002A3DD0212368
:1054D0000025456480F84130FDF7CCFCA368A78423
:1054E000B3F5805F8146E78403D123690BB9354664
:1054F0001E46E38C9BB253B943464A4640212046A0
:10550000FFF776FF202350B984F841300AE0434684
:105510004A4680212046FFF76BFF28B1202384F8FC
:1055200041300320BDE8F88322684EB935F8023BCC
:10553000C3F308035360E18C013989B2E184D8E7F1
:1055400016F8013BF6E70220ECE70120EAE72DE937
:10555000F8431F4690F84230202B04460E469146F1
:1055600048D1002948D0002A46D02223002545648E
:1055700080F842300563FDF77DFCA368A4F82C9009
:10558000B3F5805F8046A4F82E9003D123690BB950
:1055900035461E46E08D80B218B9202384F842308B
:1055A0000AE03B46424620212046FFF721FF28B172
:1055B000202384F842300320BDE8F88323684EB9E5
:1055C0005B68C3F3080325F8023BE38D013B9BB204
:1055D000E385DFE7A268B2F5805F02D032B92269C5
:1055E00022B95968C9B206F8011BEEE7596801F003
:1055F0007F01F8E70220DFE70120DDE710B5044670
:10560000226802F10C0353E8003F23F4F0730C32DC
:1056100042E8003123680029F2D103F1140252E874
:10562000002F22F0010203F1140040E800210029BC
:10563000F3D1226B012A0BD103F10C0252E8002FA7
:1056400022F0100203F10C0040E800210029F3D100
:105650005A6912061AD503F1140252E8002F22F0FB
:10566000800203F1140040E800210029F3D1A06B6F
:1056700060B10165FDF75BFD40B1A06BFDF766FE13
:10568000202803D110236364032010BD22685369CE
:105690005B0616D502F1140353E8003F23F04003E4
:1056A00002F1140040E800310029F3D1E06B40B171
:1056B0000165FDF73CFD20B1E06BFDF747FE2028BA
:1056C000E0D000202023E084E085606484F842304C
:1056D00084F841302063D8E710B50446226802F10F
:1056E0000C0353E8003F23F490730C3242E800317E
:1056F00023680029F2D103F1140252E8002F22F0AE
:10570000010203F1140040E800210029F3D1226BCB
:10571000012A0BD103F10C0252E8002F22F01002F3
:1057200003F10C0040E800210029F3D15A69520628
:105730001AD503F1140252E8002F22F0400203F1BF
:10574000140040E800210029F3D1E06B60B101654D
:10575000FDF7EDFC40B1E06BFDF7F8FD202803D12B
:1057600010236364032010BD00202023E08584F80B
:1057700042302063F7E7704708B5806B0023C3858C
:10578000FCF7C5F908BD704790F84230222B07B5E9
:1057900042D181680268836AB1F5805F3FD10169B7
:1057A00000293FD15268C2F3080223F8022B83621A
:1057B000C38D013B9BB2C385002B2DD10268D168FC
:1057C00021F02001D160D16821F48071D16051694C
:1057D00021F001015161202280F842204363026BD5
:1057E000012A026828D1036302F10C0353E8003F49
:1057F00023F0100302F10C0C4CE800310029F3D126
:105800001368DB0605D50191136801935368019372
:10581000019B818DFFF7B7FF03B05DF804FB39B939
:10582000016929B95268D2B21A70836A0133BEE79E
:10583000526802F07F02F7E7FCF768F9ECE7000036
:1058400003681A6873B51607D9685D69044608D1FC
:10585000960668D58D0666D502B0BDE87040FFF7A4
:1058600093BF05F0010001F4907505435BD0D607A6
:1058700005D5CD0542BF636C43F001036364530754
:1058800004D518B1636C43F002036364960704D532
:1058900018B1636C43F004036364150707D501F086
:1058A000200303431EBF636C43F008036364636C0F
:1058B000002B32D0920604D58B0602D52046FFF786
:1058C00063FF26687369626C03F0400302F008020C
:1058D00053EA0205204622D0FFF7FEFC73695E06FC
:1058E00018D5226802F1140353E8003F23F0400367
:1058F000143242E800310029F3D1E06B50B1774B0C
:105900000365FDF752FC40B1E06B036D02B0BDE8EA
:10591000704018472046FCF7FAF802B070BDFCF75B
:10592000F6F86564F9E7206B012840F09B80D50606
:1059300040F19880C80640F19580002201921A68D3
:1059400001925A680192019A5969A28D490656D569
:10595000E06B0168496889B2002947D0914245D27D
:10596000C269E185B2F5807F36D003F10C0252E8BE
:10597000002F22F4807203F10C0040E8002100297E
:10598000F3D103F1140252E8002F22F0010203F1D7
:10599000140040E800210029F3D103F1140252E879
:1059A000002F22F0400203F1140040E800210029FA
:1059B000F3D1202284F84220216303F10C0252E843
:1059C000002F22F0100203F10C0040E80021002912
:1059D000F3D1E06BFDF7ABFB02236363E38DA18D95
:1059E000C91A89B22046FFF7CEFE96E7914294D1BC
:1059F000C369B3F5807F90D102236363F2E7E18D41
:105A0000E08D80B289B2002887D0511A89B200296E
:105A100083D003F10C0252E8002F22F4907203F1BC
:105A20000C0545E800200028F3D103F1140252E8E8
:105A3000002F22F0010203F1140545E800200028A0
:105A4000F3D1202284F84220206303F10C0252E8B3
:105A5000002F22F0100203F10C0545E80020002879
:105A6000F3D1C9E7160628D50D0626D594F84120AE
:105A7000212A7FF452AFA168226AB1F5805F17D165
:105A80002169A9B932F8021BC1F3080159602262E9
:105A9000E28C013A92B2E284002A7FF43EAFDA68E7
:105AA00022F08002DA60DA6842F04002DA6034E71D
:105AB000511C216212785A60EAE750067FF52DAF3B
:105AC0004A067FF52AAFDA6822F04002DA60202326
:105AD00084F841302046FFF74EFE1EE77957000854
