:020000040800F2
:1000000000800120A51D0008051C0008071C000831
:10001000091C00080B1C00080D1C00080000000053
:100020000000000000000000000000000F1C00089D
:10003000111C000800000000131C0008151C00081B
:10004000F51D0008F51D0008F51D0008F51D000848
:10005000F51D0008F51D0008F51D0008F51D000838
:10006000F51D0008F51D0008F51D0008191C000805
:10007000F51D0008F51D0008F51D0008F51D000818
:10008000251C0008F51D0008F51D000800000000F3
:10009000000000000000000000000000F51D000846
:1000A000F51D0008F51D0008311C0008F51D0008AD
:1000B000F51D0008F51D0008F51D0008F51D0008D8
:1000C000F51D0008F51D0008F51D0008F51D0008C8
:1000D000F51D0008F51D0008651C00080000000063
:1000E0004D1C0008F51D0008F51D0008000000006B
:1000F000000000000000000000000000F51D0008E6
:1001000000000000F51D0008F51D0008631C000834
:1001100000000000000000000000000000000000DF
:10012000F51D0008F51D0008F51D0008711C0008EC
:10013000F51D0008000000000000000000000000A5
:10014000000000000000000000000000F51D000895
:10015000F51D0008F51D0008F51D0008F51D000837
:10016000F51D0008F51D000800000000000000005B
:10017000000000000000000000000000000000007F
:1001800000000000F51D0008000000000000000055
:04019000F51D000851
:1001A00010B5054C237833B9044B13B10448AFF3B1
:1001B00000800123237010BDF80000200000000023
:1001C0002CF1020808B5034B1BB103490348AFF3F8
:1001D000008008BD00000000FC0000202CF1020897
:1001E00001F0FF01102A2BDB10F0070F08D010F8E8
:1001F000013B013A8B422DD010F0070F42B3F6D1EC
:10020000F0B441EA012141EA014122F007047FF004
:1002100000070023F0E80256083C85EA010586EA5B
:10022000010685FA47F5A3FA87F586FA47F6A5FA97
:1002300087F68EB9EED1F0BC01F0FF0102F00702A3
:1002400032B110F8013B013A83EA010313B1F8D14E
:100250000020704701387047002D06BF354603382F
:10026000073815F0010F07D1013015F4807F02BF68
:10027000013015F4C03F0130F0BC0138704700BFB9
:100280007BB972B90029BEBF00204FF0004106E0E3
:1002900008BF00281CBF6FF000414FF0FF3000F096
:1002A000D3B9ADF1080C6DE904CE002909DB002BB0
:1002B0001ADB00F04DF8DDF804E0DDE9022304B0BC
:1002C0007047404261EB4101002B1BDB00F040F81E
:1002D000DDF804E0DDE9022304B0404261EB4101B6
:1002E000524263EB43037047524263EB430300F017
:1002F0002FF8DDF804E0DDE9022304B0404261EBB1
:1003000041017047524263EB430300F021F8DDF8EE
:1003100004E0DDE9022304B0524263EB430370477B
:1003200053B94AB9002908BF00281CBF4FF0FF315C
:100330004FF0FF3000F088B9ADF1080C6DE904CE44
:1003400000F006F8DDF804E0DDE9022304B07047B0
:100350002DE9F047089D8E4604468846002B4AD179
:100360008A42174662D9B2FA82F64EB1C6F120032C
:1003700001FA06F820FA03F3B74043EA0808B4404C
:100380004FEA174E1FFA87FCB8FBFEF1230C0EFB59
:10039000118843EA084301FB0CF29A4209D9FB1881
:1003A00001F1FF3080F0EA809A4240F2E7800239A2
:1003B0003B449A1AA3B2B2FBFEF00EFB102243EAB2
:1003C000024300FB0CFC9C4509D9FB1800F1FF32ED
:1003D00080F0D6809C4540F2D3803B44023840EA0E
:1003E0000140A3EB0C0300211DB1F3400022C5E93D
:1003F0000032BDE8F0878B4205D90DB1C5E9000197
:1004000000210846F5E7B3FA83F1002946D1734588
:1004100002D3824200F20581841A6EEB03020120AE
:100420009046002DE5D0C5E90048E2E7002A00F03B
:100430009080B2FA82F6002E40F0A4808A1A030C53
:100440004FEA174E80B2BCB20121B2FBFEFC0EFB9C
:100450001C2243EA024304FB0CF29A4207D9FB1820
:100460000CF1FF3802D29A4200F2E080C4469B1A97
:10047000B3FBFEF20EFB123340EA034302FB04F42B
:100480009C4207D9FB1802F1FF3002D29C4200F2D5
:10049000CA8002461B1B42EA0C40A5E7C1F12006B8
:1004A0008B4022FA06F71F430EFA01F420FA06F3F6
:1004B0002EFA06FE4FEA1749234300FA01F81FFA05
:1004C00087FCBEFBF9F01C0C09FB10EE44EA0E445D
:1004D00000FB0CFEA64502FA01F209D93C1900F115
:1004E000FF3A80F09C80A64540F2998002383C4457
:1004F000A4EB0E041FFA83FEB4FBF9F309FB1344CB
:100500004EEA044403FB0CFCA44508D93C1903F152
:10051000FF3E80F08280A4457FD9023B3C4443EA01
:100520000040A4EB0C04A0FB02EC64457346E146DA
:1005300062D35FD05DB1B8EB030264EB090404FA47
:1005400006F622FA01F31E43CC40C5E900640021FF
:100550004FE7B1FBF2FC010C41EA0E4180B240EAE8
:1005600001423B4638463C46B846BE462026B1FBD3
:10057000F7F1A2EB080241EA0C4166E7014618E7F1
:1005800010462CE7C6F120022EFA02F3B740B14024
:1005900020FA02F24FEA174E0A43B3FBFEF8BCB250
:1005A0000EFB1833110C41EA034108FB04F9B0407B
:1005B00089454FEA104380B23ED9791808F1FF3CD3
:1005C00001D289451FD8A1EB0901B1FBFEF909FB56
:1005D00004F80EFB191192B242EA0142424529D2B7
:1005E000BA1809F1FF31C4D24245C2D2A9F10201C1
:1005F0003A44BEE7F0459DD2BEEB02036CEB070C1C
:100600000138E14696E7A7EB09094944A8F1020C35
:10061000B1FBFEF909FB04F8DBE773467FE75046C0
:1006200066E70846FDE63B44023A33E7ACF1020CCC
:100630003B441CE749469CE7A1EB0901C446B1FBDA
:10064000FEF909FB04F8C4E7704700BF7047704724
:1006500070470000054A4FF6FF731380044A138069
:10066000044A1380044A1380704700BF0A00002028
:1006700008000020060000200400002037B51546C1
:100680008DF80700002215480C464FF4007101F068
:100690002FFF134800224FF4806101F029FF114819
:1006A0004FF0FF3301220DF1070102F0C3FD6DB1E0
:1006B00064B10B4801224FF4806101F019FF094831
:1006C0004FF0FF33AAB2214602F0B4FD03480122E5
:1006D0004FF4007101F00CFF03B030BD0000024088
:1006E00000040240F453002000221146FFF7C6BF69
:1006F0002DE9F743DFF87890DFF878801C46B9F8E9
:100700000030834207460D46164603D1B8F8003044
:1007100093420FD07BBA0422ADF804300DEB0201F6
:1007200073BA2A20ADF80630FFF7A8FFA9F80070C9
:10073000A8F800600C4F0D4E3B88AB4202D13388C5
:10074000A3420DD06BBA0422ADF804300DEB0201C8
:1007500063BA2B20ADF80630FFF790FF3D80348060
:10076000012003B0BDE8F083060000200400002053
:100770000A0000200800002008B52920FFF7B4FF78
:10078000BDE808400A2001F087BB000010B5112029
:1007900086B0FFF7A9FF782001F07EFB662302A94F
:1007A00001223A208DF80830FFF768FFE82302A9FC
:1007B000012236208DF80830FFF760FF2120FFF777
:1007C00093FF002402A90122B0208DF80840FFF712
:1007D00055FF4FF48D5302A90222B120ADF8083025
:1007E000FFF74CFF40F20223ADF8083002A93B238B
:1007F0000322B6208DF80A30FFF740FF41F215734F
:1008000002A90222C020ADF80830FFF737FF4123CC
:100810000DF107010122C1208DF80730FFF72EFFEF
:100820004FF49053ADF8083002A980230322C5206D
:100830008DF80A30FFF722FF0DF107010122E920B0
:100840008DF80740FFF71AFF164B029302A9042206
:10085000F720FFF713FF144A144B0F24CDE90223AE
:10086000134B0493224641F6162302A9E020ADF86B
:1008700014308DF81640FFF701FF0E490E4B8DF82E
:100880001640CDE902130D4B0493224643F2357313
:1008900002A9E120ADF81430FFF7F0FEFFF7DAFE11
:1008A00006B010BDA9512C8200030908160A3F7832
:1008B0004C090A08001619030F05324546040E0DAF
:1008C00073B52C238DF80730294B1C7804F0FF03F7
:1008D000002C4BD1274C20700133B3F5F07F6170B1
:1008E000A27004F10304F6D10021FFF7B3FE08461D
:1008F00040F23F1340F2DF12FFF7FAFEB0B31E489A
:1009000000224FF4007101F0F3FD1C4800224FF467
:10091000806101F0EDFD1A484FF0FF3301220DF127
:10092000070102F087FCC8B900F1804001224FF4B2
:10093000806100F5013001F0DBFD0E4D104E4FF4EB
:10094000A0744FF0FF334FF4B4622946304602F0F2
:1009500071FC18B9013CA4B2002CF2D10122064866
:100960004FF4007101F0C4FDFFF774FE02B070BDDA
:10097000B451002014010020000002400004024095
:10098000F453002010B50A4C00220221204601F049
:10099000AFFD0A2001F080FA20460122022101F079
:1009A000A7FD782001F078FABDE81040FFF752BEAD
:1009B0000000024070470000014B1878704700BFEC
:1009C000B45100202DE9F341DFF81881BDF8204033
:1009D000054608461146012288F80020002D59D00E
:1009E000002B57D0002C55D0B0F5F07F52D2B1F586
:1009F000A07F4FD2C0F5F07293424BDCC1F5A072DC
:100A0000944247DC04FB03F606EB4602B2F5964F30
:100A10004FEA46073ED8421E13449AB2824239D367
:100A20004B1E23449BB28B4234D3B2F5F07F31D2BC
:100A3000B3F5A07F2ED2FFF75BFE58B3254AE81925
:100A4000A84202F103022DD1234800224FF4007185
:100A500001F04EFD214800224FF4806101F048FD75
:100A60002C238DF807300DF107014FF0FF330122E1
:100A70001B4802F0DFFB194801224FF4806101F0AE
:100A800037FDF2191349164892B202F023FE02B064
:100A9000BDE8F081002388F8003002B0BDE8F041E5
:100AA00013F00CB935F8023B190A21F0070141EAAD
:100AB000533102F8031CD908C3F3412421F0030188
:100AC000214302F8021CC3F3820141EAC30302F886
:100AD000013CB5E7B40600200000024000040240DB
:100AE000F4530020B451002008B50268084B9A4224
:100AF0000CD1012207484FF4007101F0F9FC064BBC
:100B000000221A70BDE8084013F0D8B808BD00BF35
:100B10000030014000000240B451002008B5FFF74A
:100B20004BFF30B9044802F081FE431E5842584141
:100B300008BD0020FCE700BFF453002010B588B0CA
:100B400004462022002168462DF017FB2046694606
:100B500000F0EDF8044668B9FFF7E0FF60B1074820
:100B600020236A46214600F0DDFB002818BF05203F
:100B700008B010BD0320FBE70420F9E784F1020868
:100B800010B588B004462022002168462DF0F5FA01
:100B90009CB1FFF7C3FF90B10B4820236A460021A8
:100BA00000F08EFB68B92146684600F007F903287B
:100BB00028BF0320C0B208B010BD0320FBE704200B
:100BC000F9E70520F7E700BF84F10208F0B50F4B05
:100BD0000F4F104C104987B0012600201E7038704E
:100BE000266000F047F901A8FFF7CAFFB0420AD813
:100BF000059B3344236030B901AC0FCC064D3E70E9
:100C00000FC523682B6007B0F0BD00BFCD51002099
:100C1000CC5100200C000020B8510020F0B50F4B43
:100C20001B7887B00BB9FFF7D1FF0D4F01A93868CA
:100C300000F020F901A8FFF781FF064650B901AC8A
:100C40000FCC084D0FC523682B60074B1E703B6807
:100C500001333B60304607B0F0BD00BFCD510020EE
:100C60000C000020B8510020CC5100202DE9F043A9
:100C7000054687B0002830D0194B1B780BB9FFF719
:100C8000A5FFDFF86880174998F80020284600F093
:100C9000FCF804468146B8B1012819D1124F01AAC7
:100CA0003968284600F0D2F801A8FFF747FF04464C
:100CB00050B901AD0FCD0B4E88F800900FC62B68D0
:100CC00033603B6801333B60204607B0BDE8F083EA
:100CD00007B0BDE8F043FFF7A1BF0324F4E700BF6E
:100CE000CD510020B85100200C000020CC51002034
:100CF0000068704730B500B939B90246014441F285
:100D000021044FF6FF708A4200D130BD12F8013B3A
:100D100080EA0320082305B24000002D80B203F1D1
:100D2000FF33B8BF604013F0FF03F4D1EBE770B5B9
:100D30000C46054600283FD000293DD020263246EB
:100D4000002120462DF019FA42222B7822705322DE
:100D500062705422A2705222E27001222271A671A6
:100D600023726B88A3721B0AE372AB8823731B0A7E
:100D70006373EB88A3731B0AE373EB6823741A0A8B
:100D800062741A0C1B0EA274E3742B6923751A0A81
:100D900062751A0C1B0EA275E3756B7823762B7A9D
:100DA00063766B7AA3761E212046FFF7A3FFA07718
:100DB000000AE077002070BD0320FCE770B50D4607
:100DC000044600283CD000293AD0142200212846AD
:100DD0002DF0D3F92046FFF78BFF1B4B984231D102
:100DE000A388012B2ED1E388202B2BD11E21204656
:100DF000FFF780FFE68BB04224D1228902F0010385
:100E00002B7063896B80A189A980E189E98004F155
:100E10001000FFF76DFFE86004F11400FFF768FFB2
:100E20002861217E6970617E2972A17E697212F04B
:100E3000010F4FF0000000D00BB92870012070BDE9
:100E40000320FCE70220FAE74253545288B182B1F2
:100E500001231370437853704388538083889380B1
:100E6000C388D380037A1372437A5372C368C2E98A
:100E70000331704710B50B46044629B114220021F6
:100E800018462DF07AF9046110BD10B550B1037801
:100E900033B1437823B1448814B122B9012001E071
:100EA0005200D0B210BD0029F8D04A88A242F5D134
:100EB0008C8882889442F1D14A789A42EED10A898C
:100EC00003899A42EAD1CB68C068181A18BF01207A
:100ED000E8E70000642828BF64200F4B0A2838BFC9
:100EE0000A2018700D4B1B68A3B11A680C49D36A0D
:100EF000096803FB00006423B0FBF3F309B95363F3
:100F00007047042901D193637047082901D1D36345
:100F100070471364704700BF10000020D4510020B8
:100F2000D051002038B5094B1860094B1960094BA6
:100F3000044664200D4618703CB1FFF7CBFF2946EC
:100F40002046BDE8384002F033BF38BDD451002000
:100F5000D05100201000002008B500F097FF0C4A87
:100F6000002313700B4A10600B4A10600B4A10608C
:100F70000B4A13700B4A13800B4A13800B4A4FF431
:100F8000F57111600A4A13600A4A136008BD00BF78
:100F9000F8510020F4510020F0510020EC510020C5
:100FA000E8510020E6510020E4510020E0510020EB
:100FB000DC510020D8510020034B1A781AB90122C5
:100FC0001A70FFF7C9BF7047F9510020F8B5044601
:100FD00000F05CFF0546FFF7EFFF5448544F0378DD
:100FE000544E554983B13B7873B9544A1268AA1AD2
:100FF000B2F5FA6F06D301223A70514A03701360BA
:10100000504B1D600D600CE03A783388022AF9D10C
:101010000A680020002B36D108B133800A60FFF740
:101020009BFF3A78DFF818C14749DCF80000DFF889
:1010300014E1464F931E012B2FD90860CEF80050C3
:1010400000232370131E18BF01236370E3703388DD
:1010500023813F4B22711B886381D31E5A425A4120
:101060000323002063733B68A070236101200B6899
:101070002273E08063612076F8BD013B9BB202F5EC
:101080007A720120C6E7A5EB020CBCF57A7FF4D298
:101090000028C6D033800A60C3E7032A07D1B0F521
:1010A000FA7FA8BF4FF4FA7020EAE070C5E7DEF8D7
:1010B0000030CEF80050EB1A4FF03C0E0EFB03FE52
:1010C000BEF57A7F25DB4FF47A739EFBF3F3D7F8F6
:1010D00000E0864521DD03447345D4BFCCF80030E1
:1010E000CCF800E0DCF800309E4508D119484FF4F8
:1010F000AF73B5FBF3F303F00703C3567344B3F5C3
:10110000FA7FA8BF4FF4FA7323EAE3730B6001235D
:1011100097E7003B18BF0123D9E7E3DAC01A70450F
:10112000ACBFCCF80000CCF800E0DBE7F8510020C1
:10113000E8510020E6510020EC510020F45100203D
:10114000DC510020F0510020D8510020E051002057
:10115000E451002094F10208024B01221A70FFF7BB
:10116000FBBE00BFF951002008B1FFF72FBF704749
:1011700010B500F08BFE0446FFF71EFF094A1378F6
:1011800003F0FD03012B0BD102231370064B1E222B
:101190001A80064B00221A80054B1C60054B1C6010
:1011A000012010BDE8510020E6510020E45100204C
:1011B000F0510020EC51002008B5FFF7FDFE054B73
:1011C0001A78022A04D103221A70034B05221A80CE
:1011D000012008BDE8510020E451002010B500F0C6
:1011E00055FE0446FFF7E8FE074B1A78032A08D19C
:1011F00002221A70054B00221A80054B1C60054B19
:101200001C60012010BD00BFE8510020E451002007
:10121000F0510020EC51002008B5FFF7CDFEFFF79C
:101220009BFE012008BD000010B50446FFF7C4FE78
:10123000B4F5F57FA8BF4FF4F574044BB4F5917F76
:10124000B8BF4FF491741C60012010BDE051002024
:1012500008B5FFF7B1FE064B1B7833B9054B0122E9
:101260001A7000F013FE044B1860012008BD00BF87
:10127000E8510020F8510020F451002008B5FFF794
:101280009BFE024B00221A70012008BDF85100207D
:10129000012070477047704730B1036823B1406840
:1012A000B0FA80F04009704701207047018940681A
:1012B000002201F01DB901894068012201F018B92E
:1012C000F7B5054617461E46FFF7E6FF40BB3AB3A3
:1012D0008B19B3F5004F23D806B30B0A0324284615
:1012E0008DF804408DF805308DF80610FFF7DEFF0D
:1012F0002246EB68286801A901F09CFF044630B93A
:10130000EB682868B2B2394602F040F90446284634
:10131000FFF7D1FF201E18BF0120400003B0F0BD31
:101320000120FBE72DE9F34105460C4617461E4612
:10133000FFF7B2FF00283DD1002A3BD08B19B3F54F
:10134000004F37D89EB3062328468DF80430FFF7A8
:10135000ADFFEB682868012201A901F06BFF804610
:101360002846FFF7A8FF0220B8F1000F1FD1230A7B
:101370008DF8040028468DF805308DF80640FFF7FB
:1013800095FFEB682868032201A901F053FF04468A
:1013900030B9EB682868B2B2394601F04BFF044619
:1013A0002846FFF788FF201E18BF0120400002B02A
:1013B000BDE8F0810120FAE710B594B010220021B9
:1013C0000AA82CF0DAFE1422002103A82CF0D5FE86
:1013D000214B002101911A6C42F080521A641B6C5F
:1013E0001E4A03F080530193019B0291136823F47A
:1013F000404343F400431360136803F440430293F3
:10140000029B01224FF4A023CDE9082302244FF4CC
:101410008003CDE90E4308214FF4A8730420CDE9E1
:1014200010130723CDE9120308A801F04BFB08B104
:1014300072B6FEE70F23CDE903344FF48053CDE9B4
:1014400006300590214603A801F018FD08B172B6D8
:10145000FEE714B010BD00BF00380240007000402D
:101460002DE9804897B00024B54D00F0E9FCFFF766
:10147000A3FF142200210EA82CF07FFE01942B6BF9
:10148000B04843F004032B632B6B03F00403019378
:10149000019B02942B6B43F080032B632B6B03F0B7
:1014A00080030293029B03942B6B43F001032B6395
:1014B0002B6B03F001030393039B04942B6B43F00A
:1014C00002032B632B6B03F0020304930122082118
:1014D000049B01F00DF89B4822464FF4A07101F0E7
:1014E00007F89948224640F2022101F001F822460D
:1014F00096484FF4846100F0FBFF4FF400574FF41F
:101500000413904810940EA90126CDE90E734FF0F4
:10151000080800F027FF4FF0030B8A4810940EA92B
:10152000CDE90E86CDF844B000F01CFF02228648BB
:101530000EA9CDE90E26CDE9104400F013FF4FF4BB
:10154000846282480EA9CDE90E264FF0400ACDE90B
:10155000104400F007FF7B480EA9CDE90EA6CDE9A7
:10156000104400F0FFFE4FF4807276480EA9CDE9DA
:101570000E264FF40079CDE9104600F0F3FE7248D4
:101580000EA9CDE90E96CDE9104B00F0EBFE4FF41D
:1015900004134FF480626C4810960EA9CDE90E2317
:1015A00000F0E0FE22463146282000F09BFC282077
:1015B00000F0CAFC63480EA9CDE90E86CDE91044BF
:1015C00000F0D0FE5F483246414600F091FF3246BF
:1015D0005D48494600F08CFF5C480EA9CDE90EA697
:1015E000CDE9104B00F0BEFE58483246514600F09F
:1015F0007FFF00942B6B43F400132B632B6B03F4DE
:1016000000132246214600930B20009B00F06AFC49
:101610000B2000F099FC22462146102000F062FCCD
:10162000102000F091FC4A484A4B036000F0AEFCE9
:10163000034608B172B6FEE74748484A484E03627F
:10164000C0E900624FF48042C0E90233C0E90423DC
:10165000C0E9063301F014F808B172B6FEE7414C58
:10166000414DA0624FF48273C4E90053C4E9020003
:10167000C4E90400C4E908000A232046C4E9069826
:10168000E36201F07BFD054608B172B6FEE7236810
:101690001A6822F040021A601A6822F0380242F0FA
:1016A00008021A601A68C4F81C8042F040021A60EE
:1016B0001C220146CDE905000DEB02002CF05DFD7A
:1016C000202229460EA82CF058FD284C284BA56056
:1016D000C4E9003541F2670680232046C4E903656A
:1016E0006561A36102F050FA08B172B6FEE7CDE978
:1016F000050005A9204602F05DFB024608B172B65E
:10170000FEE7CDE90900CDE90B0060230D9007A9A4
:101710002046CDE9073602F08FFA08B172B6FEE72F
:10172000CDE90E00CDE91000CDE9120715900EA904
:10173000204602F075FB0546E0B172B6FEE700BF39
:10174000003802400008024000000240000402404D
:10175000A0540020003002404C540020801A0600A3
:1017600000540040F453002000300140EC520020AF
:1017700000000140204600F0DDF9204E2049B56010
:1017800042F2CF03C6E900133046A523C6E903356C
:10179000B56102F0CDF908B172B6FEE7194D1A4AEB
:1017A00028614FF41643C5E900230C23C5E9020064
:1017B000C5E90530E861284602F0E6FB074608B1B6
:1017C00072B6FEE702F0C4FD39462046FFF7AAFBD9
:1017D000FFF7D8F8FFF7EEF8FEF7D8FF3A4639469C
:1017E0003846FFF76DF8FEF7C7FF2846FFF7B4FC51
:1017F000304602F093F802F0B2FDFCE7A45200205C
:10180000004801405C5200200044004072B6FEE7F0
:1018100082B00C4B002100915A6C42F480425A6411
:101820005A6C02F480420092009A01911A6C42F0C4
:1018300080521A641B6C03F080530193019B02B029
:10184000704700BF003802400268094B9A4282B0DC
:101850000BD100230193074B1A6B42F480521A6399
:101860001B6B03F480530193019B02B0704700BFD0
:10187000003002400038024030B5044689B01422DE
:10188000002103A82CF079FC2268144B9A4222D143
:10189000134C144800250195236B43F00203236386
:1018A000236B03F002030193019B4FF44072122358
:1018B000CDE9032303210423CDE9061303A900F096
:1018C00051FD0295236C43F400132364236C03F44D
:1018D00000130293029B09B030BD00BF00540040CA
:1018E000003802400004024070B514228AB0064657
:1018F00000210DEB02002CF040FC3368604A93425B
:1019000052D1604C604800250095636C43F48053CD
:101910006364636C03F480530093009B0195236B15
:1019200043F001032363236B03F001030193019B45
:101930004FF0E00C0223CDE905C34FF0030E052361
:1019400005A9CDE908E300F00DFD0295236B4F4A90
:1019500043F480032363236B4D4C03F48003029311
:10196000029B4FF0C063C4E900234023C4E9023561
:101970004FF48063C4E9043520464FF40033C4E9D2
:101980000655C4E9083500F027FB08B1FFF73EFF14
:1019900000223B20B4641146A66300F0A3FA3B206A
:1019A00000F0D2FA0AB070BD3A4A9342FAD100254B
:1019B000344B03951A6C42F400421A641A6C02F418
:1019C00000420392039A04951A6B42F004021A63D0
:1019D0001B6B03F004030493049B4FF4E0500223B9
:1019E000CDE90503032406232B4805A9CDE90843C7
:1019F00000F0B8FC294C2A4B2046C4E900354FF4CE
:101A00008063C4E90255C4E90435C4E90655C4E954
:101A1000085500F0E1FA08B1FFF7F8FEF464A66398
:101A2000204C214900234022C4E9022320464FF4E0
:101A30008062C4E90013C4E90423C4E90633C4E99D
:101A4000083300F0C9FA08B1FFF7E0FE00221146A2
:101A5000B4643320A66300F045FA332000F074FA32
:101A60004FF4E0520223CDE905230023CDE90733EB
:101A70000948062305A9099300F074FC92E700BF0A
:101A8000003001400038024000000240586402402B
:101A9000FC510020003C004000080240945300200C
:101AA00010600240345300208860024007B50F4B9D
:101AB00002689A4216D1002203F59C330192596CB8
:101AC00041F0010159645B6C03F00103019311467D
:101AD0001A20019B00F006FA1A2003B05DF804EB0F
:101AE00000F032BA03B05DF804FB00BF0000014013
:101AF00007B50F4B02689A4216D1002203F57043D6
:101B00000192596C41F4802159645B6C03F4802389
:101B1000019311461A20019B00F0E4F91A2003B04A
:101B20005DF804EB00F010BA03B05DF804FB00BFF1
:101B30000048014010B5044686B01422002101A8D7
:101B40002CF01BFB22680E4B9A4216D10023009307
:101B50000C4B0D481A6B42F001021A631B6B03F029
:101B600001030093009B4FF480720223CDE901230F
:101B700001A90123059300F0F5FB06B010BD00BFDD
:101B800000000140003802400000024010B5044649
:101B900088B01422002103A82CF0EFFA2268174B1A
:101BA0009A4228D103F5FA33002401941A6C1448A0
:101BB00042F400321A641A6C02F400320192019A63
:101BC00002941A6B42F001021A631B6B03F00103CB
:101BD00002930C22029B0223CDE9032303A90723CE
:101BE000079300F0BFFB26202246214600F07AF939
:101BF000262000F0A9F908B010BD00BF0044004045
:101C000000000240FEE7FEE7FEE7FEE7FEE7704762
:101C10007047704700F02EB9014800F0E5BA00BFE8
:101C200094530020014800F0DFBA00BF3453002075
:101C300008B5044801F0A8FEBDE80840024801F0DC
:101C4000A3BE00BFEC520020A452002008B54FF400
:101C5000806000F053FCBDE808404FF4005000F0F5
:101C60004DBC7047014802F023BA00BF5C5200200F
:101C7000014800F0B9BA00BFFC5100200268034BD4
:101C80009A4201D112F01CB8704700BF00480140D1
:101C9000B0F5806F02BF024B01221A60704700BF8F
:101CA0008C5700200120704708B52CF0D7FA162376
:101CB00003604FF0FF3008BD08B52CF0CFFA1623B3
:101CC0000360FEE770B50D4614460E46731B9C423A
:101CD00001DC204670BDAFF3008006F8010BF5E78C
:101CE00070B50D4614460E46731B9C4201DC20461F
:101CF00070BD16F8010BAFF30080F5E74FF0FF3031
:101D000070474FF400534B6000207047012070472C
:101D1000002070470B4A116810B5034609B90A49FB
:101D20001160106809490A4C0344091B8B4206D90B
:101D30002CF094FA0C2303604FF0FF3010BD1360B9
:101D4000FCE700BFA8540020F065012000800120BE
:101D500000040000034AD2F8883043F47003C2F84C
:101D60008830704700ED00E002480122082100F0B1
:101D7000BFBB00BF0008024008B5FFF7F5FF024BEC
:101D800000221A7008BD00BFAC5400200268034B4B
:101D90009A4201D1FFF7F0BF704700BF003C0040FE
:101DA000FFF7F4BFDFF834D0FFF7D4FF0C480D493C
:101DB0000D4A002302E0D458C4500433C4188C42A6
:101DC000F9D30A4A0A4C002301E013600432A2420C
:101DD000FBD32CF049FAFFF743FB7047008001204A
:101DE00000000020F8000020A0080508F8000020EE
:101DF000EC650120FEE7000038B50E4B1A784FF471
:101E00007A73B3FBF2F30C4A05461068B0FBF3F0AB
:101E100000F0A8F8044658B90F2D09D80246294603
:101E20004FF0FF3000F05EF8044B20461D6038BDD7
:101E30000120FCE718000020140000201C000020F6
:101E400008B50B4B1A6842F400721A601A6842F423
:101E500080621A601A6842F480721A60032000F0EF
:101E60002FF80020FFF7C8FFFFF7D2FC002008BDC5
:101E7000003C0240034A044B11681B780B4413607A
:101E8000704700BFB054002018000020014B1868B4
:101E9000704700BFB054002038B50446FFF7F6FF86
:101EA000631C1CBF054B1B78054618BFE418FFF7E1
:101EB000EDFF431BA342FAD338BD00BF180000203A
:101EC0000749CA6822F4E0620302120403F4E063E3
:101ED000120C134343F0BF6343F40033CB607047ED
:101EE00000ED00E0164B30B5DC68C4F30224C4F109
:101EF0000703251D042B28BF0423062D4FF0FF35B3
:101F00008CBF033C002405FA03F321EA0303A54038
:101F100022EA0502A340002843EA0203ACBF00F115
:101F20006040084A4FEA0313B8BF00F00F00DBB26D
:101F3000AABF00F56140135480F8003330BD00BFE4
:101F400000ED00E014ED00E0002807DB044A410941
:101F5000012300F01F00834042F82130704700BF8A
:101F600000E100E00138B0F1807F0BD24FF0E023B8
:101F7000054A5861F02182F8231000200722986159
:101F80001A6170470120704700ED00E010B504466B
:101F900050B1437903F0FF0213B90271FFF754FC0B
:101FA00001236371002010BD0120FCE7036810B518
:101FB000084C0246D9B210391820B1FBF0F0205C71
:101FC000D06523F47F7020F003005F2988BF0430C0
:101FD000906510BDB4F1020870B50446FFF756FFD6
:101FE0000546002C60D0022384F835302268002397
:101FF00084F83430136823F00103136022681368F7
:10200000D8072ED413683248A1691840D4E90135A5
:102010002B43E5682B4325692B4365692B43E56911
:102020000B432B43256A2B430343606A042802BFFA
:10203000D4E90B5635432B4313605369042823F02E
:10204000070343EA000335D1A06AE56A03438DB371
:1020500091B9012820D030F002012BD1E90129D516
:102060001DE0FFF713FF401B0528C7D920230320DD
:10207000636584F8350070BDB1F5005F16D10328A3
:1020800018D801A151F820F09F2000085D20000819
:102090009F20000899200008B5F1C07F0AD1402395
:1020A0006365012384F835300120E4E70228F6D97E
:1020B0000328D3D053612046FFF778FFE26D3F231A
:1020C0009340836000200123606584F83530D2E7B7
:1020D0003F8010F070B590F83440866D012C30D000
:1020E000012480F8344090F83540012C4FF0000472
:1020F00025D1022580F8355044650468256825F40B
:102100008025256063608368402B0EBFA260A160BC
:10211000E260C26D08BFE1603F239340B360236873
:1021200043F016032360036C1BB1236843F00803DC
:102130002360236843F001032360002070BD80F812
:1021400034400220FAE770B50446866DFFF79EFE24
:1021500094F83530022B054606D0802363650120B4
:10216000002384F8343070BD23681A6822F0160208
:102170001A605A6922F080025A61226C0AB9A26C74
:102180001AB11A6822F008021A601A6822F00102D5
:102190001A602368186810F0010007D1E26D3F2330
:1021A0009340B360012384F83530D9E7FFF76EFE22
:1021B000401B0528EDD920230320636584F83500F2
:1021C000CEE790F83530022B03D080234365012001
:1021D00070470268052380F83530136823F0010347
:1021E0001360002070470000F7B5002301935C4B9B
:1021F000856D1F68C36D2E6808229A4032420446DE
:102200000CD001680868400708D5086820F0040071
:102210000860AA60626D42F00102626501229A4084
:10222000324208D021684969090641BFAA60626D3F
:1022300042F00202626504229A40324208D02168CC
:102240000968880741BFAA60626D42F004026265B6
:1022500010229A40324210D02368196809070CD521
:10226000AA601A68500337D51B68190301D4236C80
:1022700000E0A36C0BB120469847E16D20228A4014
:1022800032423AD023681868C60636D5AA6094F858
:102290003520052A1A6827D122F016021A605A69D9
:1022A00022F080025A61226C0AB9A26C1AB11A6833
:1022B00022F008021A603F238B40AB60012384F8B0
:1022C0003530002384F83430236D002B45D0204670
:1022D00003B0BDE8F04018471A68D2055EBF1A681F
:1022E00022F008021A60C2E7500327D51B681903C1
:1022F00031D4636C0BB120469847636D6BB3636D4B
:10230000DA0719D522684FF41653B7FBF3F7052304
:1023100084F83530136823F001031360019B013307
:10232000BB42019302D81368DB07F7D4012384F87A
:102330003530002384F83430E36CC6E71A6812F4B1
:10234000807208D1196821F010011960012384F806
:10235000353084F83420E36BCCE703B0F0BD00BF28
:10236000140000202DE9F74FDFF880915D4A00232B
:102370000D6801249C4004EA0506AC4340F0A380AC
:102380004D68032705F003044FEA430807FA08FCE9
:10239000671E012F6FEA0C0C34D8876807EA0C0E11
:1023A000CF6807FA08F747EA0E078760476827EA09
:1023B000060EC5F300179F4047EA0E074760C7683F
:1023C00007EA0C0E8F6807FA08F747EA0E07022C97
:1023D000C76019D14FEAD30A00EB8A0A03F0070B52
:1023E000DAF820704FEA8B0B4FF00F0E0EFA0BFE4F
:1023F00027EA0E0E0F6907FA0BF747EA0E07CAF82D
:10240000207001E0032CDAD1076804FA08F407EA27
:102410000C073C4315F4403F046054D00024019461
:10242000D9F8444044F48044C9F84440D9F84440C1
:1024300023F0030707F1804704F4804407F59C3735
:10244000019403F0030C019CD7F808E04FEA8C0CD0
:102450000F2404FA0CF42EEA040E234CA04239D0C7
:1024600004F58064A04237D004F58064A04235D0E2
:1024700004F58064A04233D004F58064A04214BF08
:102480000724042404FA0CF444EA0E04BC609468A3
:10249000F74315F4801F0CBF3C4034439460D4686C
:1024A00015F4001F0CBF3C403443D460546815F44D
:1024B000003F0CBF3C40344354601468ED0354BFEC
:1024C0003C40344314600133102B7FF451AF03B010
:1024D000BDE8F08F0024D5E70124D3E70224D1E73B
:1024E0000324CFE7003C01400000024000380240D6
:1024F0000AB1816170470904FBE70000044A516991
:10250000014208B502D05061FFF7C2FB08BD00BF11
:10251000003C01402DE9F84606460F4691461D460F
:102520004FEA114A3368BAF1010F0CBF5C699C692C
:1025300027EA0404A4B2B4FA84F46409A14501D0E2
:10254000002025E06A1CEED0FFF7A0FC089BC01A13
:10255000A84201D8002DE5D13368BAF1010F0CBFB4
:102560005B699B6927EA03039BB2B3FA83F35B09B8
:102570009945D7D100232022336386F83D2086F881
:102580003E30326C86F83C3042F02002326401204A
:10259000BDE8F8862DE9F04104460F4616469846F8
:1025A0002568686927EA000080B2C0B16B695A05E6
:1025B00017D52B6843F400732B606FF480636B6155
:1025C00020220023236384F83D2084F83E30236CCE
:1025D00043F004032364002384F83C300120BDE869
:1025E000F081731CDDD0FFF751FCA0EB0800B04276
:1025F00001D8002ED4D123685A6927EA020292B288
:10260000002ACDD000232022236384F83D2084F8C3
:102610003E30236C1343DDE770B504460D46164685
:1026200021684B6913F0400301D0002011E04A6992
:10263000D2060FD56FF010024A612022236384F87E
:102640003D2084F83E30236C2364002384F83C3022
:10265000012070BDFFF71AFC801BA84201D8002D95
:10266000DED123685B6913F04003D9D120222363B4
:1026700084F83D2084F83E30236C1343E4E70000E7
:1026800070B5044608B9012070BD90F83D3003F0E4
:10269000FF021BB980F83C20FFF7EEF8242384F8F2
:1026A0003D3023681A6822F001021A601A6842F469
:1026B00000421A601A6822F400421A6000F078FCA6
:1026C0003F4B65689D4294BF3E4B3F4B98428CBF49
:1026D00000230123002BD6D12268394E51683B4B91
:1026E000B0FBF3F321F03F011943B542516088BFBD
:1026F0004FF49676116A88BF734321F03F0184BF7F
:102700004FF47A76B3FBF6F301330B431362D169CE
:10271000431E2B4821F44F41854221F0FF0132D85E
:102720006D0040F6FC70B3FBF5F30133034242D079
:10273000C3F30B031943D161D4E907301168034394
:1027400021F0C0010B4313609168D4E9030321F425
:102750000341034321F0FF010B439360D4E90530AB
:10276000D168034321F0FF010B43D360136843F0AA
:102770000103136000202023206484F83D3020638F
:1027800084F83E0080E7A06850B905EB4505B3FB2F
:10279000F5F30133C3F30B037BB143F40043C9E703
:1027A00019206843B3FBF0F30133C3F30B0323B1E8
:1027B00043F44043BEE70423BCE70123BAE700BF6C
:1027C000A08601007F841E00FF083D0040420F00EC
:1027D0002DE9F043044689B09846109F0E46914675
:1027E000FFF754FB94F83D30202B054604D0022619
:1027F000304609B0BDE8F08300909A4919230122C0
:102800002046FFF787FE0028F1D194F83C30012BD9
:10281000EDD02168012384F83C300B68DB075EBFF4
:102820000B6843F001030B600B6823F400630B603B
:10283000222384F83D30102384F83E3000232364A3
:10284000A4F82A80638D2385874BE362E36A0A68D4
:10285000C4F8249042F48062082B0A6004D0012B53
:1028600002D013F5803F04D10B6843F480730B60F2
:1028700002E0236B112BF7D03B46009500224FF06E
:1028800001112046FFF746FE236838B11B68DD05BD
:1028900044BF4FF4007323640126A9E72269B2F50F
:1028A000804F27D146F00106F6B21E616F492B46D4
:1028B0003A462046FFF76EFE06460028ECD1238DEF
:1028C0002168002B4BD103904B6903938B690393D1
:1028D000039B0B6843F400730B60DFF89881238D32
:1028E000002B64D1202284F83D2084F83C3084F809
:1028F0003E307DE74FEAE61808F0060848F0F0029F
:102900001A615B492B463A462046FFF743FE0028F2
:10291000C2D123685549F6B21E613A462B4620467D
:10292000FFF738FE02460028B6D1236807905969A0
:102930000791996907910799196841F480711960A5
:10294000204600953B464FF00111FFF7E3FD22685A
:1029500008B113689BE748F0F1031361A6E7012B68
:102960000AD10B6823F480630B6004904B690493D5
:102970008B690493049BACE7022B0B680DD123F405
:1029800080630B600B6843F400630B6005904B6938
:1029900005938B690593059B9FE743F480630B6068
:1029A00006904B6906938B690693069B95E7032B6C
:1029B00062D8012B16D12A4639462046FFF72CFE55
:1029C00000287FF469AF23681A69636A1A70636A22
:1029D00001336362238D013B2385638D013B9BB2F1
:1029E00063857CE7022B00953B464FF00002414691
:1029F00020461AD1FFF78EFD00287FF44DAF2368E3
:102A00001A6842F400721A601A69636A1A70626A7C
:102A1000531C6362238D013B2385638D013B9BB275
:102A2000638523681B695370D1E7FFF773FD024686
:102A300000287FF431AF2368196821F480611960A0
:102A40001969636A1970636A01336362238D013BFC
:102A50002385638D013B9BB26385414600953B46D0
:102A60002046C7E7020010000000FFFF020001003F
:102A700008000100040001002A4639462046FFF7FD
:102A8000CBFD00287FF408AF23681A69636A1A70C7
:102A9000628D616A013A92B24B1C62852268636260
:102AA000238D5069013B9BB2400723857FF517AF0B
:102AB000032B02BF136823F48063136013694B7008
:102AC00085E700BF2DE9F341044640B30368DE0704
:102AD00010D423689D075BD42368190700F19D80FB
:102AE00023685A0700F1BD80A369002B40F02481C0
:102AF00000202CE08D4B9A6802F00C02042A07D0CB
:102B00009A6802F00C02082A0BD15B68590208D5BA
:102B1000864B1B689A03DCD56368002BD9D1012052
:102B200015E06368814DB3F5803F13D12B6843F402
:102B300080332B60FFF7AAF97C4E054633689B0370
:102B4000C7D4FFF7A3F9401B6428F7D9032002B0CC
:102B5000BDE8F081B3F5A02F04D12B6843F48023A6
:102B60002B60E3E72A6822F480322A602A6822F484
:102B700080222A60002BDDD1FFF788F906462B68FA
:102B80009F03A6D5FFF782F9801B6428F7D9DDE7FC
:102B9000664B9A6812F00C0F07D09A6802F00C028C
:102BA000082A11D15B685D020ED4604A1368990748
:102BB00002D5E368012BB2D11368216923F0F80331
:102BC00043EAC103136087E7E268594BB2B10122BF
:102BD0001A60FFF75BF9554D06462B689B0707D532
:102BE0002B68226923F0F80343EAC2032B6073E7E2
:102BF000FFF74CF9801B0228EFD9A7E71A60FFF70F
:102C000045F94A4E054633689F077FF565AFFFF7E4
:102C10003DF9401B0228F6D998E76269444B82B11E
:102C20000122C3F8802EFFF731F9404E0546736F3D
:102C30009B073FF555AFFFF729F9401B0228F6D94E
:102C400084E7C3F8802EFFF721F9384E0546736FED
:102C50009F077FF545AFFFF719F9401B0228F6D90A
:102C600074E7324B1A6C12F0805228D101921A6C20
:102C700042F080521A641B6C03F080530193019B55
:102C800001272C4D2B68D8051BD5A368274D012B98
:102C900027D12B6F43F001032B67FFF7F7F8234E83
:102CA000054641F28838336F9A0739D5002F3FF433
:102CB0001BAF1E4A136C23F08053136414E70027E4
:102CC000DFE72B6843F480732B60FFF7DFF80646DD
:102CD0002B68D905D9D4FFF7D9F8801B0228F7D97A
:102CE00034E7052B04D12B6F43F004032B67D0E7A7
:102CF0002A6F22F001022A672A6F22F004022A6753
:102D0000002BCAD1FFF7C2F841F2883806462B6F74
:102D10009B07CBD5FFF7BAF8801B4045F7D915E7DD
:102D2000FFF7B4F8401B4045BDD90FE7003802401B
:102D30000000474200700040374DAA6802F00C02C4
:102D4000082A3ED0022B354B4FF000021A662BD1D9
:102D5000FFF79CF806462B6899011FD4D4E9073287
:102D60001343626A43EA8213E26A43EA0263A26A95
:102D70005208013A43EA02436B60284B264D012278
:102D80001A66FFF783F804462B689A013FF5B0AE48
:102D9000FFF77CF8001B0228F6D9D7E6FFF776F894
:102DA000801B0228D7D9D1E6FFF770F804462B68BC
:102DB0009B017FF59DAEFFF769F8001B0228F6D94D
:102DC000C4E6012B3FF4ABAE6B68E26903F480010B
:102DD00091427FF4A4AE216A03F03F028A427FF45D
:102DE0009EAE616A47F6C0721A40B2EB811F7FF453
:102DF00096AEA26A520803F44031013AB1EB024F99
:102E00007FF48DAEE26A03F07063B3EB026F14BF20
:102E1000012000209BE600BF00380240000047422E
:102E2000134908B58B6803F00C03042B1CD0082B46
:102E30001CD14A684B68496813F4800314BF0D48DD
:102E40000D48C1F3881118BF002302F03F02A1FB17
:102E50000001FDF765FA064B5B68C3F301430133DC
:102E60005B00B0FBF3F008BD0248FCE70248FAE75C
:102E70000038024000127A000024F4002DE9F041ED
:102E80000D46044610B90120BDE8F081434B1A6895
:102E900002F007028A4228D321688F072DD4C80781
:102EA00040D43E4B1A6802F00702AA4265D8226855
:102EB00051076BD4130707D5394A2169936823F466
:102EC000604343EAC1039360FFF7AAFF344B354ADE
:102ED0009B68C3F30313D35CD840334B1860334B68
:102EE0001868FEF789FF0020CEE7CAB21A701B6887
:102EF00003F007038B42C6D1CEE7294B11F0040F34
:102F00001EBF9A6842F4E0529A600E0742BF9A6868
:102F100042F460429A609A68A06822F0F00202438C
:102F20009A60BCE762681E4B012A1CD11B6813F42F
:102F3000003FA8D01A4EB36823F003031343B360D5
:102F4000FEF7A4FF41F288380746B368626803F0D1
:102F50000C03B3EB820FA4D0FEF798FFC01B4045D3
:102F6000F3D9032090E7911E01291B6802D813F0C2
:102F7000007FDEE713F0020FDBE7EAB21A701B688E
:102F800003F00703AB427FF47EAF90E70449E068AB
:102F90008B6823F4E05303438B608BE7003C0240D3
:102FA00000380240A4F10208140000201C00002098
:102FB000044B054A9B68C3F38223D35C034A106821
:102FC000D8407047003802409CF1020814000020ED
:102FD000044B054A9B68C3F34233D35C034A106831
:102FE000D8407047003802409CF1020814000020CD
:102FF0002DE9F3471F46894690460446FEF746FFF3
:103000000A9D3D442D1AFEF741FF264B1E68C6F36C
:10301000CB366E43824601962268936839EA0303F1
:103020000CBF01230023434501D100202EE07B1C6F
:10303000F3D0FEF72BFFA0EB0A00A84229D32368A8
:103040005A6822F0E0025A606268B2F5827F0AD1C3
:10305000A268B2F5004F02D0B2F5806F03D11A68B2
:1030600022F040021A60A26AB2F5005F07D11A6826
:1030700022F400521A601A6842F400521A600123C6
:1030800084F85130002384F85030032002B0BDE8AA
:10309000F087019B1BB1019B013B0193BCE71D46DF
:1030A000BAE700BF14000020F0B585B00B460092CF
:1030B0000E461746022101220446FFF799FF0546F6
:1030C00028B1636D43F020036365032515E0124BBF
:1030D0001868124BB0FBF3F04FF47A7358436368EF
:1030E0000390B3F5827F0BD1009733462A468021A7
:1030F0002046FFF77DFF0028E3D1284605B0F0BD4C
:10310000039B002BF9D0039B013B039323689B682F
:103110001B06F5D4F1E700BF1400002000366E0155
:1031200037B50B464168B1F5827F044608D000925E
:1031300001210022FFF75CFFD0B9002003B030BDB1
:103140008168B1F5004F02D0B1F5806F07D12568D5
:103150002868B1F5806F20F04000286004D000920C
:10316000802100222046E5E7009201210022F9E7B4
:10317000636D43F0200363650320DFE710B5044669
:10318000002855D0436A002B4ED14268B2F5827FA9
:1031900000D0C3610023A36294F8513003F0FF0212
:1031A00023B984F850202046FEF79EFB2168A068D2
:1031B000A269022384F851300B6823F040030B60AE
:1031C000636800F4044003F482730343E06800F48E
:1031D00000600343206900F002000343606900F0CF
:1031E0000100034302F400700343E06900F038007B
:1031F0000343206A00F080000343A06A00F40050FB
:1032000003430B60636A120C03F0100302F0040224
:103210001A434A60CB6923F40063CB610020012389
:10322000606584F8513010BD0023C0E90433B1E774
:103230000120F8E72DE9F74304461F460D46904666
:10324000FEF724FE94F85130012B8146D8B240F0AD
:103250009F80002D74D0B8F1000F71D094F85030D9
:10326000012B00F09580032384F85130002363651F
:10327000C4E91033A4F83680A363A387E387A36867
:10328000266884F85000B3F5004F2563A4F8348015
:1032900007D1336823F040033360336843F480433D
:1032A00033603368E2685B065EBF336843F0400317
:1032B0003360B2F5006F636845D113B1B8F1010F07
:1032C00007D135F8023BF3602563E38E013B9BB2E7
:1032D000E386E38E9BB2D3B94A4639462046FFF7D0
:1032E000E3FE002851D1A36833B901932368DA685B
:1032F00001929B680193019B012384F85130606D1A
:103300000023C01A84F8503018BF012018E022684A
:103310009368980705D5236B33F8021BD1602363AC
:10332000D3E7FEF7B3FDA0EB0900B842D1D3791C77
:10333000CFD0012384F85130002384F8503003208B
:1033400003B0BDE8F08313B1B8F1010F08D12B78B9
:103350003373236B01332363E38E013B9BB2E3861C
:10336000E38E9BB2002BB7D023689A68920703D5EF
:10337000226B12781A73ECE7FEF788FDA0EB0900C8
:10338000B842EDD37B1CEBD0D3E720236365AAE7DB
:103390000220D5E72DE9F74304460D4691461E4627
:1033A000DDF82880FEF772FD94F851306268012B39
:1033B0000746D9B20AD0B2F5827F40F0E580A36813
:1033C000002B40F0E180042940F0DE80002D4BD03E
:1033D000B9F1000F48D0002E46D094F85030012BA0
:1033E00000F0D280012384F8503094F85130C4F8B2
:1033F0003890042B1CBF052384F8513000236365EB
:10340000C4E910332368E687E6861968A68749066B
:1034100058BF1968256358BF41F04001A68658BFC0
:103420001960E168B1F5006F55D10AB1012E07D1DD
:1034300035F8022BDA60E38E2563013B9BB2E3860D
:103440000125E38E9BB28BB9E38F9BB273B93A46E9
:1034500041462046FFF728FE002800F08180202307
:103460006365002384F85030012031E021688B68C7
:103470009A070DD5E38E9BB253B145B1236B33F858
:10348000022BCA602363E38E013B9BB2E3860025D7
:103490008A6812F001020CD0E38F9BB24BB1A36B90
:1034A000C96823F8021BA363E38F013B9BB2E38748
:1034B0001546FEF7EBFCC01B4045C2D3B8F1FF3FF9
:1034C000BFD0012384F85130002384F8503003200A
:1034D00003B0BDE8F0830AB1012E08D12A781A732F
:1034E000236B01332363E38E013B9BB2E38601250B
:1034F0002DE0226893689B070ED5E38E9BB25BB1EB
:103500004DB1236B1B781373236B01332363E38E5D
:10351000013B9BB2E38600252268916811F001010E
:103520000DD0E38F9BB253B1A36BD2681A70A36B1B
:103530000133A363E38F013B9BB2E3870D46FEF7A4
:10354000A5FCC01B404502D3B8F1FF3FB9D1E38EC3
:103550009BB2002BCDD1E38F9BB2002BC9D176E774
:10356000A36833B901932368DA6801929B680193D9
:10357000019B012384F85130606D0023C01A84F848
:10358000503018BF0120A3E70220A1E72DE9F7433F
:103590001E4690F85130012B044689461746DDB28D
:1035A00004D00225284603B0BDE8F0830029F9D0F5
:1035B000002AF7D04368B3F5827F0BD183684BB9FB
:1035C000042380F85130134600960A46FFF7E2FEC6
:1035D0000546E7E7FEF75AFC94F85030012B804689
:1035E000DFD0A268C4F838900123002584F8503059
:1035F000B2F5004F4FF0040384F85130C4E9105580
:1036000065652368E787A7872563A586E58607D1D3
:103610001A6822F040021A601A6822F480421A6086
:103620001A6855065EBF1A6842F040021A60E368E5
:10363000F3B1E38F9BB2FBB123689A68D2073CD504
:10364000DA68A36B23F8022BA363E38F013B9BB2E1
:10365000E387EEE723689A68D0071ED5A26B1B7B31
:103660001370A36B0133A363E38F013B9BB2E3872A
:10367000E38F9BB2002BEDD1424631462046FFF747
:103680004FFD18BB012384F85130656D0023ED1AFE
:1036900084F8503018BF012584E7FEF7F7FBA0EB54
:1036A0000800B042E4D3711CE2D0012384F8513009
:1036B000002384F85030032574E7FEF7E7FBA0EB06
:1036C0000800B042B5D3731CB3D0EEE72023636586
:1036D000D8E7000070B590F85130012B0446DDB2F8
:1036E00050D1002936D0002A34D090F85030012B28
:1036F00048D0032380F8513000234365C0E91033DC
:10370000C28683638387C38783688286B3F5004F4D
:10371000026880F85050016307D1136823F040031A
:103720001360136843F480431360A06C164B03646A
:10373000164BC363164BC364E38E002606659BB22B
:103740000C32FEF7C7FC38B1636D84F8506043F06B
:1037500010036365284670BD23681A68520658BF77
:103760001A684FF000055CBF42F040021A6084F80E
:1037700050505A6842F020025A605A6842F00202E1
:103780005A60E7E70225E5E797370008C3370008E6
:10379000A1370008704708B5806BFFF7FBFF08BD35
:1037A000806B026808B5536823F003035360436DD0
:1037B00043F010034365012380F85130FEF7F0FA1F
:1037C00008BD37B50546846BFEF760FB2B681B68A8
:1037D000DB05024626D42368596821F02001596090
:1037E000596821F00201596020466421FFF75CFC12
:1037F00018B1636D43F020036365A36833B9019387
:103800002368DA6801929B680193019B0023E38699
:10381000012384F85130636D23B12046FEF7C0FACE
:1038200003B030BD2046FDF75FF9F9E790F851008D
:1038300070470000036A026A22F0010270B502625A
:10384000446882690D6822F073022A438D6823F070
:1038500002032B430A4DA8420BD1CD6823F0080385
:103860002B43D1E9055624F44074354323F0040377
:103870002C43446082614A684263036270BD00BFAA
:1038800000000140036A026A22F4807270B502628D
:103890004468C2690D6822F073022A438D6823F4DC
:1038A000007343EA05230B4DA8420DD1CD6823F4E4
:1038B000006343EA0523D1E9055624F44054354317
:1038C00023F4806344EA05144460C2614A68C26319
:1038D000036270BD00000140036A026A22F4805254
:1038E00030B502624468C2690D6822F4E64242EAD9
:1038F00005228D6823F4005343EA0533064DA842A0
:1039000002BF4D6924F4804444EA85144460C261D6
:103910004A680264036230BD0000014090F83D3007
:10392000012B28D1022380F83D300368DA6842F089
:103930000102DA60114A934212D0B3F1804F0FD0E6
:10394000A2F57C4293420BD002F58062934207D0ED
:1039500002F58062934203D002F59A32934204D179
:103960009A6802F00702062A03D01A6842F00102A0
:103970001A60002070470120704700BF000001401E
:103980007047704770477047036870B5DD681E69FF
:10399000B10704460DD5AA070BD56FF002021A61D4
:1039A000012202779B699B0769D0FFF7EAFF00239A
:1039B0002377710710D56A070ED523686FF00402CC
:1039C0001A61022222779B6913F4407F20465CD063
:1039D000FFF7D7FF0023237733070FD528070DD52F
:1039E00023686FF008021A6104222277DB699907C5
:1039F000204650D0FFF7C5FF00232377F20610D5ED
:103A0000EB060ED523686FF010021A6108222277A8
:103A1000DB6913F4407F204643D0FFF7B2FF002359
:103A20002377F00708D5E90706D523686FF0010270
:103A30001A612046FEF722F9320608D52B0606D574
:103A400023686FF080021A61204600F010FA7006B9
:103A500008D5690606D523686FF040021A61204632
:103A6000FFF791FFB20622D5AB0620D523686FF091
:103A7000200220461A61BDE8704000F0F7B9FFF758
:103A80007FFF2046FFF77EFF91E7FFF779FF204693
:103A9000FFF778FF9EE7FFF773FF2046FFF772FFFF
:103AA000AAE7FFF76DFF2046FFF76CFFB7E770BD91
:103AB0001D4A036890420ED0B0F1804F0BD0A2F5A2
:103AC0007C42904207D002F58062904203D002F51A
:103AD0008062904208D14A6823F070031343CA6899
:103AE00023F4407313430AE0104A9042F7D002F5E2
:103AF00080629042F3D002F580629042EFD04A6932
:103B000023F0800313438A68C2620A688262064A0D
:103B1000904204BF0A690263026842F00402026034
:103B200001224261036070470000014000400140F3
:103B300010B5044630B390F83D3003F0FF021BB9D6
:103B400080F83C20FDF7D4FF0223206884F83D3044
:103B5000211DFFF7ADFF012384F84630002084F8D3
:103B60003E3084F83F3084F8403084F8413084F8A7
:103B7000423084F8433084F8443084F8453084F887
:103B80003D3010BD0120FCE710B5044630B390F87D
:103B90003D3003F0FF021BB980F83C20FDF786FFA3
:103BA0000223206884F83D30211DFFF781FF0123A7
:103BB00084F84630002084F83E3084F83F3084F8A2
:103BC000403084F8413084F8423084F8433084F83F
:103BD000443084F8453084F83D3010BD0120FCE7C6
:103BE000036A026A22F0100270B5026244688269B8
:103BF0000D6822F4E64242EA05228D6823F0200394
:103C000043EA05130B4DA8420DD1CD6823F0800384
:103C100043EA0513D1E9055624F44064354323F003
:103C2000400344EA8504446082614A688263036217
:103C300070BD00BF0000014038B590F83C30012B4A
:103C400004464FD00120082A84F83C003AD006D818
:103C5000BAB1042A26D0002384F83C3038BD0C2A9F
:103C6000F9D12068FFF738FEC3690A6943F400639D
:103C7000C361C36923F48063C361C36943EA022358
:103C80002EE02068FFF7D6FD83690A6943F0080338
:103C90008361836923F00403836183691343836130
:103CA0000020D8E72068FFF79BFF83690A6943F487
:103CB00000638361836923F480638361836943EADA
:103CC0000223ECE72068FFF7DDFDC3690A6943F0D2
:103CD0000803C361C36923F00403C361C3691343C9
:103CE000C361DDE70220B9E7036A10B501F01F01E7
:103CF00001248C4023EA04030362036A8A401A43C6
:103D0000026210BD08B529B990F83E30012B1DD0D4
:103D100001202EE0042907D190F83F30012BF7D184
:103D2000022380F83F3014E0082907D190F8403092
:103D3000012BEDD1022380F840300AE090F84130A9
:103D4000012BE5D1022380F8413002E0022380F804
:103D50003E3000680122FFF7C7FF134B984209D09D
:103D6000B0F1804F0BD1836803F00703062B15D108
:103D7000002008BD436C43F400434364F3E70B4B5E
:103D80009842F0D003F580639842ECD003F580634D
:103D90009842E8D003F59A339842E4D0036843F0A0
:103DA00001030360E4E700BF00000140000400409D
:103DB000FFF7A8BF30B590F83C30012B02464FF01A
:103DC00002002AD0136882F83D005C680D6898688C
:103DD00024F070042C435C60104CA34212D0B3F169
:103DE000804F0FD0A4F57C44A3420BD004F580642F
:103DF000A34207D004F58064A34203D004F59A34AB
:103E0000A34204D1496820F0800001439960012356
:103E1000002082F83D3082F83C0030BD00000140B7
:103E200090F83C30012B02461ED0CB68886823F402
:103E300040730343486823F480630343086823F412
:103E400000630343086923F4805303434869C96945
:103E500023F40053034323F480430B4311680020F1
:103E60004B6482F83C0070470220704770477047EF
:103E7000026802F10C0353E8003F23F490730C3204
:103E800042E8003102680029F2D102F1140353E83C
:103E9000003F23F0010302F1140C4CE8003100292B
:103EA000F3D1036B012B0BD102F10C0353E8003F5C
:103EB00023F0100302F10C0C4CE800310029F3D17F
:103EC000202380F842300023036370470268C168F2
:103ED00038B5136923F440530B43136105468368D7
:103EE0000069D168034368690343E86921F4164116
:103EF00021F00C0103430B43D3605369A96923F4F8
:103F000040730B4353611F4B9A4203D003F5806308
:103F10009A4224D1FFF75CF8EA691921B2F5004F03
:103F2000D5E90043A0FB01011CD1DA184FF00005D0
:103F300045EB0503FCF7F4F96422B0FBF2F102FB58
:103F40001103DB003233B3FBF2F303F007025B0033
:103F500002EB011203F4F8731344A36038BDFFF7BA
:103F600027F8D9E79A009B0FFCF7DAF96422B0FB37
:103F7000F2F102FB11031B013233B3FBF2F303EB4B
:103F80000113EAE70010014010B5044648B390F869
:103F9000413003F0FF021BB980F84020FDF7F6FD29
:103FA0002268242384F84130D36823F40053D3607B
:103FB0002046FFF78BFF23681A6922F490421A61AA
:103FC0005A6922F02A025A61DA6842F40052DA6031
:103FD00000202023606484F8413084F8423060631C
:103FE00010BD0120FCE7704708B5806B0023C38536
:103FF000FDF751F908BD704790F84230222B07B504
:1040000042D181680268836AB1F5805F3FD101695E
:1040100000293FD15268C2F3080223F8022B8362C1
:10402000C38D013B9BB2C385002B2DD10268D168A3
:1040300021F02001D160D16821F48071D1605169F3
:1040400021F001015161202280F842204363026B7C
:10405000012A026828D1036302F10C0353E8003FF0
:1040600023F0100302F10C0C4CE800310029F3D1CD
:104070001368DB0605D5019113680193536801931A
:10408000019B818DFFF7B7FF03B05DF804FB39B9E1
:10409000016929B95268D2B21A70836A0133BEE746
:1040A000526802F07F02F7E7FDF7F4F8ECE7000052
:1040B00003681A6873B51607D9685D69044608D1A4
:1040C000960668D58D0666D502B0BDE87040FFF74C
:1040D00093BF05F0010001F4907505435BD0D6074E
:1040E00005D5CD0542BF636C43F0010363645307FC
:1040F00004D518B1636C43F002036364960704D5DA
:1041000018B1636C43F004036364150707D501F02D
:10411000200303431EBF636C43F008036364636CB6
:10412000002B32D0920604D58B0602D52046FFF72D
:1041300063FF26687369626C03F0400302F00802B3
:1041400053EA0205204622D0FFF792FE73695E060D
:1041500018D5226802F1140353E8003F23F040030E
:10416000143242E800310029F3D1E06B50B1774BB3
:104170000365FEF726F840B1E06B036D02B0BDE8C1
:10418000704018472046FDF786F802B070BDFDF775
:1041900082F86564F9E7206B012840F09B80D50622
:1041A00040F19880C80640F19580002201921A687B
:1041B00001925A680192019A5969A28D490656D511
:1041C000E06B0168496889B2002947D0914245D225
:1041D000C269E185B2F5807F36D003F10C0252E866
:1041E000002F22F4807203F10C0040E80021002926
:1041F000F3D103F1140252E8002F22F0010203F17F
:10420000140040E800210029F3D103F1140252E820
:10421000002F22F0400203F1140040E800210029A1
:10422000F3D1202284F84220216303F10C0252E8EA
:10423000002F22F0100203F10C0040E800210029B9
:10424000F3D1E06BFDF77FFF02236363E38DA18D64
:10425000C91A89B22046FFF7CEFE96E7914294D163
:10426000C369B3F5807F90D102236363F2E7E18DE8
:10427000E08D80B289B2002887D0511A89B2002916
:1042800083D003F10C0252E8002F22F4907203F164
:104290000C0545E800200028F3D103F1140252E890
:1042A000002F22F0010203F1140545E80020002848
:1042B000F3D1202284F84220206303F10C0252E85B
:1042C000002F22F0100203F10C0545E80020002821
:1042D000F3D1C9E7160628D50D0626D594F8412056
:1042E000212A7FF452AFA168226AB1F5805F17D10D
:1042F0002169A9B932F8021BC1F308015960226291
:10430000E28C013A92B2E284002A7FF43EAFDA688E
:1043100022F08002DA60DA6842F04002DA6034E7C4
:10432000511C216212785A60EAE750067FF52DAFE2
:104330004A067FF52AAFDA6822F04002DA602023CD
:1043400084F841302046FFF74EFE1EE7E93F0008A3
:1043500008B50FF061FABDE808400FF0E5B90FF0BD
:104360005DBA704708B50C2934D8DFE801F0070BB7
:104370000F132B2B171B1F23272B2F0008F0D0F90F
:10438000006808BD08F0CCF94068FAE708F0C8F901
:104390008068F6E708F0C4F9C068F2E708F0C0F9F1
:1043A0004069EEE708F0BCF98069EAE708F0B8F97F
:1043B000C069E6E708F0B4F9006AE2E708F0B0F98E
:1043C000406ADEE708F0ACF90069DAE708F0A8F91E
:1043D000806AD6E70020D4E710B50421044628F00F
:1043E0002EFD204610BD13B5002451B10368019481
:1043F0008DF8034001AA9C680DF10303A04702B0A9
:1044000010BD0846FBE7C0897047008A7047C08826
:10441000704780887047807A00F07F007047807A0C
:10442000C0097047002070479FED010A704700BF28
:1044300000000000704710B50821044628F0FFFC7A
:10444000204610BD406A7047806A704770478A886E
:104450000B8810B5D20A4C88C1699BB251F8220072
:1044600043EA0443184410BD10B50446BAB1107BAA
:1044700068B1537BD27A1B0203F4E0631A43236AC8
:1044800003EB82031A888A4202D193F9020010BD1D
:1044900005D8013880B204330028F3D1F7E70020B3
:1044A000F5E710B52C21044628F0C9FC204610BDC4
:1044B00030B58BB00446BDF860500895BDF85C502F
:1044C00007959DF8505006959DF84C5005959DF820
:1044D000485004959DF8445003959DF8405002952E
:1044E0009DF83C500195BDF83850009518F080F8C3
:1044F000064B2360159BE361169B2362199B636245
:104500001A9BA36220460BB030BD00BFE8F1020841
:104510007047000030B5174D2C6814F001048FB0BF
:10452000BFF35B8F22D1284628F08BFCF0B13F23EC
:104530000993114B0893114B07930123CDE90543D0
:104540000223CDE9024313230D4900932D221623A4
:10455000CDE90B440B480A9404940194FFF7A8FF9B
:10456000094829F0EBFB284628F077FC05480FB0F6
:1045700030BD00BFB4540020F8B30408A4B8040848
:104580002C980408B854002011450008704700001A
:1045900030B5174D2C6814F001048FB0BFF35B8F5A
:1045A00022D1284628F04DFCF0B13F230993114B4E
:1045B0000893114B07930123CDE905430223CDE96D
:1045C000024317230D49009331221C23CDE90B44EC
:1045D0000B480A9404940194FFF76AFF094829F0F4
:1045E000ADFB284628F039FC05480FB030BD00BFB0
:1045F000E4540020ACB40408A8B80408A49A040841
:10460000E85400208D4500087047000030B5174D74
:104610002C6814F001048FB0BFF35B8F22D12846C1
:1046200028F00FFCF0B13F230993114B0893114B75
:1046300007930123CDE905330223CDE90243142377
:104640000D49009317221823CDE90B440B480A9417
:1046500004940194FFF72CFF094829F06FFB2846CA
:1046600028F0FBFB05480FB030BD00BF14550020FB
:1046700088B50408ACB80408549D040818550020F7
:10468000094600087047000030B5174D2C6814F03B
:1046900001048FB0BFF35B8F22D1284628F0D1FBF5
:1046A000F0B13F230993114B0893114B079301235A
:1046B000CDE905330223CDE902430C230D490093D4
:1046C0005F220F23CDE90B440B480A940494019414
:1046D000FFF7EEFE094829F031FB284628F0BDFB24
:1046E00005480FB030BD00BF44550020B8B50408E0
:1046F000B0B80408989E0408485500208546000874
:104700007047000030B5174D2C6814F001048FB0CD
:10471000BFF35B8F22D1284628F093FBF0B13F23F3
:104720000993114B0893114B07930123CDE90533EE
:10473000022201930F23CDE902420D490093642226
:104740001223CDE90B440B480A940494FFF7B0FE02
:10475000094829F0F3FA284628F07FFB05480FB0F6
:1047600030BD00BF745500203CB60408B4B804083E
:10477000CCA30408785500200147000870470000CA
:1047800030B5174D2C6814F001048FB0BFF35B8F68
:1047900022D1284628F055FBF0B13F230993114B55
:1047A0000893114B07930123CDE905330223CDE98B
:1047B000024310230D49009349221323CDE90B44F2
:1047C0000B480A9404940194FFF772FE094829F0FB
:1047D000B5FA284628F041FB05480FB030BD00BFB0
:1047E000A455002018B70408B8B8040844A9040860
:1047F000A85500207D4700087047000030B5174DD0
:104800002C6814F001048FB0BFF35B8F22D12846CF
:1048100028F017FBF0B13F230993114B0893114B7C
:1048200007930123CDE905330223CDE90243122387
:104830000D49009339221623CDE90B440B480A9405
:1048400004940194FFF734FE094829F077FA2846CA
:1048500028F003FB05480FB030BD00BFD455002041
:10486000D8B70408BCB8040844AD0408D8550020E3
:10487000F94700087047000030B5164D2C6814F059
:1048800001048FB0BFF35B8F21D1284628F0D9FAFD
:10489000E8B13F230993104B0893104B0793012372
:1048A000CDE905430223CDE9024314230C490093CB
:1048B0001622CDE90B440B480A9404940194FFF7A7
:1048C000F7FD094829F03AFA284628F0C6FA0548C3
:1048D0000FB030BD0456002074B80408C0B80408F6
:1048E00064B00408085600207548000870470000AE
:1048F00030B5164D2C6814F001048FB0BFF35B8FF8
:1049000020D1284628F09DFAE0B13F230993104BAF
:104910000893104B104911480A94CDE9064302232D
:10492000CDE90243202300930F22CDE90B44CDE9CA
:1049300004440194FFF7BCFD094829F0FFF928461B
:1049400028F08BFA05480FB030BD00BF3456002068
:1049500098B80408C4B8040898B104083856002070
:10496000ED4800087047000030B5164D2C6814F073
:1049700001048FB0BFF35B8F20D1284628F061FA85
:10498000E0B13F230993104B0893104B1049114895
:104990000A94CDE906430223CDE902432223009382
:1049A0000D22CDE90B44CDE904440194FFF780FDCD
:1049B000094829F0C3F9284628F04FFA05480FB0F6
:1049C00030BD00BF645600209CB80408C8B8040875
:1049D0006CB2040868560020654900087047000062
:1049E00030B5164D2C6814F001048FB0BFF35B8F07
:1049F00021D1284628F025FAE8B13F230993104B2E
:104A00000893104B104911480A94CDE9064302233C
:104A1000CDE902432D2300930F222E23CDE90B4431
:104A2000CDE904440194FFF743FD094829F086F9D4
:104A3000284628F012FA05480FB030BD94560020E1
:104A4000A0B80408CCB8040824B304089856002081
:104A5000DD4900087047704700F598730868496899
:104A600003C3704770477047416070477047704795
:104A7000064BC0F84C310023C0F8503100F5A2734A
:104A8000C0F84801C0F84031704700BF314B000802
:104A9000012303727047704710B4C2684168541014
:104AA000034601EB6200D20748BF0A599B685DF8D4
:104AB000044B48BFD35818470346406830B19A6842
:104AC0001AB9D86800F0010070470120704710B58E
:104AD0000C21044628F0B3F9204610BD10B5102172
:104AE000044628F0ACF9204610BD10B54FF4AE7165
:104AF000044628F0A4F9204610BD10B516F02AFA95
:104B00000368BDE81040DB6B184710B50446D0F8C9
:104B1000400158B10368DB68984738B1D4F84001C8
:104B200003689B6898470023C4F8403110BD00001B
:104B30002DE9F14FD0E9556A0746B06803681B6A52
:104B40009847B0F5F85F05D2444B454AA321454844
:104B500029F0D6F8706803681B6A98470F2803D8B5
:104B6000414B3F4AA421F2E7F06803681B6A98476B
:104B70000B2803D83D4B3A4AA521E8E716F0EAF99D
:104B8000DFF8F090043016F00AFAD9F8000010B1FE
:104B90000368DB689847D9F8000010B103681B6808
:104BA0009847DFF8D480D8F8000010B103685B693B
:104BB0009847D7F83C0110B103685B689847D8F86C
:104BC000000010B103681B689847D7F83C0110B18A
:104BD00003689B689847F068036800215B6A984700
:104BE0004FF0000B224BC0F804B0044680F808B028
:104BF0000360B068036859465B6A984705460CF045
:104C000055FE7068036859465B6A98472946064610
:104C10000CF026FE331DC7F83C61C9F80040C8F807
:104C20000050CAF800302B68C6F808A02846DB6898
:104C3000EE639847336830461B68984721462846FC
:104C400018F04DF9236820461B69984723685B6973
:104C5000204601B0BDE8F04F184700BF48F20208F7
:104C6000D6F20208A8F30208ECF302088FF4020857
:104C7000101303081C58012020580120044B1B6806
:104C800093F85C200AB1186D00B99868704700BFAE
:104C9000D4570120F8B5174604460E4616F020FA00
:104CA000124B1C60124B2360124B0025C4E9513596
:104CB000114BC4E953551868036829469B68C4E939
:104CC0004F55C4E955769847284607F0D9FCFFF7B9
:104CD000D5FF1EF0C4FAFFF7D1FF24F057FFFFF70E
:104CE000CDFF24F05FFF2046F8BD00BF245801200F
:104CF000BC120308A4120308D4570120064BC0F8C5
:104D00004C310023C0F8503100F5A273C0F84801BF
:104D1000C0F84031704700BF314B00080020704799
:104D200081807047C1807047018170474181704721
:104D30007047704770477047704710B4C488036865
:104D4000121B84885B6D091B12B25DF8044B09B21B
:104D500018474FF6FF7383814FF0FF3303621368E8
:104D6000C36110607047806A7047704790F82C30BC
:104D70004BB100F16C021268C2653BB100F17403E3
:104D80001B680366704700F16802F4E700F17003E6
:104D9000F6E790F82D3080F85A30704710B578213A
:104DA000044628F04CF8204610BD90F8252012B19A
:104DB00003685B691847704710B50446006B50B133
:104DC0000368DB68984730B1206B036821469B6815
:104DD000BDE81040184710BD90F825201AB190F892
:104DE000242002B1186070470B7970B590F82C60E0
:104DF00004460D460BB916B170BD002EFCD0B3FAB7
:104E000083F35B0984F82C3023682046D3F88C3078
:104E10009847236820465B699847002EECD02B7991
:104E2000012BE9D123682046D3F88830BDE87040D3
:104E300018470000074A02600022C0E90122C0E9C9
:104E40000322C0E90522C0E907224FF48072828460
:104E5000704700BF94A8030870B5036804461B6B35
:104E6000154698472368294620465B6BBDE870408D
:104E7000184770B504461D46BDF91060FFF7ECFFFA
:104E80002368294620469B6B984723683146204675
:104E9000DB6BBDE87040184710B5262204460021A0
:104EA00029F06BF92046FFF7C5FF044B2360FF2371
:104EB00084F826300023A362204610BD88A603088C
:104EC00030B5036885B06D460181D3F88430014662
:104ED00004462846984795E807003C3484E80700D4
:104EE00005B030BD30B5036885B06D464181D3F85B
:104EF0008430014604462846984795E807003C342C
:104F000084E8070005B030BD002202804280828024
:104F1000C280704780F83610704770B50368044649
:104F20001B6B154698472368294620465B6EBDE8F3
:104F30007040184700207047806C7047704710B56C
:104F40004C21044627F07BFF204610BD08B5FFF733
:104F50002CFF08BD036870B55E6B124B1B680446DE
:104F60008DB22BB9104B114A6C21114828F0C8FEA4
:104F70001049828D0988914203D80F4B0B4A6D214D
:104F8000F3E713F812200D4B1B6853F82200036857
:104F90001B6B9847291A3346204609B2BDE870407A
:104FA000184700BF3458012032F5020874F5020892
:104FB000AFF5020828580120F3F502082C5801200B
:104FC00000224FF0FF31C0E90021826070470000ED
:104FD00010B526220446002129F0CFF82046FFF71D
:104FE00029FFFF23044A84F826300023A3622260AD
:104FF000E3622386204610BD5CA7030810B5262275
:105000000446002129F0B9F82046FFF713FF0A4BA8
:1050100023600A4BA3624FF6FF73A3854FF47F0210
:105020000023C4E90C3223874FF0FF32C4E9102378
:10503000E363204610BD00BFF8A50308D8F10208BD
:105040007047704710B5CC21044627F0F8FE204683
:1050500010BD00002DE9F0434FF48073074689B07E
:1050600000258384454B8562C0E90155C0E903559D
:10507000C0E90555C0E9075547F82C3B044604F143
:1050800074083846FFF7BAFF4046FFF7B7FF3C4BBE
:1050900063673C4BA3601423C4F8BC500522009303
:1050A00015218A233846FFF7E4FE02AE364BE3654E
:1050B000A4F860503946304612F0B8F996E8070077
:1050C00004F1680383E80700DFF8E490CDF8189056
:1050D000842306A93846ADF81C3012F06DFC394621
:1050E00020460EF04EFE2623192229460093404604
:1050F000B423FFF7BEFE254BC4F8A430636FA4F8B9
:10510000A850D3F8843041463046984796E80700C7
:1051100004F1B00383E807001D4B1B6804F1C005D0
:105120002BB91C4B1C4A60211C4828F0E9FD1C4B84
:105130001B88862B03D81B4B174A6121F4E71A4BB7
:105140008621186807F0DCFA184A0346062128462B
:1051500019F039F9852306A94046C4F8BC50ADF8CA
:105160001C30CDF8189012F027FC204641460EF076
:1051700008FE204609B0BDE8F08300BF60140308B4
:10518000D0130308B4004000B8C0C4FFE8F2F5FF34
:105190003458012032F5020831F60208AFF5020852
:1051A00028580120F3F502083058012075F802084C
:1051B000D8F102087047704710B54FF4E07104460B
:1051C00027F03DFE204610BD2DE9F04F04468BB080
:1051D0002746FFF72FFE0026834BA66247F82C3B9D
:1051E00004F1740A3846FFF709FF5046FFF706FF3F
:1051F0007E4B636704F1C0031846C4F8BC60039398
:10520000FFF74AFE7A4BC4F8C03004F1F4031846A5
:10521000C4F8EC60A4F8F06004F59079029304F50A
:10522000B478FFF739FE4846FFF7E8FE4046FFF73F
:10523000E5FE4FF0140B6F4BA360462238464FF447
:10524000B2732A21CDF800B0FFF713FE04AD6A4B0C
:10525000E36539462846A4F8606012F0E7F895E85F
:10526000070004F1680383E80700644B089338469D
:10527000692308A9ADF8243012F09EFB3946204678
:105280000EF07FFD3C23324600936E21DC23504616
:10529000FFF7EFFD5A4BC4F8A430636FA4F8A86081
:1052A000D3F8843051462846984795E8070004F122
:1052B000B00383E80700534B1B6804F5D8772BB97C
:1052C000514B524A6021524828F01AFD514B1B881D
:1052D000882B03D8504B4D4A6121F4E74F4B88216E
:1052E000186807F00DFA4E4A03460821384619F0AF
:1052F0006AF8424BC4F8BC70089308A9872350464B
:10530000ADF824300C2712F057FB514620460EF022
:1053100038FD03980097682259464FF4C873FFF789
:10532000A8FD404B0399A4F8F060C4E93A33204645
:105330000EF027FD02980097334668225946FFF782
:1053400098FD394B0299C4F81C31204615270EF000
:1053500018FD4FF0FF3A40237822594648460097FF
:10536000FFF787FD49462846C4F850A1A4F85461C8
:1053700012F05CF895E8070004F5AE7383E80700C7
:105380001E4B089308A971234846ADF8243012F04B
:1053900013FB494620460EF0F4FC43237822404696
:1053A000009740F27D11FFF764FD41462846C4F89E
:1053B00098A1A4F89C6112F039F895E8070004F56B
:1053C000D27383E807000D4B089308A97223404667
:1053D000ADF8243012F0F0FA204641460EF0D1FC30
:1053E00020460BB0BDE8F08FF4140308D013030877
:1053F0005CA70308C3019A00B8C0C4FFD8F1020833
:10540000FAF7F2FF3458012032F5020831F60208AB
:10541000AFF5020828580120F3F5020830580120A2
:1054200075F802084C5252FF00AAF0FF704770470F
:105430007047704730B4C26844685510034604EBA7
:105440006200D20748BF62599B6830BC48BFD3583E
:1054500018470346406830B19A681AB9D86800F016
:10546000010070470120704710B51021044627F055
:10547000E6FC204610BD10B54FF4FC71044627F041
:10548000DEFC204610BD00F12C028A4203D10368E5
:10549000D3F88C301847704710B5262204460021F7
:1054A00028F06BFE2046FFF7C5FC084B23604FF643
:1054B000FF73E3844FF07E53A362E3620023236310
:1054C0006363A363E3632364204610BDF0A603086F
:1054D0002DE9F04F04468BB026460025FFF7AAFCC5
:1054E000864BA56246F82C3B3046FFF7A3FC4FF4F1
:1054F0007F43A4F858304FF0010304F1600B84F8A7
:1055000050307F4BE3626565E5655846FFF7C4FCA4
:105510007C4B23662A4629465846C4E92555C4E9EA
:105520002755C4F88C50A4F89050FFF795FC04F16F
:10553000A40A594630460EF024FC04F1E80850460F
:10554000FFF7AAFF04F598774046FFF757FD04F5EB
:10555000BC793846FFF752FD4846FFF79DFF04F53A
:10556000DE7318460393FFF797FC674BC4E97A3460
:10557000664BC4E97C35664BA36029462B462A4618
:1055800058460095FFF775FC624AA4F890504FF01A
:105590007F43C4E92532C4E927333046FFF7E6FBF1
:1055A00004F5F473E36546232A46009329464FF435
:1055B000C8733046FFF75DFC314620460EF0E1FB34
:1055C0005046132112F036FB30234FF0000B0093AE
:1055D0000B2250460C21FFF74CFC51462046C4F8E4
:1055E000CCB0C4F8D0B0C4F8E0B0C4F8E4B0C4F8AB
:1055F000D8B0C4F8DCB0C4F8D4B00EF0C2FB1A23A3
:1056000000930A2240464FF48C734821FFF731FC87
:1056100004AE414BC4F8183141463046A4F81C5141
:1056200011F004FF96E8070004F5927383E8070081
:10563000DFF8F0A0CDF820A0082308A94046ADF877
:10564000243012F0B9F9414620460EF09AFB162399
:105650000093282238464FF48C734821FFF709FC49
:105660002E4BC4F8603139463046A4F8645111F02D
:10567000DDFE96E8070004F5B67383E8070009230A
:1056800008A93846ADF82430CDF820A012F094F9DE
:10569000394620460EF075FB4846122112F0CAFA30
:1056A000282300930F2248464FF4B271FFF7E1FB25
:1056B00049462046C4F8A0B1C4F8A4B1C4F8B4B1B6
:1056C000C4F8B8B1C4F8ACB1C4F8B0B1C4F8A8B16A
:1056D0000EF057FB01230398009345224FF4AC735F
:1056E0003821FFF7C6FB0E4B0399C4F8E43120467E
:1056F0000EF047FB20460BB0BDE8F08FA015030865
:10570000341303085CA703088815030887540008AE
:10571000900146000C0E0EFFE8F2F5FF94897CFF25
:105720003F362EFFD8F102087047704710B5582158
:10573000044627F084FB204610BD000073B54FF4EB
:105740008073064600258384194B8562C0E90155A4
:10575000C0E90355C0E90555C0E9075546F82C3B9B
:1057600004464FF6FF7301A93046ADF8043011F03E
:1057700029FD4FF01C13A36001A906233046ADF8A4
:10578000043012F08AFE304625631C21FFF7CCFA64
:1057900030461C21FFF7CAFA3046012111F0A8FC5F
:1057A000204631460EF0EDFA204602B070BD00BF33
:1057B0003816030870477047704770477047704746
:1057C00070477047704730B4C2684468551003464C
:1057D00004EB6200D20748BF62599B6830BC48BFE7
:1057E000D35818470346406830B19A681AB9D86848
:1057F00000F0010070470120704710B510210446E9
:1058000027F01DFB204610BD00F19803994270B5AA
:1058100004460D4602D10368DB6A984704F5FB6332
:105820009D4203D1236820461B6B984704F6E4038E
:105830009D4205D1236820465B6BBDE87040184748
:1058400070BD00000022C0E90122C0E90322C0E9C6
:105850000522C0E907224FF480728284014A026067
:10586000704700BFCC1603084FF47F4370B506465F
:10587000838540F2011300258384124B8562C0E9C1
:105880000155C0E90355C0E90555C0E90755056351
:1058900046F8343B04463046FFF7FEFA0A4B636392
:1058A0002A4629463046C4E91A55C4E91C552566DE
:1058B000A4F86450FFF7D0FA204631460EF061FAA2
:1058C000204670BD341303085CA703082DE9F04F90
:1058D0002DED028B044695B0A046002517F064F923
:1058E000DE4BE56348F8403B4046FFF7D5FA04F14C
:1058F0006C03184604F1980A069304F58879FFF7BB
:10590000CBFA5046FFF7B0FF04F5AA774846FFF7F9
:10591000C3FD3846FFF772FB04F5CE7318460393B8
:10592000FFF76CFB04F5F27318460A930AF024FCA7
:1059300004F5787318460B930AF01EFC04F2DC534E
:1059400018460C930AF018FC04F5FB6318460893FC
:10595000FFF78AFF04F5056318460493FFF74EFB33
:1059600004F6980318460793FFF748FBBC4BC4F8AE
:10597000983804F6E4031846C4F8E0580993FFF792
:1059800073FF04F65C13184604F6A41B0593FFF797
:1059900035FB5846FFF780FD04F6E81318460D93D3
:1059A0000AF092FC04F50053AE4AC3F87426AE4ADE
:1059B000C3F87C26C3F87846C3F880564FF4E1510B
:1059C00004F6542013F08CFC4FF4A0732A46404692
:1059D000009329464FF4F073261DFFF74AFA4FF063
:1059E0007F434146A36630460EF0CBF94FF4A073D7
:1059F0002A460698009329464FF4F073FFF739FAC8
:105A00004FF07F430699C4F8943030460EF0B9F950
:105A100029462B462A4604F1CC000095FFF729FAC7
:105A20004FF00103A4F8FC304FF07F43C4F800317D
:105A300003F560238D4A9FED8E8A03F60C63C4F84C
:105A400004316FF00703C4E942235046FFF78EF993
:105A500004F51951343148230E22C4F8C8105046B9
:105A60000691009329467823FFF703FA5146304602
:105A70000EF087F94FF028084846294612F0DAF868
:105A80001E22484643461C21CDF80080FFF7F1F95D
:105A9000784BC4F838314946C4F83C31304684ED7F
:105AA000538A84ED548A84ED518A84ED528A84EDC0
:105AB000508A0EF066F920232622384600936FF0B4
:105AC00008014FF4F073FFF7D4F90DF13809674B73
:105AD000C4F8843139464846A4F8885111F0A6FC30
